{"contracts/Store.sol":{"Store":{"abi":[{"inputs":[{"internalType":"address","name":"owner","type":"address"}],"name":"OwnableInvalidOwner","type":"error"},{"inputs":[{"internalType":"address","name":"account","type":"address"}],"name":"OwnableUnauthorizedAccount","type":"error"},{"anonymous":false,"inputs":[{"indexed":true,"internalType":"address","name":"previousOwner","type":"address"},{"indexed":true,"internalType":"address","name":"newOwner","type":"address"}],"name":"OwnershipTransferred","type":"event"},{"anonymous":false,"inputs":[{"indexed":false,"internalType":"uint256","name":"id","type":"uint256"},{"indexed":false,"internalType":"string","name":"name","type":"string"},{"indexed":false,"internalType":"uint256","name":"quantity","type":"uint256"}],"name":"ProductAdded","type":"event"},{"anonymous":false,"inputs":[{"indexed":false,"internalType":"uint256","name":"id","type":"uint256"},{"indexed":false,"internalType":"address","name":"buyer","type":"address"}],"name":"ProductBought","type":"event"},{"anonymous":false,"inputs":[{"indexed":false,"internalType":"uint256","name":"id","type":"uint256"}],"name":"ProductRefund","type":"event"},{"anonymous":false,"inputs":[{"indexed":false,"internalType":"uint256","name":"id","type":"uint256"},{"indexed":false,"internalType":"string","name":"name","type":"string"},{"indexed":false,"internalType":"uint256","name":"quantity","type":"uint256"}],"name":"ProductUpdated","type":"event"},{"inputs":[{"internalType":"string","name":"name","type":"string"},{"internalType":"uint16","name":"quantity","type":"uint16"}],"name":"addProduct","outputs":[],"stateMutability":"nonpayable","type":"function"},{"inputs":[{"internalType":"uint256","name":"id","type":"uint256"}],"name":"buyProduct","outputs":[],"stateMutability":"nonpayable","type":"function"},{"inputs":[],"name":"getAllProducts","outputs":[{"components":[{"internalType":"string","name":"name","type":"string"},{"internalType":"uint16","name":"quantity","type":"uint16"}],"internalType":"struct StoreBase.Product[]","name":"","type":"tuple[]"}],"stateMutability":"view","type":"function"},{"inputs":[{"internalType":"uint256","name":"id","type":"uint256"}],"name":"getProductBuyersById","outputs":[{"internalType":"address[]","name":"","type":"address[]"}],"stateMutability":"view","type":"function"},{"inputs":[{"internalType":"uint256","name":"id","type":"uint256"}],"name":"getProductById","outputs":[{"components":[{"internalType":"string","name":"name","type":"string"},{"internalType":"uint16","name":"quantity","type":"uint16"}],"internalType":"struct StoreBase.Product","name":"","type":"tuple"}],"stateMutability":"view","type":"function"},{"inputs":[{"internalType":"string","name":"name","type":"string"}],"name":"getProductByName","outputs":[{"components":[{"internalType":"string","name":"name","type":"string"},{"internalType":"uint16","name":"quantity","type":"uint16"}],"internalType":"struct StoreBase.Product","name":"","type":"tuple"}],"stateMutability":"view","type":"function"},{"inputs":[],"name":"getRefundPolicyNumber","outputs":[{"internalType":"uint8","name":"","type":"uint8"}],"stateMutability":"view","type":"function"},{"inputs":[],"name":"owner","outputs":[{"internalType":"address","name":"","type":"address"}],"stateMutability":"view","type":"function"},{"inputs":[{"internalType":"uint256","name":"","type":"uint256"}],"name":"products","outputs":[{"internalType":"string","name":"name","type":"string"},{"internalType":"uint16","name":"quantity","type":"uint16"}],"stateMutability":"view","type":"function"},{"inputs":[{"internalType":"uint256","name":"id","type":"uint256"}],"name":"refundProduct","outputs":[],"stateMutability":"nonpayable","type":"function"},{"inputs":[],"name":"renounceOwnership","outputs":[],"stateMutability":"nonpayable","type":"function"},{"inputs":[{"internalType":"uint8","name":"blockNumber","type":"uint8"}],"name":"setRefundPolicyNumber","outputs":[],"stateMutability":"nonpayable","type":"function"},{"inputs":[{"internalType":"address","name":"newOwner","type":"address"}],"name":"transferOwnership","outputs":[],"stateMutability":"nonpayable","type":"function"},{"inputs":[{"internalType":"uint256","name":"id","type":"uint256"},{"internalType":"uint16","name":"quantity","type":"uint16"}],"name":"updateProductQuantity","outputs":[],"stateMutability":"nonpayable","type":"function"}],"evm":{"bytecode":{"linkReferences":{},"object":"60806040526064600060146101000a81548160ff021916908360ff16021790555034801561002c57600080fd5b5033600073ffffffffffffffffffffffffffffffffffffffff168173ffffffffffffffffffffffffffffffffffffffff16036100a05760006040517f1e4fbdf700000000000000000000000000000000000000000000000000000000815260040161009791906101d7565b60405180910390fd5b6100af816100cf60201b60201c565b506100ca6728fcb98e85d6998860c01b61019360201b60201c565b6101f2565b60008060009054906101000a900473ffffffffffffffffffffffffffffffffffffffff169050816000806101000a81548173ffffffffffffffffffffffffffffffffffffffff021916908373ffffffffffffffffffffffffffffffffffffffff1602179055508173ffffffffffffffffffffffffffffffffffffffff168173ffffffffffffffffffffffffffffffffffffffff167f8be0079c531659141344cd1fd0a4f28419497f9722a3daafe3b4186f6b6457e060405160405180910390a35050565b50565b600073ffffffffffffffffffffffffffffffffffffffff82169050919050565b60006101c182610196565b9050919050565b6101d1816101b6565b82525050565b60006020820190506101ec60008301846101c8565b92915050565b6134f2806102016000396000f3fe608060405234801561001057600080fd5b50600436106100ea5760003560e01c80638642269e1161008c578063d4290f8311610066578063d4290f8314610224578063ea25877214610254578063f2fde38b14610284578063fb8fc184146102a0576100ea565b80638642269e146101ce5780638da5cb5b146101ea578063c750fc5414610208576100ea565b80636a1d1959116100c85780636a1d195914610159578063715018a6146101775780637274d680146101815780637acc0b201461019d576100ea565b806302ee3a52146100ef5780633f70c2b41461010d57806343b726481461013d575b600080fd5b6100f76102bc565b6040516101049190612666565b60405180910390f35b610127600480360381019061012291906126d2565b610409565b604051610134919061273c565b60405180910390f35b610157600480360381019061015291906128bf565b61064c565b005b610161610b15565b60405161016e9190612937565b60405180910390f35b61017f610b68565b005b61019b600480360381019061019691906126d2565b610b7c565b005b6101b760048036038101906101b291906126d2565b610d8c565b6040516101c59291906129ab565b60405180910390f35b6101e860048036038101906101e391906126d2565b610e56565b005b6101f261129d565b6040516101ff9190612a1c565b60405180910390f35b610222600480360381019061021d9190612a37565b6112c6565b005b61023e60048036038101906102399190612a77565b6114f2565b60405161024b919061273c565b60405180910390f35b61026e600480360381019061026991906126d2565b611866565b60405161027b9190612b7e565b60405180910390f35b61029e60048036038101906102999190612bcc565b611a2e565b005b6102ba60048036038101906102b59190612c25565b611ab4565b005b60606102d267c3cc3b53691edf4060c01b611b2a565b6102e6676a590bc8840fc6b560c01b611b2a565b6102fa67e0d1caab076cc7ab60c01b611b2a565b6001805480602002602001604051908101604052809291908181526020016000905b82821015610400578382906000526020600020906002020160405180604001604052908160008201805461034f90612c81565b80601f016020809104026020016040519081016040528092919081815260200182805461037b90612c81565b80156103c85780601f1061039d576101008083540402835291602001916103c8565b820191906000526020600020905b8154815290600101906020018083116103ab57829003601f168201915b505050505081526020016001820160009054906101000a900461ffff1661ffff1661ffff16815250508152602001906001019061031c565b50505050905090565b61041161249c565b610425673242bc8e47ef74a260c01b611b2a565b81600180549050610440670c129d2f13d9076f60c01b611b2d565b61045467588a5de3abccfae260c01b611b2d565b61046867d2dc63e69e651c2f60c01b611b2d565b61047c677e7e32f2edfaed1560c01b611b2d565b8082106104be576040517f08c379a00000000000000000000000000000000000000000000000000000000081526004016104b590612cfe565b60405180910390fd5b6104d2670f5bbbf16de3c4e160c01b611b2d565b6104e66774fa6d135aa12a0a60c01b611b2d565b6104fa676365072a9a7d18d660c01b611b2a565b61050e67133f274dd43f81e460c01b611b2a565b61052267a90ff54cc408e1e260c01b611b2a565b61053667afafd8a281b7f6d360c01b611b2a565b60006001858154811061054c5761054b612d1e565b5b906000526020600020906002020190506105706704bddbb13052626860c01b611b2a565b61058467ba3638052381ba1d60c01b611b2a565b806040518060400160405290816000820180546105a090612c81565b80601f01602080910402602001604051908101604052809291908181526020018280546105cc90612c81565b80156106195780601f106105ee57610100808354040283529160200191610619565b820191906000526020600020905b8154815290600101906020018083116105fc57829003601f168201915b505050505081526020016001820160009054906101000a900461ffff1661ffff1661ffff16815250509350505050919050565b610660677e600eef8613e78260c01b611b2a565b610668611b30565b61067c67b9e8a4b3021abcf460c01b611b2a565b6106906789f4a138cbf7400c60c01b611b2a565b806106a567af17fb77a15f41d460c01b611b2d565b6106b967edae4ce289dcbde860c01b611b2d565b6106cd673fe946463747dd3560c01b611b2d565b6106e167fbb6bb1ea9053ddb60c01b611b2d565b60008161ffff1611610728576040517f08c379a000000000000000000000000000000000000000000000000000000000815260040161071f90612d99565b60405180910390fd5b61073c67b42f36a6d47ed78560c01b611b2d565b6107506786c8a3260bc67d5860c01b611b2d565b6107646716ad24b57d274c0760c01b611b2a565b61077867d4cbbe2b35607ca960c01b611b2a565b8261078d672c8f3fafbd7f37df60c01b611bb7565b6107a1674d4bc13593d1875d60c01b611bb7565b6107b567ff728968fba1492b60c01b611bb7565b6107c9673fe030f35b97b41b60c01b611bb7565b600081510361080d576040517f08c379a000000000000000000000000000000000000000000000000000000000815260040161080490612e05565b60405180910390fd5b6108216718b841561badcc4d60c01b611bb7565b6108356758c19fdda98653b660c01b611bb7565b61084967030ead4276ff86d560c01b611b2a565b61085d677282521a16bd65b960c01b611b2a565b61087167d783ee37b8d045ea60c01b611b2a565b610885678df50b868dd68cf860c01b611b2a565b6000806003866040516108989190612e61565b908152602001604051809103902060000180546108b490612c81565b90501190506108cd673678bb2448195f9660c01b611b2a565b6108e167b3039ea9d0bcdb4560c01b611b2a565b6000600260006108f088611bba565b815260200190815260200160002054905061091567a84c89c6f8b5c04160c01b611b2a565b6109296712886f9e7a73313560c01b611b2a565b8115610a415761094367035fb3c6b0691fb160c01b611b2a565b61095767fb3b0b1c84e81fbf60c01b611b2a565b61096b67f4e2f0c7e88699e960c01b611b2a565b60006001828154811061098157610980612d1e565b5b906000526020600020906002020190506109a567ae3751d68f51bf3c60c01b611b2a565b6109b967dfe869915b26ba8e60c01b611b2a565b6109c38287611c26565b6109d767524e8c6a52d044b360c01b611b2a565b6109eb676c3546bf6763d53460c01b611b2a565b7ff9b1d9170fbe32752353e00d62e5276b143166c75aa974030dddfac2895601fe82826000018360010160009054906101000a900461ffff16604051610a3393929190612f5b565b60405180910390a150610b0d565b610a55675af95e7740e34f9460c01b611b2a565b610a6967ecbc8f9817a7caef60c01b611b2a565b6001805490509050610a856769b67fb43a68bec660c01b611b2a565b610a9967b70f899a97563b1760c01b611b2a565b610aa96001805490508787611c92565b610abd677ca73306fd25653460c01b611b2a565b610ad167cc45e85999d8153760c01b611b2a565b7fcca07c742c5274e8b72111ba69566aa4442450bfc50bd897ea38d0170d1accfc818787604051610b0493929190612f99565b60405180910390a15b505050505050565b6000610b2b67bb6ecf44e791ce6c60c01b611b2a565b610b3f672ebd1f68c83752a660c01b611b2a565b610b536769076bc0b210c38d60c01b611b2a565b600060149054906101000a900460ff16905090565b610b70611b30565b610b7a6000611e51565b565b610b90673bc1f72e1974426360c01b611b2a565b80600180549050610bab670c129d2f13d9076f60c01b611b2d565b610bbf67588a5de3abccfae260c01b611b2d565b610bd367d2dc63e69e651c2f60c01b611b2d565b610be7677e7e32f2edfaed1560c01b611b2d565b808210610c29576040517f08c379a0000000000000000000000000000000000000000000000000000000008152600401610c2090612cfe565b60405180910390fd5b610c3d670f5bbbf16de3c4e160c01b611b2d565b610c516774fa6d135aa12a0a60c01b611b2d565b610c65673446a75aef46ef4260c01b611b2a565b610c7967e90985c3fa04324060c01b611b2a565b610c8d67c7942e749d68a54860c01b611b2a565b610ca167461e1b569ebcc5d860c01b611b2a565b6000339050610cba67155d9f8f0ca82bee60c01b611b2a565b610cce67729454dec3e54a0260c01b611b2a565b610cd88482611f15565b610cec67b2c3da4bc4092d1760c01b611b2a565b610d0067d6987e9bddfc0b1060c01b611b2a565b600060018581548110610d1657610d15612d1e565b5b90600052602060002090600202019050610d3a67409905f505cca4ce60c01b611b2a565b610d4e67d271e3ca19390c4760c01b611b2a565b7f21b68a0c4ac2beb4bede4a50169cdeeeaff19097e416463da0524864702ffe4485604051610d7d9190612fd7565b60405180910390a15050505050565b60018181548110610d9c57600080fd5b9060005260206000209060020201600091509050806000018054610dbf90612c81565b80601f0160208091040260200160405190810160405280929190818152602001828054610deb90612c81565b8015610e385780601f10610e0d57610100808354040283529160200191610e38565b820191906000526020600020905b815481529060010190602001808311610e1b57829003601f168201915b5050505050908060010160009054906101000a900461ffff16905082565b610e6a67cf8835c1a6ba33c760c01b611b2a565b60018181548110610e7e57610e7d612d1e565b5b906000526020600020906002020160010160009054906101000a900461ffff16610eb267af17fb77a15f41d460c01b611b2d565b610ec667edae4ce289dcbde860c01b611b2d565b610eda673fe946463747dd3560c01b611b2d565b610eee67fbb6bb1ea9053ddb60c01b611b2d565b60008161ffff1611610f35576040517f08c379a0000000000000000000000000000000000000000000000000000000008152600401610f2c90612d99565b60405180910390fd5b610f4967b42f36a6d47ed78560c01b611b2d565b610f5d6786c8a3260bc67d5860c01b611b2d565b610f7167ed680c5d989cbcea60c01b611b2a565b610f856799b588c8f986b7cf60c01b611b2a565b81600180549050610fa0670c129d2f13d9076f60c01b611b2d565b610fb467588a5de3abccfae260c01b611b2d565b610fc867d2dc63e69e651c2f60c01b611b2d565b610fdc677e7e32f2edfaed1560c01b611b2d565b80821061101e576040517f08c379a000000000000000000000000000000000000000000000000000000000815260040161101590612cfe565b60405180910390fd5b611032670f5bbbf16de3c4e160c01b611b2d565b6110466774fa6d135aa12a0a60c01b611b2d565b61105a67ee51ec5ba2feb5fc60c01b611b2a565b61106e676d499af3c259af0460c01b611b2a565b611082679bce114ac887f24260c01b611b2a565b611096679c341989d802118660c01b611b2a565b60003390506110af6733965f2b140c0e4560c01b611b2a565b6110c367b7515578175b9b7960c01b611b2a565b6000600186815481106110d9576110d8612d1e565b5b906000526020600020906002020190506110fd6761a2d5830189ac2860c01b611b2a565b611111679bbdf999cc2ac1eb60c01b611b2a565b600061111d87846121be565b9050611133675ce55882524d5e1360c01b611b2a565b61114767e70863adf584932560c01b611b2a565b61115b675ab4820a180877af60c01b611b2a565b801561119c576040517f08c379a000000000000000000000000000000000000000000000000000000000815260040161119390613064565b60405180910390fd5b6111b0676690538d6a6a606960c01b611b2a565b6111c467e7337bb86f98169960c01b611b2a565b6111d867c2a2e09c890a542360c01b611b2a565b6111e28784612258565b6111f667ae13dcd08a501dd960c01b611b2a565b81600101600081819054906101000a900461ffff1680929190611218906130b3565b91906101000a81548161ffff021916908361ffff16021790555050611247672c9090ce484070ae60c01b611b2a565b61125b67cde9dc3fc237d52f60c01b611b2a565b7f60751e87ab3312710ec7d4da85ea804d0813ca2cb843a75cc23c672e1bd3954a878460405161128c9291906130dc565b60405180910390a150505050505050565b60008060009054906101000a900473ffffffffffffffffffffffffffffffffffffffff16905090565b6112da6770639230eeb7839660c01b611b2a565b6112e2611b30565b6112f667ec2ab5bc374672f760c01b611b2a565b61130a67fa0f978f4a9e1f5f60c01b611b2a565b81600180549050611325670c129d2f13d9076f60c01b611b2d565b61133967588a5de3abccfae260c01b611b2d565b61134d67d2dc63e69e651c2f60c01b611b2d565b611361677e7e32f2edfaed1560c01b611b2d565b8082106113a3576040517f08c379a000000000000000000000000000000000000000000000000000000000815260040161139a90612cfe565b60405180910390fd5b6113b7670f5bbbf16de3c4e160c01b611b2d565b6113cb6774fa6d135aa12a0a60c01b611b2d565b6113df6760e19e3e325e256c60c01b611b2a565b6113f36713e7a8805beb28dd60c01b611b2a565b61140767c39c9d33a2aad05460c01b611b2a565b61141b67e3ee00b8764718d060c01b611b2a565b6114258484611c26565b61143967f7a1f83cce8710c760c01b611b2a565b61144d67cb7eddb32c1b8e5960c01b611b2a565b60006001858154811061146357611462612d1e565b5b906000526020600020906002020190506114876797662dc8b8c0084060c01b611b2a565b61149b67801c237755ca468160c01b611b2a565b7ff9b1d9170fbe32752353e00d62e5276b143166c75aa974030dddfac2895601fe85826000018360010160009054906101000a900461ffff166040516114e393929190612f5b565b60405180910390a15050505050565b6114fa61249c565b61150e677b37c3210993ebff60c01b611b2a565b81611523672c8f3fafbd7f37df60c01b611bb7565b611537674d4bc13593d1875d60c01b611bb7565b61154b67ff728968fba1492b60c01b611bb7565b61155f673fe030f35b97b41b60c01b611bb7565b60008151036115a3576040517f08c379a000000000000000000000000000000000000000000000000000000000815260040161159a90612e05565b60405180910390fd5b6115b76718b841561badcc4d60c01b611bb7565b6115cb6758c19fdda98653b660c01b611bb7565b6115df67caeab94d5b50650a60c01b611b2a565b6115f367b608677990c585e560c01b611b2a565b61160767c4fbda611827702a60c01b611b2a565b61161b67600eec752330f8b060c01b611b2a565b60008060038560405161162e9190612e61565b9081526020016040518091039020600001805461164a90612c81565b905011905061166367c34925a565e1fd2a60c01b611b2a565b61167767bdb8afd713e55ef060c01b611b2a565b61168b67124ec6e5104cd12e60c01b611b2a565b806116cb576040517f08c379a00000000000000000000000000000000000000000000000000000000081526004016116c290612cfe565b60405180910390fd5b6116df67fa97148b8a14aa6560c01b611b2a565b6116f367cb0af0d0bcebc53260c01b611b2a565b61170767573ceb823e2b713560c01b611b2a565b60006002600061171687611bba565b815260200190815260200160002054905061173b67474d2489639307c160c01b611b2a565b61174f67b174bb47f818f9d360c01b611b2a565b60006001828154811061176557611764612d1e565b5b9060005260206000209060020201905061178967c0883c441898447860c01b611b2a565b61179d67e48c71f57d0054d360c01b611b2a565b806040518060400160405290816000820180546117b990612c81565b80601f01602080910402602001604051908101604052809291908181526020018280546117e590612c81565b80156118325780601f1061180757610100808354040283529160200191611832565b820191906000526020600020905b81548152906001019060200180831161181557829003601f168201915b505050505081526020016001820160009054906101000a900461ffff1661ffff1661ffff1681525050945050505050919050565b606061187c6712a27165f0e38aa660c01b611b2a565b81600180549050611897670c129d2f13d9076f60c01b611b2d565b6118ab67588a5de3abccfae260c01b611b2d565b6118bf67d2dc63e69e651c2f60c01b611b2d565b6118d3677e7e32f2edfaed1560c01b611b2d565b808210611915576040517f08c379a000000000000000000000000000000000000000000000000000000000815260040161190c90612cfe565b60405180910390fd5b611929670f5bbbf16de3c4e160c01b611b2d565b61193d6774fa6d135aa12a0a60c01b611b2d565b6119516759ef67489571444560c01b611b2a565b611965679254ee2941367e7060c01b611b2a565b61197967db88acf85cc7cefa60c01b611b2a565b61198d678a4b3400e8b80d9260c01b611b2a565b60056000858152602001908152602001600020805480602002602001604051908101604052809291908181526020018280548015611a2057602002820191906000526020600020905b8160009054906101000a900473ffffffffffffffffffffffffffffffffffffffff1673ffffffffffffffffffffffffffffffffffffffff16815260200190600101908083116119d6575b505050505092505050919050565b611a36611b30565b600073ffffffffffffffffffffffffffffffffffffffff168173ffffffffffffffffffffffffffffffffffffffff1603611aa85760006040517f1e4fbdf7000000000000000000000000000000000000000000000000000000008152600401611a9f9190612a1c565b60405180910390fd5b611ab181611e51565b50565b611ac867d3a7a4306027e22660c01b611b2a565b611ad0611b30565b611ae46757adc9aad697cc8260c01b611b2a565b611af867d4b1a78c4c512ee060c01b611b2a565b611b0c67e3a1281a041e02d960c01b611b2a565b80600060146101000a81548160ff021916908360ff16021790555050565b50565b50565b611b386123a3565b73ffffffffffffffffffffffffffffffffffffffff16611b5661129d565b73ffffffffffffffffffffffffffffffffffffffff1614611bb557611b796123a3565b6040517f118cdaa7000000000000000000000000000000000000000000000000000000008152600401611bac9190612a1c565b60405180910390fd5b565b50565b6000611bd0672469deba75a398e360c01b6123ab565b611be4677f39060a86bf2ebe60c01b6123ab565b611bf867ed303bcb4984edcc60c01b6123ab565b81604051602001611c099190612e61565b604051602081830303815290604052805190602001209050919050565b611c3a676db27cae1bbc6d0960c01b6123ab565b611c4e67a553512dca658c6c60c01b6123ab565b8060018381548110611c6357611c62612d1e565b5b906000526020600020906002020160010160006101000a81548161ffff021916908361ffff1602179055505050565b611ca667e4fe01f1fb44776e60c01b6123ab565b611cba679f4b720286b6719e60c01b6123ab565b611cce6787c0cff45a6145d860c01b6123ab565b600060405180604001604052808481526020018361ffff168152509050611cff67950e110863a6259360c01b6123ab565b611d13675daadc55c322e4ba60c01b6123ab565b6000611d1e84611bba565b9050611d34676d75339ad7a53ea860c01b6123ab565b846002600083815260200190815260200160002081905550611d6067aa9b382436c07d8b60c01b6123ab565b611d746759abf790b06614cd60c01b6123ab565b60018290806001815401808255809150506001900390600052602060002090600202016000909190919091506000820151816000019081611db59190613292565b5060208201518160010160006101000a81548161ffff021916908361ffff1602179055505050611def67223dd2b0ff10919e60c01b6123ab565b81600385604051611e009190612e61565b90815260200160405180910390206000820151816000019081611e239190613292565b5060208201518160010160006101000a81548161ffff021916908361ffff1602179055509050505050505050565b60008060009054906101000a900473ffffffffffffffffffffffffffffffffffffffff169050816000806101000a81548173ffffffffffffffffffffffffffffffffffffffff021916908373ffffffffffffffffffffffffffffffffffffffff1602179055508173ffffffffffffffffffffffffffffffffffffffff168173ffffffffffffffffffffffffffffffffffffffff167f8be0079c531659141344cd1fd0a4f28419497f9722a3daafe3b4186f6b6457e060405160405180910390a35050565b611f2967afda2809af9f9c4960c01b6123ab565b611f3d676c6eb4f2c9e4b74b60c01b6123ab565b611f5167e20516cfc1a86bb260c01b6123ab565b600080600460008473ffffffffffffffffffffffffffffffffffffffff1673ffffffffffffffffffffffffffffffffffffffff16815260200190815260200160002060008581526020019081526020016000205414159050611fbd67ba5c003d22642c8960c01b6123ab565b611fd167446b6a4b0eac468360c01b6123ab565b600061202c600460008573ffffffffffffffffffffffffffffffffffffffff1673ffffffffffffffffffffffffffffffffffffffff1681526020019081526020016000206000868152602001908152602001600020546123ae565b90506120426714f244dc3fbd47ea60c01b6123ab565b6120566738aa906344be32f560c01b6123ab565b61206a677ddd2fa23b78653b60c01b6123ab565b806120aa576040517f08c379a00000000000000000000000000000000000000000000000000000000081526004016120a1906133d6565b60405180910390fd5b6120be67b0bb735795bcaa2160c01b6123ab565b6120d267813c590de779351060c01b6123ab565b6120e667044f32eb0598381460c01b6123ab565b6120fa67547fcda18963b29460c01b6123ab565b8161213a576040517f08c379a000000000000000000000000000000000000000000000000000000000815260040161213190613468565b60405180910390fd5b61214e677ffaca93fcd9a69160c01b6123ab565b61216267efc5c04924008e1260c01b6123ab565b6000600460008573ffffffffffffffffffffffffffffffffffffffff1673ffffffffffffffffffffffffffffffffffffffff16815260200190815260200160002060008681526020019081526020016000208190555050505050565b60006121d4679098097f918742ac60c01b6123ab565b6121e867d0307d11c9c4de4160c01b6123ab565b6121fc67018c8cc009e2c05460c01b6123ab565b6000600460008473ffffffffffffffffffffffffffffffffffffffff1673ffffffffffffffffffffffffffffffffffffffff16815260200190815260200160002060008581526020019081526020016000205411905092915050565b61226c673856248856c584c060c01b6123ab565b6122806768c5f2cee479390360c01b6123ab565b61229467e42924d08a53916160c01b6123ab565b60004390506122ad676d00c7511955bc1260c01b6123ab565b80600460008473ffffffffffffffffffffffffffffffffffffffff1673ffffffffffffffffffffffffffffffffffffffff168152602001908152602001600020600085815260200190815260200160002081905550612316676f0ac7b490d826db60c01b6123ab565b61232a674b77aa327b27c1d960c01b6123ab565b60056000848152602001908152602001600020829080600181540180825580915050600190039060005260206000200160009091909190916101000a81548173ffffffffffffffffffffffffffffffffffffffff021916908373ffffffffffffffffffffffffffffffffffffffff160217905550505050565b600033905090565b50565b60006123c46771b86a670d7e7be460c01b6123ab565b6123d867272f838950e92cc060c01b6123ab565b6123ec674f4b8fd0458f687f60c01b6123ab565b43600060149054906101000a900460ff1660ff168361240b9190613488565b111561245657612425677d89bbc908598d8b60c01b6123ab565b612439674c1e74ece7041f8e60c01b6123ab565b61244d67d42ae1c49cb012ef60c01b6123ab565b60019050612497565b61246a67e18dc71f9927aaa760c01b6123ab565b61247e67d27b5e8ed874773160c01b6123ab565b61249267fa86729c24a0390360c01b6123ab565b600090505b919050565b604051806040016040528060608152602001600061ffff1681525090565b600081519050919050565b600082825260208201905092915050565b6000819050602082019050919050565b600081519050919050565b600082825260208201905092915050565b60005b83811015612520578082015181840152602081019050612505565b60008484015250505050565b6000601f19601f8301169050919050565b6000612548826124e6565b61255281856124f1565b9350612562818560208601612502565b61256b8161252c565b840191505092915050565b600061ffff82169050919050565b61258d81612576565b82525050565b600060408301600083015184820360008601526125b0828261253d565b91505060208301516125c56020860182612584565b508091505092915050565b60006125dc8383612593565b905092915050565b6000602082019050919050565b60006125fc826124ba565b61260681856124c5565b935083602082028501612618856124d6565b8060005b85811015612654578484038952815161263585826125d0565b9450612640836125e4565b925060208a0199505060018101905061261c565b50829750879550505050505092915050565b6000602082019050818103600083015261268081846125f1565b905092915050565b6000604051905090565b600080fd5b600080fd5b6000819050919050565b6126af8161269c565b81146126ba57600080fd5b50565b6000813590506126cc816126a6565b92915050565b6000602082840312156126e8576126e7612692565b5b60006126f6848285016126bd565b91505092915050565b6000604083016000830151848203600086015261271c828261253d565b91505060208301516127316020860182612584565b508091505092915050565b6000602082019050818103600083015261275681846126ff565b905092915050565b600080fd5b600080fd5b7f4e487b7100000000000000000000000000000000000000000000000000000000600052604160045260246000fd5b6127a08261252c565b810181811067ffffffffffffffff821117156127bf576127be612768565b5b80604052505050565b60006127d2612688565b90506127de8282612797565b919050565b600067ffffffffffffffff8211156127fe576127fd612768565b5b6128078261252c565b9050602081019050919050565b82818337600083830152505050565b6000612836612831846127e3565b6127c8565b90508281526020810184848401111561285257612851612763565b5b61285d848285612814565b509392505050565b600082601f83011261287a5761287961275e565b5b813561288a848260208601612823565b91505092915050565b61289c81612576565b81146128a757600080fd5b50565b6000813590506128b981612893565b92915050565b600080604083850312156128d6576128d5612692565b5b600083013567ffffffffffffffff8111156128f4576128f3612697565b5b61290085828601612865565b9250506020612911858286016128aa565b9150509250929050565b600060ff82169050919050565b6129318161291b565b82525050565b600060208201905061294c6000830184612928565b92915050565b600082825260208201905092915050565b600061296e826124e6565b6129788185612952565b9350612988818560208601612502565b6129918161252c565b840191505092915050565b6129a581612576565b82525050565b600060408201905081810360008301526129c58185612963565b90506129d4602083018461299c565b9392505050565b600073ffffffffffffffffffffffffffffffffffffffff82169050919050565b6000612a06826129db565b9050919050565b612a16816129fb565b82525050565b6000602082019050612a316000830184612a0d565b92915050565b60008060408385031215612a4e57612a4d612692565b5b6000612a5c858286016126bd565b9250506020612a6d858286016128aa565b9150509250929050565b600060208284031215612a8d57612a8c612692565b5b600082013567ffffffffffffffff811115612aab57612aaa612697565b5b612ab784828501612865565b91505092915050565b600081519050919050565b600082825260208201905092915050565b6000819050602082019050919050565b612af5816129fb565b82525050565b6000612b078383612aec565b60208301905092915050565b6000602082019050919050565b6000612b2b82612ac0565b612b358185612acb565b9350612b4083612adc565b8060005b83811015612b71578151612b588882612afb565b9750612b6383612b13565b925050600181019050612b44565b5085935050505092915050565b60006020820190508181036000830152612b988184612b20565b905092915050565b612ba9816129fb565b8114612bb457600080fd5b50565b600081359050612bc681612ba0565b92915050565b600060208284031215612be257612be1612692565b5b6000612bf084828501612bb7565b91505092915050565b612c028161291b565b8114612c0d57600080fd5b50565b600081359050612c1f81612bf9565b92915050565b600060208284031215612c3b57612c3a612692565b5b6000612c4984828501612c10565b91505092915050565b7f4e487b7100000000000000000000000000000000000000000000000000000000600052602260045260246000fd5b60006002820490506001821680612c9957607f821691505b602082108103612cac57612cab612c52565b5b50919050565b7f546869732070726f6475637420646f6573206e6f742065786973742100000000600082015250565b6000612ce8601c83612952565b9150612cf382612cb2565b602082019050919050565b60006020820190508181036000830152612d1781612cdb565b9050919050565b7f4e487b7100000000000000000000000000000000000000000000000000000000600052603260045260246000fd5b7f5175616e746974792063616e2774206265203021000000000000000000000000600082015250565b6000612d83601483612952565b9150612d8e82612d4d565b602082019050919050565b60006020820190508181036000830152612db281612d76565b9050919050565b7f596f75206861766520746f20656e7465722061206e616d652100000000000000600082015250565b6000612def601983612952565b9150612dfa82612db9565b602082019050919050565b60006020820190508181036000830152612e1e81612de2565b9050919050565b600081905092915050565b6000612e3b826124e6565b612e458185612e25565b9350612e55818560208601612502565b80840191505092915050565b6000612e6d8284612e30565b915081905092915050565b612e818161269c565b82525050565b60008190508160005260206000209050919050565b60008154612ea981612c81565b612eb38186612952565b94506001821660008114612ece5760018114612ee457612f17565b60ff198316865281151560200286019350612f17565b612eed85612e87565b60005b83811015612f0f57815481890152600182019150602081019050612ef0565b808801955050505b50505092915050565b6000819050919050565b6000612f45612f40612f3b84612576565b612f20565b61269c565b9050919050565b612f5581612f2a565b82525050565b6000606082019050612f706000830186612e78565b8181036020830152612f828185612e9c565b9050612f916040830184612f4c565b949350505050565b6000606082019050612fae6000830186612e78565b8181036020830152612fc08185612963565b9050612fcf6040830184612f4c565b949350505050565b6000602082019050612fec6000830184612e78565b92915050565b7f596f752063616e6e6f7420627579207468652073616d652070726f647563742060008201527f6d6f7265207468616e206f6e6365210000000000000000000000000000000000602082015250565b600061304e602f83612952565b915061305982612ff2565b604082019050919050565b6000602082019050818103600083015261307d81613041565b9050919050565b7f4e487b7100000000000000000000000000000000000000000000000000000000600052601160045260246000fd5b60006130be82612576565b9150600082036130d1576130d0613084565b5b600182039050919050565b60006040820190506130f16000830185612e78565b6130fe6020830184612a0d565b9392505050565b60006020601f8301049050919050565b600082821b905092915050565b6000600883026131527fffffffffffffffffffffffffffffffffffffffffffffffffffffffffffffffff82613115565b61315c8683613115565b95508019841693508086168417925050509392505050565b600061318f61318a6131858461269c565b612f20565b61269c565b9050919050565b6000819050919050565b6131a983613174565b6131bd6131b582613196565b848454613122565b825550505050565b600090565b6131d26131c5565b6131dd8184846131a0565b505050565b5b81811015613201576131f66000826131ca565b6001810190506131e3565b5050565b601f8211156132465761321781612e87565b61322084613105565b8101602085101561322f578190505b61324361323b85613105565b8301826131e2565b50505b505050565b600082821c905092915050565b60006132696000198460080261324b565b1980831691505092915050565b60006132828383613258565b9150826002028217905092915050565b61329b826124e6565b67ffffffffffffffff8111156132b4576132b3612768565b5b6132be8254612c81565b6132c9828285613205565b600060209050601f8311600181146132fc57600084156132ea578287015190505b6132f48582613276565b86555061335c565b601f19841661330a86612e87565b60005b828110156133325784890151825560018201915060208501945060208101905061330d565b8683101561334f578489015161334b601f891682613258565b8355505b6001600288020188555050505b505050505050565b7f536f7272792c20796f7572207265717565737420666f7220726566756e64206860008201527f6173206265656e2064656e6965642e0000000000000000000000000000000000602082015250565b60006133c0602f83612952565b91506133cb82613364565b604082019050919050565b600060208201905081810360008301526133ef816133b3565b9050919050565b7f596f7527766520616c72656164792072657475726e656420796f75722070726f60008201527f64756374206f72206469646e2774206576656e20626f756768742069742e0000602082015250565b6000613452603e83612952565b915061345d826133f6565b604082019050919050565b6000602082019050818103600083015261348181613445565b9050919050565b60006134938261269c565b915061349e8361269c565b92508282019050808211156134b6576134b5613084565b5b9291505056fea2646970667358221220faff835151a5a8f8e2ade1e65ae41e7ace821fb868cdf7089a3713aef16a8d3564736f6c634300081c0033","opcodes":"PUSH1 0x80 PUSH1 0x40 MSTORE PUSH1 0x64 PUSH1 0x0 PUSH1 0x14 PUSH2 0x100 EXP DUP2 SLOAD DUP2 PUSH1 0xFF MUL NOT AND SWAP1 DUP4 PUSH1 0xFF AND MUL OR SWAP1 SSTORE POP CALLVALUE DUP1 ISZERO PUSH2 0x2C JUMPI PUSH1 0x0 DUP1 REVERT JUMPDEST POP CALLER PUSH1 0x0 PUSH20 0xFFFFFFFFFFFFFFFFFFFFFFFFFFFFFFFFFFFFFFFF AND DUP2 PUSH20 0xFFFFFFFFFFFFFFFFFFFFFFFFFFFFFFFFFFFFFFFF AND SUB PUSH2 0xA0 JUMPI PUSH1 0x0 PUSH1 0x40 MLOAD PUSH32 0x1E4FBDF700000000000000000000000000000000000000000000000000000000 DUP2 MSTORE PUSH1 0x4 ADD PUSH2 0x97 SWAP2 SWAP1 PUSH2 0x1D7 JUMP JUMPDEST PUSH1 0x40 MLOAD DUP1 SWAP2 SUB SWAP1 REVERT JUMPDEST PUSH2 0xAF DUP2 PUSH2 0xCF PUSH1 0x20 SHL PUSH1 0x20 SHR JUMP JUMPDEST POP PUSH2 0xCA PUSH8 0x28FCB98E85D69988 PUSH1 0xC0 SHL PUSH2 0x193 PUSH1 0x20 SHL PUSH1 0x20 SHR JUMP JUMPDEST PUSH2 0x1F2 JUMP JUMPDEST PUSH1 0x0 DUP1 PUSH1 0x0 SWAP1 SLOAD SWAP1 PUSH2 0x100 EXP SWAP1 DIV PUSH20 0xFFFFFFFFFFFFFFFFFFFFFFFFFFFFFFFFFFFFFFFF AND SWAP1 POP DUP2 PUSH1 0x0 DUP1 PUSH2 0x100 EXP DUP2 SLOAD DUP2 PUSH20 0xFFFFFFFFFFFFFFFFFFFFFFFFFFFFFFFFFFFFFFFF MUL NOT AND SWAP1 DUP4 PUSH20 0xFFFFFFFFFFFFFFFFFFFFFFFFFFFFFFFFFFFFFFFF AND MUL OR SWAP1 SSTORE POP DUP2 PUSH20 0xFFFFFFFFFFFFFFFFFFFFFFFFFFFFFFFFFFFFFFFF AND DUP2 PUSH20 0xFFFFFFFFFFFFFFFFFFFFFFFFFFFFFFFFFFFFFFFF AND PUSH32 0x8BE0079C531659141344CD1FD0A4F28419497F9722A3DAAFE3B4186F6B6457E0 PUSH1 0x40 MLOAD PUSH1 0x40 MLOAD DUP1 SWAP2 SUB SWAP1 LOG3 POP POP JUMP JUMPDEST POP JUMP JUMPDEST PUSH1 0x0 PUSH20 0xFFFFFFFFFFFFFFFFFFFFFFFFFFFFFFFFFFFFFFFF DUP3 AND SWAP1 POP SWAP2 SWAP1 POP JUMP JUMPDEST PUSH1 0x0 PUSH2 0x1C1 DUP3 PUSH2 0x196 JUMP JUMPDEST SWAP1 POP SWAP2 SWAP1 POP JUMP JUMPDEST PUSH2 0x1D1 DUP2 PUSH2 0x1B6 JUMP JUMPDEST DUP3 MSTORE POP POP JUMP JUMPDEST PUSH1 0x0 PUSH1 0x20 DUP3 ADD SWAP1 POP PUSH2 0x1EC PUSH1 0x0 DUP4 ADD DUP5 PUSH2 0x1C8 JUMP JUMPDEST SWAP3 SWAP2 POP POP JUMP JUMPDEST PUSH2 0x34F2 DUP1 PUSH2 0x201 PUSH1 0x0 CODECOPY PUSH1 0x0 RETURN INVALID PUSH1 0x80 PUSH1 0x40 MSTORE CALLVALUE DUP1 ISZERO PUSH2 0x10 JUMPI PUSH1 0x0 DUP1 REVERT JUMPDEST POP PUSH1 0x4 CALLDATASIZE LT PUSH2 0xEA JUMPI PUSH1 0x0 CALLDATALOAD PUSH1 0xE0 SHR DUP1 PUSH4 0x8642269E GT PUSH2 0x8C JUMPI DUP1 PUSH4 0xD4290F83 GT PUSH2 0x66 JUMPI DUP1 PUSH4 0xD4290F83 EQ PUSH2 0x224 JUMPI DUP1 PUSH4 0xEA258772 EQ PUSH2 0x254 JUMPI DUP1 PUSH4 0xF2FDE38B EQ PUSH2 0x284 JUMPI DUP1 PUSH4 0xFB8FC184 EQ PUSH2 0x2A0 JUMPI PUSH2 0xEA JUMP JUMPDEST DUP1 PUSH4 0x8642269E EQ PUSH2 0x1CE JUMPI DUP1 PUSH4 0x8DA5CB5B EQ PUSH2 0x1EA JUMPI DUP1 PUSH4 0xC750FC54 EQ PUSH2 0x208 JUMPI PUSH2 0xEA JUMP JUMPDEST DUP1 PUSH4 0x6A1D1959 GT PUSH2 0xC8 JUMPI DUP1 PUSH4 0x6A1D1959 EQ PUSH2 0x159 JUMPI DUP1 PUSH4 0x715018A6 EQ PUSH2 0x177 JUMPI DUP1 PUSH4 0x7274D680 EQ PUSH2 0x181 JUMPI DUP1 PUSH4 0x7ACC0B20 EQ PUSH2 0x19D JUMPI PUSH2 0xEA JUMP JUMPDEST DUP1 PUSH4 0x2EE3A52 EQ PUSH2 0xEF JUMPI DUP1 PUSH4 0x3F70C2B4 EQ PUSH2 0x10D JUMPI DUP1 PUSH4 0x43B72648 EQ PUSH2 0x13D JUMPI JUMPDEST PUSH1 0x0 DUP1 REVERT JUMPDEST PUSH2 0xF7 PUSH2 0x2BC JUMP JUMPDEST PUSH1 0x40 MLOAD PUSH2 0x104 SWAP2 SWAP1 PUSH2 0x2666 JUMP JUMPDEST PUSH1 0x40 MLOAD DUP1 SWAP2 SUB SWAP1 RETURN JUMPDEST PUSH2 0x127 PUSH1 0x4 DUP1 CALLDATASIZE SUB DUP2 ADD SWAP1 PUSH2 0x122 SWAP2 SWAP1 PUSH2 0x26D2 JUMP JUMPDEST PUSH2 0x409 JUMP JUMPDEST PUSH1 0x40 MLOAD PUSH2 0x134 SWAP2 SWAP1 PUSH2 0x273C JUMP JUMPDEST PUSH1 0x40 MLOAD DUP1 SWAP2 SUB SWAP1 RETURN JUMPDEST PUSH2 0x157 PUSH1 0x4 DUP1 CALLDATASIZE SUB DUP2 ADD SWAP1 PUSH2 0x152 SWAP2 SWAP1 PUSH2 0x28BF JUMP JUMPDEST PUSH2 0x64C JUMP JUMPDEST STOP JUMPDEST PUSH2 0x161 PUSH2 0xB15 JUMP JUMPDEST PUSH1 0x40 MLOAD PUSH2 0x16E SWAP2 SWAP1 PUSH2 0x2937 JUMP JUMPDEST PUSH1 0x40 MLOAD DUP1 SWAP2 SUB SWAP1 RETURN JUMPDEST PUSH2 0x17F PUSH2 0xB68 JUMP JUMPDEST STOP JUMPDEST PUSH2 0x19B PUSH1 0x4 DUP1 CALLDATASIZE SUB DUP2 ADD SWAP1 PUSH2 0x196 SWAP2 SWAP1 PUSH2 0x26D2 JUMP JUMPDEST PUSH2 0xB7C JUMP JUMPDEST STOP JUMPDEST PUSH2 0x1B7 PUSH1 0x4 DUP1 CALLDATASIZE SUB DUP2 ADD SWAP1 PUSH2 0x1B2 SWAP2 SWAP1 PUSH2 0x26D2 JUMP JUMPDEST PUSH2 0xD8C JUMP JUMPDEST PUSH1 0x40 MLOAD PUSH2 0x1C5 SWAP3 SWAP2 SWAP1 PUSH2 0x29AB JUMP JUMPDEST PUSH1 0x40 MLOAD DUP1 SWAP2 SUB SWAP1 RETURN JUMPDEST PUSH2 0x1E8 PUSH1 0x4 DUP1 CALLDATASIZE SUB DUP2 ADD SWAP1 PUSH2 0x1E3 SWAP2 SWAP1 PUSH2 0x26D2 JUMP JUMPDEST PUSH2 0xE56 JUMP JUMPDEST STOP JUMPDEST PUSH2 0x1F2 PUSH2 0x129D JUMP JUMPDEST PUSH1 0x40 MLOAD PUSH2 0x1FF SWAP2 SWAP1 PUSH2 0x2A1C JUMP JUMPDEST PUSH1 0x40 MLOAD DUP1 SWAP2 SUB SWAP1 RETURN JUMPDEST PUSH2 0x222 PUSH1 0x4 DUP1 CALLDATASIZE SUB DUP2 ADD SWAP1 PUSH2 0x21D SWAP2 SWAP1 PUSH2 0x2A37 JUMP JUMPDEST PUSH2 0x12C6 JUMP JUMPDEST STOP JUMPDEST PUSH2 0x23E PUSH1 0x4 DUP1 CALLDATASIZE SUB DUP2 ADD SWAP1 PUSH2 0x239 SWAP2 SWAP1 PUSH2 0x2A77 JUMP JUMPDEST PUSH2 0x14F2 JUMP JUMPDEST PUSH1 0x40 MLOAD PUSH2 0x24B SWAP2 SWAP1 PUSH2 0x273C JUMP JUMPDEST PUSH1 0x40 MLOAD DUP1 SWAP2 SUB SWAP1 RETURN JUMPDEST PUSH2 0x26E PUSH1 0x4 DUP1 CALLDATASIZE SUB DUP2 ADD SWAP1 PUSH2 0x269 SWAP2 SWAP1 PUSH2 0x26D2 JUMP JUMPDEST PUSH2 0x1866 JUMP JUMPDEST PUSH1 0x40 MLOAD PUSH2 0x27B SWAP2 SWAP1 PUSH2 0x2B7E JUMP JUMPDEST PUSH1 0x40 MLOAD DUP1 SWAP2 SUB SWAP1 RETURN JUMPDEST PUSH2 0x29E PUSH1 0x4 DUP1 CALLDATASIZE SUB DUP2 ADD SWAP1 PUSH2 0x299 SWAP2 SWAP1 PUSH2 0x2BCC JUMP JUMPDEST PUSH2 0x1A2E JUMP JUMPDEST STOP JUMPDEST PUSH2 0x2BA PUSH1 0x4 DUP1 CALLDATASIZE SUB DUP2 ADD SWAP1 PUSH2 0x2B5 SWAP2 SWAP1 PUSH2 0x2C25 JUMP JUMPDEST PUSH2 0x1AB4 JUMP JUMPDEST STOP JUMPDEST PUSH1 0x60 PUSH2 0x2D2 PUSH8 0xC3CC3B53691EDF40 PUSH1 0xC0 SHL PUSH2 0x1B2A JUMP JUMPDEST PUSH2 0x2E6 PUSH8 0x6A590BC8840FC6B5 PUSH1 0xC0 SHL PUSH2 0x1B2A JUMP JUMPDEST PUSH2 0x2FA PUSH8 0xE0D1CAAB076CC7AB PUSH1 0xC0 SHL PUSH2 0x1B2A JUMP JUMPDEST PUSH1 0x1 DUP1 SLOAD DUP1 PUSH1 0x20 MUL PUSH1 0x20 ADD PUSH1 0x40 MLOAD SWAP1 DUP2 ADD PUSH1 0x40 MSTORE DUP1 SWAP3 SWAP2 SWAP1 DUP2 DUP2 MSTORE PUSH1 0x20 ADD PUSH1 0x0 SWAP1 JUMPDEST DUP3 DUP3 LT ISZERO PUSH2 0x400 JUMPI DUP4 DUP3 SWAP1 PUSH1 0x0 MSTORE PUSH1 0x20 PUSH1 0x0 KECCAK256 SWAP1 PUSH1 0x2 MUL ADD PUSH1 0x40 MLOAD DUP1 PUSH1 0x40 ADD PUSH1 0x40 MSTORE SWAP1 DUP2 PUSH1 0x0 DUP3 ADD DUP1 SLOAD PUSH2 0x34F SWAP1 PUSH2 0x2C81 JUMP JUMPDEST DUP1 PUSH1 0x1F ADD PUSH1 0x20 DUP1 SWAP2 DIV MUL PUSH1 0x20 ADD PUSH1 0x40 MLOAD SWAP1 DUP2 ADD PUSH1 0x40 MSTORE DUP1 SWAP3 SWAP2 SWAP1 DUP2 DUP2 MSTORE PUSH1 0x20 ADD DUP3 DUP1 SLOAD PUSH2 0x37B SWAP1 PUSH2 0x2C81 JUMP JUMPDEST DUP1 ISZERO PUSH2 0x3C8 JUMPI DUP1 PUSH1 0x1F LT PUSH2 0x39D JUMPI PUSH2 0x100 DUP1 DUP4 SLOAD DIV MUL DUP4 MSTORE SWAP2 PUSH1 0x20 ADD SWAP2 PUSH2 0x3C8 JUMP JUMPDEST DUP3 ADD SWAP2 SWAP1 PUSH1 0x0 MSTORE PUSH1 0x20 PUSH1 0x0 KECCAK256 SWAP1 JUMPDEST DUP2 SLOAD DUP2 MSTORE SWAP1 PUSH1 0x1 ADD SWAP1 PUSH1 0x20 ADD DUP1 DUP4 GT PUSH2 0x3AB JUMPI DUP3 SWAP1 SUB PUSH1 0x1F AND DUP3 ADD SWAP2 JUMPDEST POP POP POP POP POP DUP2 MSTORE PUSH1 0x20 ADD PUSH1 0x1 DUP3 ADD PUSH1 0x0 SWAP1 SLOAD SWAP1 PUSH2 0x100 EXP SWAP1 DIV PUSH2 0xFFFF AND PUSH2 0xFFFF AND PUSH2 0xFFFF AND DUP2 MSTORE POP POP DUP2 MSTORE PUSH1 0x20 ADD SWAP1 PUSH1 0x1 ADD SWAP1 PUSH2 0x31C JUMP JUMPDEST POP POP POP POP SWAP1 POP SWAP1 JUMP JUMPDEST PUSH2 0x411 PUSH2 0x249C JUMP JUMPDEST PUSH2 0x425 PUSH8 0x3242BC8E47EF74A2 PUSH1 0xC0 SHL PUSH2 0x1B2A JUMP JUMPDEST DUP2 PUSH1 0x1 DUP1 SLOAD SWAP1 POP PUSH2 0x440 PUSH8 0xC129D2F13D9076F PUSH1 0xC0 SHL PUSH2 0x1B2D JUMP JUMPDEST PUSH2 0x454 PUSH8 0x588A5DE3ABCCFAE2 PUSH1 0xC0 SHL PUSH2 0x1B2D JUMP JUMPDEST PUSH2 0x468 PUSH8 0xD2DC63E69E651C2F PUSH1 0xC0 SHL PUSH2 0x1B2D JUMP JUMPDEST PUSH2 0x47C PUSH8 0x7E7E32F2EDFAED15 PUSH1 0xC0 SHL PUSH2 0x1B2D JUMP JUMPDEST DUP1 DUP3 LT PUSH2 0x4BE JUMPI PUSH1 0x40 MLOAD PUSH32 0x8C379A000000000000000000000000000000000000000000000000000000000 DUP2 MSTORE PUSH1 0x4 ADD PUSH2 0x4B5 SWAP1 PUSH2 0x2CFE JUMP JUMPDEST PUSH1 0x40 MLOAD DUP1 SWAP2 SUB SWAP1 REVERT JUMPDEST PUSH2 0x4D2 PUSH8 0xF5BBBF16DE3C4E1 PUSH1 0xC0 SHL PUSH2 0x1B2D JUMP JUMPDEST PUSH2 0x4E6 PUSH8 0x74FA6D135AA12A0A PUSH1 0xC0 SHL PUSH2 0x1B2D JUMP JUMPDEST PUSH2 0x4FA PUSH8 0x6365072A9A7D18D6 PUSH1 0xC0 SHL PUSH2 0x1B2A JUMP JUMPDEST PUSH2 0x50E PUSH8 0x133F274DD43F81E4 PUSH1 0xC0 SHL PUSH2 0x1B2A JUMP JUMPDEST PUSH2 0x522 PUSH8 0xA90FF54CC408E1E2 PUSH1 0xC0 SHL PUSH2 0x1B2A JUMP JUMPDEST PUSH2 0x536 PUSH8 0xAFAFD8A281B7F6D3 PUSH1 0xC0 SHL PUSH2 0x1B2A JUMP JUMPDEST PUSH1 0x0 PUSH1 0x1 DUP6 DUP2 SLOAD DUP2 LT PUSH2 0x54C JUMPI PUSH2 0x54B PUSH2 0x2D1E JUMP JUMPDEST JUMPDEST SWAP1 PUSH1 0x0 MSTORE PUSH1 0x20 PUSH1 0x0 KECCAK256 SWAP1 PUSH1 0x2 MUL ADD SWAP1 POP PUSH2 0x570 PUSH8 0x4BDDBB130526268 PUSH1 0xC0 SHL PUSH2 0x1B2A JUMP JUMPDEST PUSH2 0x584 PUSH8 0xBA3638052381BA1D PUSH1 0xC0 SHL PUSH2 0x1B2A JUMP JUMPDEST DUP1 PUSH1 0x40 MLOAD DUP1 PUSH1 0x40 ADD PUSH1 0x40 MSTORE SWAP1 DUP2 PUSH1 0x0 DUP3 ADD DUP1 SLOAD PUSH2 0x5A0 SWAP1 PUSH2 0x2C81 JUMP JUMPDEST DUP1 PUSH1 0x1F ADD PUSH1 0x20 DUP1 SWAP2 DIV MUL PUSH1 0x20 ADD PUSH1 0x40 MLOAD SWAP1 DUP2 ADD PUSH1 0x40 MSTORE DUP1 SWAP3 SWAP2 SWAP1 DUP2 DUP2 MSTORE PUSH1 0x20 ADD DUP3 DUP1 SLOAD PUSH2 0x5CC SWAP1 PUSH2 0x2C81 JUMP JUMPDEST DUP1 ISZERO PUSH2 0x619 JUMPI DUP1 PUSH1 0x1F LT PUSH2 0x5EE JUMPI PUSH2 0x100 DUP1 DUP4 SLOAD DIV MUL DUP4 MSTORE SWAP2 PUSH1 0x20 ADD SWAP2 PUSH2 0x619 JUMP JUMPDEST DUP3 ADD SWAP2 SWAP1 PUSH1 0x0 MSTORE PUSH1 0x20 PUSH1 0x0 KECCAK256 SWAP1 JUMPDEST DUP2 SLOAD DUP2 MSTORE SWAP1 PUSH1 0x1 ADD SWAP1 PUSH1 0x20 ADD DUP1 DUP4 GT PUSH2 0x5FC JUMPI DUP3 SWAP1 SUB PUSH1 0x1F AND DUP3 ADD SWAP2 JUMPDEST POP POP POP POP POP DUP2 MSTORE PUSH1 0x20 ADD PUSH1 0x1 DUP3 ADD PUSH1 0x0 SWAP1 SLOAD SWAP1 PUSH2 0x100 EXP SWAP1 DIV PUSH2 0xFFFF AND PUSH2 0xFFFF AND PUSH2 0xFFFF AND DUP2 MSTORE POP POP SWAP4 POP POP POP POP SWAP2 SWAP1 POP JUMP JUMPDEST PUSH2 0x660 PUSH8 0x7E600EEF8613E782 PUSH1 0xC0 SHL PUSH2 0x1B2A JUMP JUMPDEST PUSH2 0x668 PUSH2 0x1B30 JUMP JUMPDEST PUSH2 0x67C PUSH8 0xB9E8A4B3021ABCF4 PUSH1 0xC0 SHL PUSH2 0x1B2A JUMP JUMPDEST PUSH2 0x690 PUSH8 0x89F4A138CBF7400C PUSH1 0xC0 SHL PUSH2 0x1B2A JUMP JUMPDEST DUP1 PUSH2 0x6A5 PUSH8 0xAF17FB77A15F41D4 PUSH1 0xC0 SHL PUSH2 0x1B2D JUMP JUMPDEST PUSH2 0x6B9 PUSH8 0xEDAE4CE289DCBDE8 PUSH1 0xC0 SHL PUSH2 0x1B2D JUMP JUMPDEST PUSH2 0x6CD PUSH8 0x3FE946463747DD35 PUSH1 0xC0 SHL PUSH2 0x1B2D JUMP JUMPDEST PUSH2 0x6E1 PUSH8 0xFBB6BB1EA9053DDB PUSH1 0xC0 SHL PUSH2 0x1B2D JUMP JUMPDEST PUSH1 0x0 DUP2 PUSH2 0xFFFF AND GT PUSH2 0x728 JUMPI PUSH1 0x40 MLOAD PUSH32 0x8C379A000000000000000000000000000000000000000000000000000000000 DUP2 MSTORE PUSH1 0x4 ADD PUSH2 0x71F SWAP1 PUSH2 0x2D99 JUMP JUMPDEST PUSH1 0x40 MLOAD DUP1 SWAP2 SUB SWAP1 REVERT JUMPDEST PUSH2 0x73C PUSH8 0xB42F36A6D47ED785 PUSH1 0xC0 SHL PUSH2 0x1B2D JUMP JUMPDEST PUSH2 0x750 PUSH8 0x86C8A3260BC67D58 PUSH1 0xC0 SHL PUSH2 0x1B2D JUMP JUMPDEST PUSH2 0x764 PUSH8 0x16AD24B57D274C07 PUSH1 0xC0 SHL PUSH2 0x1B2A JUMP JUMPDEST PUSH2 0x778 PUSH8 0xD4CBBE2B35607CA9 PUSH1 0xC0 SHL PUSH2 0x1B2A JUMP JUMPDEST DUP3 PUSH2 0x78D PUSH8 0x2C8F3FAFBD7F37DF PUSH1 0xC0 SHL PUSH2 0x1BB7 JUMP JUMPDEST PUSH2 0x7A1 PUSH8 0x4D4BC13593D1875D PUSH1 0xC0 SHL PUSH2 0x1BB7 JUMP JUMPDEST PUSH2 0x7B5 PUSH8 0xFF728968FBA1492B PUSH1 0xC0 SHL PUSH2 0x1BB7 JUMP JUMPDEST PUSH2 0x7C9 PUSH8 0x3FE030F35B97B41B PUSH1 0xC0 SHL PUSH2 0x1BB7 JUMP JUMPDEST PUSH1 0x0 DUP2 MLOAD SUB PUSH2 0x80D JUMPI PUSH1 0x40 MLOAD PUSH32 0x8C379A000000000000000000000000000000000000000000000000000000000 DUP2 MSTORE PUSH1 0x4 ADD PUSH2 0x804 SWAP1 PUSH2 0x2E05 JUMP JUMPDEST PUSH1 0x40 MLOAD DUP1 SWAP2 SUB SWAP1 REVERT JUMPDEST PUSH2 0x821 PUSH8 0x18B841561BADCC4D PUSH1 0xC0 SHL PUSH2 0x1BB7 JUMP JUMPDEST PUSH2 0x835 PUSH8 0x58C19FDDA98653B6 PUSH1 0xC0 SHL PUSH2 0x1BB7 JUMP JUMPDEST PUSH2 0x849 PUSH8 0x30EAD4276FF86D5 PUSH1 0xC0 SHL PUSH2 0x1B2A JUMP JUMPDEST PUSH2 0x85D PUSH8 0x7282521A16BD65B9 PUSH1 0xC0 SHL PUSH2 0x1B2A JUMP JUMPDEST PUSH2 0x871 PUSH8 0xD783EE37B8D045EA PUSH1 0xC0 SHL PUSH2 0x1B2A JUMP JUMPDEST PUSH2 0x885 PUSH8 0x8DF50B868DD68CF8 PUSH1 0xC0 SHL PUSH2 0x1B2A JUMP JUMPDEST PUSH1 0x0 DUP1 PUSH1 0x3 DUP7 PUSH1 0x40 MLOAD PUSH2 0x898 SWAP2 SWAP1 PUSH2 0x2E61 JUMP JUMPDEST SWAP1 DUP2 MSTORE PUSH1 0x20 ADD PUSH1 0x40 MLOAD DUP1 SWAP2 SUB SWAP1 KECCAK256 PUSH1 0x0 ADD DUP1 SLOAD PUSH2 0x8B4 SWAP1 PUSH2 0x2C81 JUMP JUMPDEST SWAP1 POP GT SWAP1 POP PUSH2 0x8CD PUSH8 0x3678BB2448195F96 PUSH1 0xC0 SHL PUSH2 0x1B2A JUMP JUMPDEST PUSH2 0x8E1 PUSH8 0xB3039EA9D0BCDB45 PUSH1 0xC0 SHL PUSH2 0x1B2A JUMP JUMPDEST PUSH1 0x0 PUSH1 0x2 PUSH1 0x0 PUSH2 0x8F0 DUP9 PUSH2 0x1BBA JUMP JUMPDEST DUP2 MSTORE PUSH1 0x20 ADD SWAP1 DUP2 MSTORE PUSH1 0x20 ADD PUSH1 0x0 KECCAK256 SLOAD SWAP1 POP PUSH2 0x915 PUSH8 0xA84C89C6F8B5C041 PUSH1 0xC0 SHL PUSH2 0x1B2A JUMP JUMPDEST PUSH2 0x929 PUSH8 0x12886F9E7A733135 PUSH1 0xC0 SHL PUSH2 0x1B2A JUMP JUMPDEST DUP2 ISZERO PUSH2 0xA41 JUMPI PUSH2 0x943 PUSH8 0x35FB3C6B0691FB1 PUSH1 0xC0 SHL PUSH2 0x1B2A JUMP JUMPDEST PUSH2 0x957 PUSH8 0xFB3B0B1C84E81FBF PUSH1 0xC0 SHL PUSH2 0x1B2A JUMP JUMPDEST PUSH2 0x96B PUSH8 0xF4E2F0C7E88699E9 PUSH1 0xC0 SHL PUSH2 0x1B2A JUMP JUMPDEST PUSH1 0x0 PUSH1 0x1 DUP3 DUP2 SLOAD DUP2 LT PUSH2 0x981 JUMPI PUSH2 0x980 PUSH2 0x2D1E JUMP JUMPDEST JUMPDEST SWAP1 PUSH1 0x0 MSTORE PUSH1 0x20 PUSH1 0x0 KECCAK256 SWAP1 PUSH1 0x2 MUL ADD SWAP1 POP PUSH2 0x9A5 PUSH8 0xAE3751D68F51BF3C PUSH1 0xC0 SHL PUSH2 0x1B2A JUMP JUMPDEST PUSH2 0x9B9 PUSH8 0xDFE869915B26BA8E PUSH1 0xC0 SHL PUSH2 0x1B2A JUMP JUMPDEST PUSH2 0x9C3 DUP3 DUP8 PUSH2 0x1C26 JUMP JUMPDEST PUSH2 0x9D7 PUSH8 0x524E8C6A52D044B3 PUSH1 0xC0 SHL PUSH2 0x1B2A JUMP JUMPDEST PUSH2 0x9EB PUSH8 0x6C3546BF6763D534 PUSH1 0xC0 SHL PUSH2 0x1B2A JUMP JUMPDEST PUSH32 0xF9B1D9170FBE32752353E00D62E5276B143166C75AA974030DDDFAC2895601FE DUP3 DUP3 PUSH1 0x0 ADD DUP4 PUSH1 0x1 ADD PUSH1 0x0 SWAP1 SLOAD SWAP1 PUSH2 0x100 EXP SWAP1 DIV PUSH2 0xFFFF AND PUSH1 0x40 MLOAD PUSH2 0xA33 SWAP4 SWAP3 SWAP2 SWAP1 PUSH2 0x2F5B JUMP JUMPDEST PUSH1 0x40 MLOAD DUP1 SWAP2 SUB SWAP1 LOG1 POP PUSH2 0xB0D JUMP JUMPDEST PUSH2 0xA55 PUSH8 0x5AF95E7740E34F94 PUSH1 0xC0 SHL PUSH2 0x1B2A JUMP JUMPDEST PUSH2 0xA69 PUSH8 0xECBC8F9817A7CAEF PUSH1 0xC0 SHL PUSH2 0x1B2A JUMP JUMPDEST PUSH1 0x1 DUP1 SLOAD SWAP1 POP SWAP1 POP PUSH2 0xA85 PUSH8 0x69B67FB43A68BEC6 PUSH1 0xC0 SHL PUSH2 0x1B2A JUMP JUMPDEST PUSH2 0xA99 PUSH8 0xB70F899A97563B17 PUSH1 0xC0 SHL PUSH2 0x1B2A JUMP JUMPDEST PUSH2 0xAA9 PUSH1 0x1 DUP1 SLOAD SWAP1 POP DUP8 DUP8 PUSH2 0x1C92 JUMP JUMPDEST PUSH2 0xABD PUSH8 0x7CA73306FD256534 PUSH1 0xC0 SHL PUSH2 0x1B2A JUMP JUMPDEST PUSH2 0xAD1 PUSH8 0xCC45E85999D81537 PUSH1 0xC0 SHL PUSH2 0x1B2A JUMP JUMPDEST PUSH32 0xCCA07C742C5274E8B72111BA69566AA4442450BFC50BD897EA38D0170D1ACCFC DUP2 DUP8 DUP8 PUSH1 0x40 MLOAD PUSH2 0xB04 SWAP4 SWAP3 SWAP2 SWAP1 PUSH2 0x2F99 JUMP JUMPDEST PUSH1 0x40 MLOAD DUP1 SWAP2 SUB SWAP1 LOG1 JUMPDEST POP POP POP POP POP POP JUMP JUMPDEST PUSH1 0x0 PUSH2 0xB2B PUSH8 0xBB6ECF44E791CE6C PUSH1 0xC0 SHL PUSH2 0x1B2A JUMP JUMPDEST PUSH2 0xB3F PUSH8 0x2EBD1F68C83752A6 PUSH1 0xC0 SHL PUSH2 0x1B2A JUMP JUMPDEST PUSH2 0xB53 PUSH8 0x69076BC0B210C38D PUSH1 0xC0 SHL PUSH2 0x1B2A JUMP JUMPDEST PUSH1 0x0 PUSH1 0x14 SWAP1 SLOAD SWAP1 PUSH2 0x100 EXP SWAP1 DIV PUSH1 0xFF AND SWAP1 POP SWAP1 JUMP JUMPDEST PUSH2 0xB70 PUSH2 0x1B30 JUMP JUMPDEST PUSH2 0xB7A PUSH1 0x0 PUSH2 0x1E51 JUMP JUMPDEST JUMP JUMPDEST PUSH2 0xB90 PUSH8 0x3BC1F72E19744263 PUSH1 0xC0 SHL PUSH2 0x1B2A JUMP JUMPDEST DUP1 PUSH1 0x1 DUP1 SLOAD SWAP1 POP PUSH2 0xBAB PUSH8 0xC129D2F13D9076F PUSH1 0xC0 SHL PUSH2 0x1B2D JUMP JUMPDEST PUSH2 0xBBF PUSH8 0x588A5DE3ABCCFAE2 PUSH1 0xC0 SHL PUSH2 0x1B2D JUMP JUMPDEST PUSH2 0xBD3 PUSH8 0xD2DC63E69E651C2F PUSH1 0xC0 SHL PUSH2 0x1B2D JUMP JUMPDEST PUSH2 0xBE7 PUSH8 0x7E7E32F2EDFAED15 PUSH1 0xC0 SHL PUSH2 0x1B2D JUMP JUMPDEST DUP1 DUP3 LT PUSH2 0xC29 JUMPI PUSH1 0x40 MLOAD PUSH32 0x8C379A000000000000000000000000000000000000000000000000000000000 DUP2 MSTORE PUSH1 0x4 ADD PUSH2 0xC20 SWAP1 PUSH2 0x2CFE JUMP JUMPDEST PUSH1 0x40 MLOAD DUP1 SWAP2 SUB SWAP1 REVERT JUMPDEST PUSH2 0xC3D PUSH8 0xF5BBBF16DE3C4E1 PUSH1 0xC0 SHL PUSH2 0x1B2D JUMP JUMPDEST PUSH2 0xC51 PUSH8 0x74FA6D135AA12A0A PUSH1 0xC0 SHL PUSH2 0x1B2D JUMP JUMPDEST PUSH2 0xC65 PUSH8 0x3446A75AEF46EF42 PUSH1 0xC0 SHL PUSH2 0x1B2A JUMP JUMPDEST PUSH2 0xC79 PUSH8 0xE90985C3FA043240 PUSH1 0xC0 SHL PUSH2 0x1B2A JUMP JUMPDEST PUSH2 0xC8D PUSH8 0xC7942E749D68A548 PUSH1 0xC0 SHL PUSH2 0x1B2A JUMP JUMPDEST PUSH2 0xCA1 PUSH8 0x461E1B569EBCC5D8 PUSH1 0xC0 SHL PUSH2 0x1B2A JUMP JUMPDEST PUSH1 0x0 CALLER SWAP1 POP PUSH2 0xCBA PUSH8 0x155D9F8F0CA82BEE PUSH1 0xC0 SHL PUSH2 0x1B2A JUMP JUMPDEST PUSH2 0xCCE PUSH8 0x729454DEC3E54A02 PUSH1 0xC0 SHL PUSH2 0x1B2A JUMP JUMPDEST PUSH2 0xCD8 DUP5 DUP3 PUSH2 0x1F15 JUMP JUMPDEST PUSH2 0xCEC PUSH8 0xB2C3DA4BC4092D17 PUSH1 0xC0 SHL PUSH2 0x1B2A JUMP JUMPDEST PUSH2 0xD00 PUSH8 0xD6987E9BDDFC0B10 PUSH1 0xC0 SHL PUSH2 0x1B2A JUMP JUMPDEST PUSH1 0x0 PUSH1 0x1 DUP6 DUP2 SLOAD DUP2 LT PUSH2 0xD16 JUMPI PUSH2 0xD15 PUSH2 0x2D1E JUMP JUMPDEST JUMPDEST SWAP1 PUSH1 0x0 MSTORE PUSH1 0x20 PUSH1 0x0 KECCAK256 SWAP1 PUSH1 0x2 MUL ADD SWAP1 POP PUSH2 0xD3A PUSH8 0x409905F505CCA4CE PUSH1 0xC0 SHL PUSH2 0x1B2A JUMP JUMPDEST PUSH2 0xD4E PUSH8 0xD271E3CA19390C47 PUSH1 0xC0 SHL PUSH2 0x1B2A JUMP JUMPDEST PUSH32 0x21B68A0C4AC2BEB4BEDE4A50169CDEEEAFF19097E416463DA0524864702FFE44 DUP6 PUSH1 0x40 MLOAD PUSH2 0xD7D SWAP2 SWAP1 PUSH2 0x2FD7 JUMP JUMPDEST PUSH1 0x40 MLOAD DUP1 SWAP2 SUB SWAP1 LOG1 POP POP POP POP POP JUMP JUMPDEST PUSH1 0x1 DUP2 DUP2 SLOAD DUP2 LT PUSH2 0xD9C JUMPI PUSH1 0x0 DUP1 REVERT JUMPDEST SWAP1 PUSH1 0x0 MSTORE PUSH1 0x20 PUSH1 0x0 KECCAK256 SWAP1 PUSH1 0x2 MUL ADD PUSH1 0x0 SWAP2 POP SWAP1 POP DUP1 PUSH1 0x0 ADD DUP1 SLOAD PUSH2 0xDBF SWAP1 PUSH2 0x2C81 JUMP JUMPDEST DUP1 PUSH1 0x1F ADD PUSH1 0x20 DUP1 SWAP2 DIV MUL PUSH1 0x20 ADD PUSH1 0x40 MLOAD SWAP1 DUP2 ADD PUSH1 0x40 MSTORE DUP1 SWAP3 SWAP2 SWAP1 DUP2 DUP2 MSTORE PUSH1 0x20 ADD DUP3 DUP1 SLOAD PUSH2 0xDEB SWAP1 PUSH2 0x2C81 JUMP JUMPDEST DUP1 ISZERO PUSH2 0xE38 JUMPI DUP1 PUSH1 0x1F LT PUSH2 0xE0D JUMPI PUSH2 0x100 DUP1 DUP4 SLOAD DIV MUL DUP4 MSTORE SWAP2 PUSH1 0x20 ADD SWAP2 PUSH2 0xE38 JUMP JUMPDEST DUP3 ADD SWAP2 SWAP1 PUSH1 0x0 MSTORE PUSH1 0x20 PUSH1 0x0 KECCAK256 SWAP1 JUMPDEST DUP2 SLOAD DUP2 MSTORE SWAP1 PUSH1 0x1 ADD SWAP1 PUSH1 0x20 ADD DUP1 DUP4 GT PUSH2 0xE1B JUMPI DUP3 SWAP1 SUB PUSH1 0x1F AND DUP3 ADD SWAP2 JUMPDEST POP POP POP POP POP SWAP1 DUP1 PUSH1 0x1 ADD PUSH1 0x0 SWAP1 SLOAD SWAP1 PUSH2 0x100 EXP SWAP1 DIV PUSH2 0xFFFF AND SWAP1 POP DUP3 JUMP JUMPDEST PUSH2 0xE6A PUSH8 0xCF8835C1A6BA33C7 PUSH1 0xC0 SHL PUSH2 0x1B2A JUMP JUMPDEST PUSH1 0x1 DUP2 DUP2 SLOAD DUP2 LT PUSH2 0xE7E JUMPI PUSH2 0xE7D PUSH2 0x2D1E JUMP JUMPDEST JUMPDEST SWAP1 PUSH1 0x0 MSTORE PUSH1 0x20 PUSH1 0x0 KECCAK256 SWAP1 PUSH1 0x2 MUL ADD PUSH1 0x1 ADD PUSH1 0x0 SWAP1 SLOAD SWAP1 PUSH2 0x100 EXP SWAP1 DIV PUSH2 0xFFFF AND PUSH2 0xEB2 PUSH8 0xAF17FB77A15F41D4 PUSH1 0xC0 SHL PUSH2 0x1B2D JUMP JUMPDEST PUSH2 0xEC6 PUSH8 0xEDAE4CE289DCBDE8 PUSH1 0xC0 SHL PUSH2 0x1B2D JUMP JUMPDEST PUSH2 0xEDA PUSH8 0x3FE946463747DD35 PUSH1 0xC0 SHL PUSH2 0x1B2D JUMP JUMPDEST PUSH2 0xEEE PUSH8 0xFBB6BB1EA9053DDB PUSH1 0xC0 SHL PUSH2 0x1B2D JUMP JUMPDEST PUSH1 0x0 DUP2 PUSH2 0xFFFF AND GT PUSH2 0xF35 JUMPI PUSH1 0x40 MLOAD PUSH32 0x8C379A000000000000000000000000000000000000000000000000000000000 DUP2 MSTORE PUSH1 0x4 ADD PUSH2 0xF2C SWAP1 PUSH2 0x2D99 JUMP JUMPDEST PUSH1 0x40 MLOAD DUP1 SWAP2 SUB SWAP1 REVERT JUMPDEST PUSH2 0xF49 PUSH8 0xB42F36A6D47ED785 PUSH1 0xC0 SHL PUSH2 0x1B2D JUMP JUMPDEST PUSH2 0xF5D PUSH8 0x86C8A3260BC67D58 PUSH1 0xC0 SHL PUSH2 0x1B2D JUMP JUMPDEST PUSH2 0xF71 PUSH8 0xED680C5D989CBCEA PUSH1 0xC0 SHL PUSH2 0x1B2A JUMP JUMPDEST PUSH2 0xF85 PUSH8 0x99B588C8F986B7CF PUSH1 0xC0 SHL PUSH2 0x1B2A JUMP JUMPDEST DUP2 PUSH1 0x1 DUP1 SLOAD SWAP1 POP PUSH2 0xFA0 PUSH8 0xC129D2F13D9076F PUSH1 0xC0 SHL PUSH2 0x1B2D JUMP JUMPDEST PUSH2 0xFB4 PUSH8 0x588A5DE3ABCCFAE2 PUSH1 0xC0 SHL PUSH2 0x1B2D JUMP JUMPDEST PUSH2 0xFC8 PUSH8 0xD2DC63E69E651C2F PUSH1 0xC0 SHL PUSH2 0x1B2D JUMP JUMPDEST PUSH2 0xFDC PUSH8 0x7E7E32F2EDFAED15 PUSH1 0xC0 SHL PUSH2 0x1B2D JUMP JUMPDEST DUP1 DUP3 LT PUSH2 0x101E JUMPI PUSH1 0x40 MLOAD PUSH32 0x8C379A000000000000000000000000000000000000000000000000000000000 DUP2 MSTORE PUSH1 0x4 ADD PUSH2 0x1015 SWAP1 PUSH2 0x2CFE JUMP JUMPDEST PUSH1 0x40 MLOAD DUP1 SWAP2 SUB SWAP1 REVERT JUMPDEST PUSH2 0x1032 PUSH8 0xF5BBBF16DE3C4E1 PUSH1 0xC0 SHL PUSH2 0x1B2D JUMP JUMPDEST PUSH2 0x1046 PUSH8 0x74FA6D135AA12A0A PUSH1 0xC0 SHL PUSH2 0x1B2D JUMP JUMPDEST PUSH2 0x105A PUSH8 0xEE51EC5BA2FEB5FC PUSH1 0xC0 SHL PUSH2 0x1B2A JUMP JUMPDEST PUSH2 0x106E PUSH8 0x6D499AF3C259AF04 PUSH1 0xC0 SHL PUSH2 0x1B2A JUMP JUMPDEST PUSH2 0x1082 PUSH8 0x9BCE114AC887F242 PUSH1 0xC0 SHL PUSH2 0x1B2A JUMP JUMPDEST PUSH2 0x1096 PUSH8 0x9C341989D8021186 PUSH1 0xC0 SHL PUSH2 0x1B2A JUMP JUMPDEST PUSH1 0x0 CALLER SWAP1 POP PUSH2 0x10AF PUSH8 0x33965F2B140C0E45 PUSH1 0xC0 SHL PUSH2 0x1B2A JUMP JUMPDEST PUSH2 0x10C3 PUSH8 0xB7515578175B9B79 PUSH1 0xC0 SHL PUSH2 0x1B2A JUMP JUMPDEST PUSH1 0x0 PUSH1 0x1 DUP7 DUP2 SLOAD DUP2 LT PUSH2 0x10D9 JUMPI PUSH2 0x10D8 PUSH2 0x2D1E JUMP JUMPDEST JUMPDEST SWAP1 PUSH1 0x0 MSTORE PUSH1 0x20 PUSH1 0x0 KECCAK256 SWAP1 PUSH1 0x2 MUL ADD SWAP1 POP PUSH2 0x10FD PUSH8 0x61A2D5830189AC28 PUSH1 0xC0 SHL PUSH2 0x1B2A JUMP JUMPDEST PUSH2 0x1111 PUSH8 0x9BBDF999CC2AC1EB PUSH1 0xC0 SHL PUSH2 0x1B2A JUMP JUMPDEST PUSH1 0x0 PUSH2 0x111D DUP8 DUP5 PUSH2 0x21BE JUMP JUMPDEST SWAP1 POP PUSH2 0x1133 PUSH8 0x5CE55882524D5E13 PUSH1 0xC0 SHL PUSH2 0x1B2A JUMP JUMPDEST PUSH2 0x1147 PUSH8 0xE70863ADF5849325 PUSH1 0xC0 SHL PUSH2 0x1B2A JUMP JUMPDEST PUSH2 0x115B PUSH8 0x5AB4820A180877AF PUSH1 0xC0 SHL PUSH2 0x1B2A JUMP JUMPDEST DUP1 ISZERO PUSH2 0x119C JUMPI PUSH1 0x40 MLOAD PUSH32 0x8C379A000000000000000000000000000000000000000000000000000000000 DUP2 MSTORE PUSH1 0x4 ADD PUSH2 0x1193 SWAP1 PUSH2 0x3064 JUMP JUMPDEST PUSH1 0x40 MLOAD DUP1 SWAP2 SUB SWAP1 REVERT JUMPDEST PUSH2 0x11B0 PUSH8 0x6690538D6A6A6069 PUSH1 0xC0 SHL PUSH2 0x1B2A JUMP JUMPDEST PUSH2 0x11C4 PUSH8 0xE7337BB86F981699 PUSH1 0xC0 SHL PUSH2 0x1B2A JUMP JUMPDEST PUSH2 0x11D8 PUSH8 0xC2A2E09C890A5423 PUSH1 0xC0 SHL PUSH2 0x1B2A JUMP JUMPDEST PUSH2 0x11E2 DUP8 DUP5 PUSH2 0x2258 JUMP JUMPDEST PUSH2 0x11F6 PUSH8 0xAE13DCD08A501DD9 PUSH1 0xC0 SHL PUSH2 0x1B2A JUMP JUMPDEST DUP2 PUSH1 0x1 ADD PUSH1 0x0 DUP2 DUP2 SWAP1 SLOAD SWAP1 PUSH2 0x100 EXP SWAP1 DIV PUSH2 0xFFFF AND DUP1 SWAP3 SWAP2 SWAP1 PUSH2 0x1218 SWAP1 PUSH2 0x30B3 JUMP JUMPDEST SWAP2 SWAP1 PUSH2 0x100 EXP DUP2 SLOAD DUP2 PUSH2 0xFFFF MUL NOT AND SWAP1 DUP4 PUSH2 0xFFFF AND MUL OR SWAP1 SSTORE POP POP PUSH2 0x1247 PUSH8 0x2C9090CE484070AE PUSH1 0xC0 SHL PUSH2 0x1B2A JUMP JUMPDEST PUSH2 0x125B PUSH8 0xCDE9DC3FC237D52F PUSH1 0xC0 SHL PUSH2 0x1B2A JUMP JUMPDEST PUSH32 0x60751E87AB3312710EC7D4DA85EA804D0813CA2CB843A75CC23C672E1BD3954A DUP8 DUP5 PUSH1 0x40 MLOAD PUSH2 0x128C SWAP3 SWAP2 SWAP1 PUSH2 0x30DC JUMP JUMPDEST PUSH1 0x40 MLOAD DUP1 SWAP2 SUB SWAP1 LOG1 POP POP POP POP POP POP POP JUMP JUMPDEST PUSH1 0x0 DUP1 PUSH1 0x0 SWAP1 SLOAD SWAP1 PUSH2 0x100 EXP SWAP1 DIV PUSH20 0xFFFFFFFFFFFFFFFFFFFFFFFFFFFFFFFFFFFFFFFF AND SWAP1 POP SWAP1 JUMP JUMPDEST PUSH2 0x12DA PUSH8 0x70639230EEB78396 PUSH1 0xC0 SHL PUSH2 0x1B2A JUMP JUMPDEST PUSH2 0x12E2 PUSH2 0x1B30 JUMP JUMPDEST PUSH2 0x12F6 PUSH8 0xEC2AB5BC374672F7 PUSH1 0xC0 SHL PUSH2 0x1B2A JUMP JUMPDEST PUSH2 0x130A PUSH8 0xFA0F978F4A9E1F5F PUSH1 0xC0 SHL PUSH2 0x1B2A JUMP JUMPDEST DUP2 PUSH1 0x1 DUP1 SLOAD SWAP1 POP PUSH2 0x1325 PUSH8 0xC129D2F13D9076F PUSH1 0xC0 SHL PUSH2 0x1B2D JUMP JUMPDEST PUSH2 0x1339 PUSH8 0x588A5DE3ABCCFAE2 PUSH1 0xC0 SHL PUSH2 0x1B2D JUMP JUMPDEST PUSH2 0x134D PUSH8 0xD2DC63E69E651C2F PUSH1 0xC0 SHL PUSH2 0x1B2D JUMP JUMPDEST PUSH2 0x1361 PUSH8 0x7E7E32F2EDFAED15 PUSH1 0xC0 SHL PUSH2 0x1B2D JUMP JUMPDEST DUP1 DUP3 LT PUSH2 0x13A3 JUMPI PUSH1 0x40 MLOAD PUSH32 0x8C379A000000000000000000000000000000000000000000000000000000000 DUP2 MSTORE PUSH1 0x4 ADD PUSH2 0x139A SWAP1 PUSH2 0x2CFE JUMP JUMPDEST PUSH1 0x40 MLOAD DUP1 SWAP2 SUB SWAP1 REVERT JUMPDEST PUSH2 0x13B7 PUSH8 0xF5BBBF16DE3C4E1 PUSH1 0xC0 SHL PUSH2 0x1B2D JUMP JUMPDEST PUSH2 0x13CB PUSH8 0x74FA6D135AA12A0A PUSH1 0xC0 SHL PUSH2 0x1B2D JUMP JUMPDEST PUSH2 0x13DF PUSH8 0x60E19E3E325E256C PUSH1 0xC0 SHL PUSH2 0x1B2A JUMP JUMPDEST PUSH2 0x13F3 PUSH8 0x13E7A8805BEB28DD PUSH1 0xC0 SHL PUSH2 0x1B2A JUMP JUMPDEST PUSH2 0x1407 PUSH8 0xC39C9D33A2AAD054 PUSH1 0xC0 SHL PUSH2 0x1B2A JUMP JUMPDEST PUSH2 0x141B PUSH8 0xE3EE00B8764718D0 PUSH1 0xC0 SHL PUSH2 0x1B2A JUMP JUMPDEST PUSH2 0x1425 DUP5 DUP5 PUSH2 0x1C26 JUMP JUMPDEST PUSH2 0x1439 PUSH8 0xF7A1F83CCE8710C7 PUSH1 0xC0 SHL PUSH2 0x1B2A JUMP JUMPDEST PUSH2 0x144D PUSH8 0xCB7EDDB32C1B8E59 PUSH1 0xC0 SHL PUSH2 0x1B2A JUMP JUMPDEST PUSH1 0x0 PUSH1 0x1 DUP6 DUP2 SLOAD DUP2 LT PUSH2 0x1463 JUMPI PUSH2 0x1462 PUSH2 0x2D1E JUMP JUMPDEST JUMPDEST SWAP1 PUSH1 0x0 MSTORE PUSH1 0x20 PUSH1 0x0 KECCAK256 SWAP1 PUSH1 0x2 MUL ADD SWAP1 POP PUSH2 0x1487 PUSH8 0x97662DC8B8C00840 PUSH1 0xC0 SHL PUSH2 0x1B2A JUMP JUMPDEST PUSH2 0x149B PUSH8 0x801C237755CA4681 PUSH1 0xC0 SHL PUSH2 0x1B2A JUMP JUMPDEST PUSH32 0xF9B1D9170FBE32752353E00D62E5276B143166C75AA974030DDDFAC2895601FE DUP6 DUP3 PUSH1 0x0 ADD DUP4 PUSH1 0x1 ADD PUSH1 0x0 SWAP1 SLOAD SWAP1 PUSH2 0x100 EXP SWAP1 DIV PUSH2 0xFFFF AND PUSH1 0x40 MLOAD PUSH2 0x14E3 SWAP4 SWAP3 SWAP2 SWAP1 PUSH2 0x2F5B JUMP JUMPDEST PUSH1 0x40 MLOAD DUP1 SWAP2 SUB SWAP1 LOG1 POP POP POP POP POP JUMP JUMPDEST PUSH2 0x14FA PUSH2 0x249C JUMP JUMPDEST PUSH2 0x150E PUSH8 0x7B37C3210993EBFF PUSH1 0xC0 SHL PUSH2 0x1B2A JUMP JUMPDEST DUP2 PUSH2 0x1523 PUSH8 0x2C8F3FAFBD7F37DF PUSH1 0xC0 SHL PUSH2 0x1BB7 JUMP JUMPDEST PUSH2 0x1537 PUSH8 0x4D4BC13593D1875D PUSH1 0xC0 SHL PUSH2 0x1BB7 JUMP JUMPDEST PUSH2 0x154B PUSH8 0xFF728968FBA1492B PUSH1 0xC0 SHL PUSH2 0x1BB7 JUMP JUMPDEST PUSH2 0x155F PUSH8 0x3FE030F35B97B41B PUSH1 0xC0 SHL PUSH2 0x1BB7 JUMP JUMPDEST PUSH1 0x0 DUP2 MLOAD SUB PUSH2 0x15A3 JUMPI PUSH1 0x40 MLOAD PUSH32 0x8C379A000000000000000000000000000000000000000000000000000000000 DUP2 MSTORE PUSH1 0x4 ADD PUSH2 0x159A SWAP1 PUSH2 0x2E05 JUMP JUMPDEST PUSH1 0x40 MLOAD DUP1 SWAP2 SUB SWAP1 REVERT JUMPDEST PUSH2 0x15B7 PUSH8 0x18B841561BADCC4D PUSH1 0xC0 SHL PUSH2 0x1BB7 JUMP JUMPDEST PUSH2 0x15CB PUSH8 0x58C19FDDA98653B6 PUSH1 0xC0 SHL PUSH2 0x1BB7 JUMP JUMPDEST PUSH2 0x15DF PUSH8 0xCAEAB94D5B50650A PUSH1 0xC0 SHL PUSH2 0x1B2A JUMP JUMPDEST PUSH2 0x15F3 PUSH8 0xB608677990C585E5 PUSH1 0xC0 SHL PUSH2 0x1B2A JUMP JUMPDEST PUSH2 0x1607 PUSH8 0xC4FBDA611827702A PUSH1 0xC0 SHL PUSH2 0x1B2A JUMP JUMPDEST PUSH2 0x161B PUSH8 0x600EEC752330F8B0 PUSH1 0xC0 SHL PUSH2 0x1B2A JUMP JUMPDEST PUSH1 0x0 DUP1 PUSH1 0x3 DUP6 PUSH1 0x40 MLOAD PUSH2 0x162E SWAP2 SWAP1 PUSH2 0x2E61 JUMP JUMPDEST SWAP1 DUP2 MSTORE PUSH1 0x20 ADD PUSH1 0x40 MLOAD DUP1 SWAP2 SUB SWAP1 KECCAK256 PUSH1 0x0 ADD DUP1 SLOAD PUSH2 0x164A SWAP1 PUSH2 0x2C81 JUMP JUMPDEST SWAP1 POP GT SWAP1 POP PUSH2 0x1663 PUSH8 0xC34925A565E1FD2A PUSH1 0xC0 SHL PUSH2 0x1B2A JUMP JUMPDEST PUSH2 0x1677 PUSH8 0xBDB8AFD713E55EF0 PUSH1 0xC0 SHL PUSH2 0x1B2A JUMP JUMPDEST PUSH2 0x168B PUSH8 0x124EC6E5104CD12E PUSH1 0xC0 SHL PUSH2 0x1B2A JUMP JUMPDEST DUP1 PUSH2 0x16CB JUMPI PUSH1 0x40 MLOAD PUSH32 0x8C379A000000000000000000000000000000000000000000000000000000000 DUP2 MSTORE PUSH1 0x4 ADD PUSH2 0x16C2 SWAP1 PUSH2 0x2CFE JUMP JUMPDEST PUSH1 0x40 MLOAD DUP1 SWAP2 SUB SWAP1 REVERT JUMPDEST PUSH2 0x16DF PUSH8 0xFA97148B8A14AA65 PUSH1 0xC0 SHL PUSH2 0x1B2A JUMP JUMPDEST PUSH2 0x16F3 PUSH8 0xCB0AF0D0BCEBC532 PUSH1 0xC0 SHL PUSH2 0x1B2A JUMP JUMPDEST PUSH2 0x1707 PUSH8 0x573CEB823E2B7135 PUSH1 0xC0 SHL PUSH2 0x1B2A JUMP JUMPDEST PUSH1 0x0 PUSH1 0x2 PUSH1 0x0 PUSH2 0x1716 DUP8 PUSH2 0x1BBA JUMP JUMPDEST DUP2 MSTORE PUSH1 0x20 ADD SWAP1 DUP2 MSTORE PUSH1 0x20 ADD PUSH1 0x0 KECCAK256 SLOAD SWAP1 POP PUSH2 0x173B PUSH8 0x474D2489639307C1 PUSH1 0xC0 SHL PUSH2 0x1B2A JUMP JUMPDEST PUSH2 0x174F PUSH8 0xB174BB47F818F9D3 PUSH1 0xC0 SHL PUSH2 0x1B2A JUMP JUMPDEST PUSH1 0x0 PUSH1 0x1 DUP3 DUP2 SLOAD DUP2 LT PUSH2 0x1765 JUMPI PUSH2 0x1764 PUSH2 0x2D1E JUMP JUMPDEST JUMPDEST SWAP1 PUSH1 0x0 MSTORE PUSH1 0x20 PUSH1 0x0 KECCAK256 SWAP1 PUSH1 0x2 MUL ADD SWAP1 POP PUSH2 0x1789 PUSH8 0xC0883C4418984478 PUSH1 0xC0 SHL PUSH2 0x1B2A JUMP JUMPDEST PUSH2 0x179D PUSH8 0xE48C71F57D0054D3 PUSH1 0xC0 SHL PUSH2 0x1B2A JUMP JUMPDEST DUP1 PUSH1 0x40 MLOAD DUP1 PUSH1 0x40 ADD PUSH1 0x40 MSTORE SWAP1 DUP2 PUSH1 0x0 DUP3 ADD DUP1 SLOAD PUSH2 0x17B9 SWAP1 PUSH2 0x2C81 JUMP JUMPDEST DUP1 PUSH1 0x1F ADD PUSH1 0x20 DUP1 SWAP2 DIV MUL PUSH1 0x20 ADD PUSH1 0x40 MLOAD SWAP1 DUP2 ADD PUSH1 0x40 MSTORE DUP1 SWAP3 SWAP2 SWAP1 DUP2 DUP2 MSTORE PUSH1 0x20 ADD DUP3 DUP1 SLOAD PUSH2 0x17E5 SWAP1 PUSH2 0x2C81 JUMP JUMPDEST DUP1 ISZERO PUSH2 0x1832 JUMPI DUP1 PUSH1 0x1F LT PUSH2 0x1807 JUMPI PUSH2 0x100 DUP1 DUP4 SLOAD DIV MUL DUP4 MSTORE SWAP2 PUSH1 0x20 ADD SWAP2 PUSH2 0x1832 JUMP JUMPDEST DUP3 ADD SWAP2 SWAP1 PUSH1 0x0 MSTORE PUSH1 0x20 PUSH1 0x0 KECCAK256 SWAP1 JUMPDEST DUP2 SLOAD DUP2 MSTORE SWAP1 PUSH1 0x1 ADD SWAP1 PUSH1 0x20 ADD DUP1 DUP4 GT PUSH2 0x1815 JUMPI DUP3 SWAP1 SUB PUSH1 0x1F AND DUP3 ADD SWAP2 JUMPDEST POP POP POP POP POP DUP2 MSTORE PUSH1 0x20 ADD PUSH1 0x1 DUP3 ADD PUSH1 0x0 SWAP1 SLOAD SWAP1 PUSH2 0x100 EXP SWAP1 DIV PUSH2 0xFFFF AND PUSH2 0xFFFF AND PUSH2 0xFFFF AND DUP2 MSTORE POP POP SWAP5 POP POP POP POP POP SWAP2 SWAP1 POP JUMP JUMPDEST PUSH1 0x60 PUSH2 0x187C PUSH8 0x12A27165F0E38AA6 PUSH1 0xC0 SHL PUSH2 0x1B2A JUMP JUMPDEST DUP2 PUSH1 0x1 DUP1 SLOAD SWAP1 POP PUSH2 0x1897 PUSH8 0xC129D2F13D9076F PUSH1 0xC0 SHL PUSH2 0x1B2D JUMP JUMPDEST PUSH2 0x18AB PUSH8 0x588A5DE3ABCCFAE2 PUSH1 0xC0 SHL PUSH2 0x1B2D JUMP JUMPDEST PUSH2 0x18BF PUSH8 0xD2DC63E69E651C2F PUSH1 0xC0 SHL PUSH2 0x1B2D JUMP JUMPDEST PUSH2 0x18D3 PUSH8 0x7E7E32F2EDFAED15 PUSH1 0xC0 SHL PUSH2 0x1B2D JUMP JUMPDEST DUP1 DUP3 LT PUSH2 0x1915 JUMPI PUSH1 0x40 MLOAD PUSH32 0x8C379A000000000000000000000000000000000000000000000000000000000 DUP2 MSTORE PUSH1 0x4 ADD PUSH2 0x190C SWAP1 PUSH2 0x2CFE JUMP JUMPDEST PUSH1 0x40 MLOAD DUP1 SWAP2 SUB SWAP1 REVERT JUMPDEST PUSH2 0x1929 PUSH8 0xF5BBBF16DE3C4E1 PUSH1 0xC0 SHL PUSH2 0x1B2D JUMP JUMPDEST PUSH2 0x193D PUSH8 0x74FA6D135AA12A0A PUSH1 0xC0 SHL PUSH2 0x1B2D JUMP JUMPDEST PUSH2 0x1951 PUSH8 0x59EF674895714445 PUSH1 0xC0 SHL PUSH2 0x1B2A JUMP JUMPDEST PUSH2 0x1965 PUSH8 0x9254EE2941367E70 PUSH1 0xC0 SHL PUSH2 0x1B2A JUMP JUMPDEST PUSH2 0x1979 PUSH8 0xDB88ACF85CC7CEFA PUSH1 0xC0 SHL PUSH2 0x1B2A JUMP JUMPDEST PUSH2 0x198D PUSH8 0x8A4B3400E8B80D92 PUSH1 0xC0 SHL PUSH2 0x1B2A JUMP JUMPDEST PUSH1 0x5 PUSH1 0x0 DUP6 DUP2 MSTORE PUSH1 0x20 ADD SWAP1 DUP2 MSTORE PUSH1 0x20 ADD PUSH1 0x0 KECCAK256 DUP1 SLOAD DUP1 PUSH1 0x20 MUL PUSH1 0x20 ADD PUSH1 0x40 MLOAD SWAP1 DUP2 ADD PUSH1 0x40 MSTORE DUP1 SWAP3 SWAP2 SWAP1 DUP2 DUP2 MSTORE PUSH1 0x20 ADD DUP3 DUP1 SLOAD DUP1 ISZERO PUSH2 0x1A20 JUMPI PUSH1 0x20 MUL DUP3 ADD SWAP2 SWAP1 PUSH1 0x0 MSTORE PUSH1 0x20 PUSH1 0x0 KECCAK256 SWAP1 JUMPDEST DUP2 PUSH1 0x0 SWAP1 SLOAD SWAP1 PUSH2 0x100 EXP SWAP1 DIV PUSH20 0xFFFFFFFFFFFFFFFFFFFFFFFFFFFFFFFFFFFFFFFF AND PUSH20 0xFFFFFFFFFFFFFFFFFFFFFFFFFFFFFFFFFFFFFFFF AND DUP2 MSTORE PUSH1 0x20 ADD SWAP1 PUSH1 0x1 ADD SWAP1 DUP1 DUP4 GT PUSH2 0x19D6 JUMPI JUMPDEST POP POP POP POP POP SWAP3 POP POP POP SWAP2 SWAP1 POP JUMP JUMPDEST PUSH2 0x1A36 PUSH2 0x1B30 JUMP JUMPDEST PUSH1 0x0 PUSH20 0xFFFFFFFFFFFFFFFFFFFFFFFFFFFFFFFFFFFFFFFF AND DUP2 PUSH20 0xFFFFFFFFFFFFFFFFFFFFFFFFFFFFFFFFFFFFFFFF AND SUB PUSH2 0x1AA8 JUMPI PUSH1 0x0 PUSH1 0x40 MLOAD PUSH32 0x1E4FBDF700000000000000000000000000000000000000000000000000000000 DUP2 MSTORE PUSH1 0x4 ADD PUSH2 0x1A9F SWAP2 SWAP1 PUSH2 0x2A1C JUMP JUMPDEST PUSH1 0x40 MLOAD DUP1 SWAP2 SUB SWAP1 REVERT JUMPDEST PUSH2 0x1AB1 DUP2 PUSH2 0x1E51 JUMP JUMPDEST POP JUMP JUMPDEST PUSH2 0x1AC8 PUSH8 0xD3A7A4306027E226 PUSH1 0xC0 SHL PUSH2 0x1B2A JUMP JUMPDEST PUSH2 0x1AD0 PUSH2 0x1B30 JUMP JUMPDEST PUSH2 0x1AE4 PUSH8 0x57ADC9AAD697CC82 PUSH1 0xC0 SHL PUSH2 0x1B2A JUMP JUMPDEST PUSH2 0x1AF8 PUSH8 0xD4B1A78C4C512EE0 PUSH1 0xC0 SHL PUSH2 0x1B2A JUMP JUMPDEST PUSH2 0x1B0C PUSH8 0xE3A1281A041E02D9 PUSH1 0xC0 SHL PUSH2 0x1B2A JUMP JUMPDEST DUP1 PUSH1 0x0 PUSH1 0x14 PUSH2 0x100 EXP DUP2 SLOAD DUP2 PUSH1 0xFF MUL NOT AND SWAP1 DUP4 PUSH1 0xFF AND MUL OR SWAP1 SSTORE POP POP JUMP JUMPDEST POP JUMP JUMPDEST POP JUMP JUMPDEST PUSH2 0x1B38 PUSH2 0x23A3 JUMP JUMPDEST PUSH20 0xFFFFFFFFFFFFFFFFFFFFFFFFFFFFFFFFFFFFFFFF AND PUSH2 0x1B56 PUSH2 0x129D JUMP JUMPDEST PUSH20 0xFFFFFFFFFFFFFFFFFFFFFFFFFFFFFFFFFFFFFFFF AND EQ PUSH2 0x1BB5 JUMPI PUSH2 0x1B79 PUSH2 0x23A3 JUMP JUMPDEST PUSH1 0x40 MLOAD PUSH32 0x118CDAA700000000000000000000000000000000000000000000000000000000 DUP2 MSTORE PUSH1 0x4 ADD PUSH2 0x1BAC SWAP2 SWAP1 PUSH2 0x2A1C JUMP JUMPDEST PUSH1 0x40 MLOAD DUP1 SWAP2 SUB SWAP1 REVERT JUMPDEST JUMP JUMPDEST POP JUMP JUMPDEST PUSH1 0x0 PUSH2 0x1BD0 PUSH8 0x2469DEBA75A398E3 PUSH1 0xC0 SHL PUSH2 0x23AB JUMP JUMPDEST PUSH2 0x1BE4 PUSH8 0x7F39060A86BF2EBE PUSH1 0xC0 SHL PUSH2 0x23AB JUMP JUMPDEST PUSH2 0x1BF8 PUSH8 0xED303BCB4984EDCC PUSH1 0xC0 SHL PUSH2 0x23AB JUMP JUMPDEST DUP2 PUSH1 0x40 MLOAD PUSH1 0x20 ADD PUSH2 0x1C09 SWAP2 SWAP1 PUSH2 0x2E61 JUMP JUMPDEST PUSH1 0x40 MLOAD PUSH1 0x20 DUP2 DUP4 SUB SUB DUP2 MSTORE SWAP1 PUSH1 0x40 MSTORE DUP1 MLOAD SWAP1 PUSH1 0x20 ADD KECCAK256 SWAP1 POP SWAP2 SWAP1 POP JUMP JUMPDEST PUSH2 0x1C3A PUSH8 0x6DB27CAE1BBC6D09 PUSH1 0xC0 SHL PUSH2 0x23AB JUMP JUMPDEST PUSH2 0x1C4E PUSH8 0xA553512DCA658C6C PUSH1 0xC0 SHL PUSH2 0x23AB JUMP JUMPDEST DUP1 PUSH1 0x1 DUP4 DUP2 SLOAD DUP2 LT PUSH2 0x1C63 JUMPI PUSH2 0x1C62 PUSH2 0x2D1E JUMP JUMPDEST JUMPDEST SWAP1 PUSH1 0x0 MSTORE PUSH1 0x20 PUSH1 0x0 KECCAK256 SWAP1 PUSH1 0x2 MUL ADD PUSH1 0x1 ADD PUSH1 0x0 PUSH2 0x100 EXP DUP2 SLOAD DUP2 PUSH2 0xFFFF MUL NOT AND SWAP1 DUP4 PUSH2 0xFFFF AND MUL OR SWAP1 SSTORE POP POP POP JUMP JUMPDEST PUSH2 0x1CA6 PUSH8 0xE4FE01F1FB44776E PUSH1 0xC0 SHL PUSH2 0x23AB JUMP JUMPDEST PUSH2 0x1CBA PUSH8 0x9F4B720286B6719E PUSH1 0xC0 SHL PUSH2 0x23AB JUMP JUMPDEST PUSH2 0x1CCE PUSH8 0x87C0CFF45A6145D8 PUSH1 0xC0 SHL PUSH2 0x23AB JUMP JUMPDEST PUSH1 0x0 PUSH1 0x40 MLOAD DUP1 PUSH1 0x40 ADD PUSH1 0x40 MSTORE DUP1 DUP5 DUP2 MSTORE PUSH1 0x20 ADD DUP4 PUSH2 0xFFFF AND DUP2 MSTORE POP SWAP1 POP PUSH2 0x1CFF PUSH8 0x950E110863A62593 PUSH1 0xC0 SHL PUSH2 0x23AB JUMP JUMPDEST PUSH2 0x1D13 PUSH8 0x5DAADC55C322E4BA PUSH1 0xC0 SHL PUSH2 0x23AB JUMP JUMPDEST PUSH1 0x0 PUSH2 0x1D1E DUP5 PUSH2 0x1BBA JUMP JUMPDEST SWAP1 POP PUSH2 0x1D34 PUSH8 0x6D75339AD7A53EA8 PUSH1 0xC0 SHL PUSH2 0x23AB JUMP JUMPDEST DUP5 PUSH1 0x2 PUSH1 0x0 DUP4 DUP2 MSTORE PUSH1 0x20 ADD SWAP1 DUP2 MSTORE PUSH1 0x20 ADD PUSH1 0x0 KECCAK256 DUP2 SWAP1 SSTORE POP PUSH2 0x1D60 PUSH8 0xAA9B382436C07D8B PUSH1 0xC0 SHL PUSH2 0x23AB JUMP JUMPDEST PUSH2 0x1D74 PUSH8 0x59ABF790B06614CD PUSH1 0xC0 SHL PUSH2 0x23AB JUMP JUMPDEST PUSH1 0x1 DUP3 SWAP1 DUP1 PUSH1 0x1 DUP2 SLOAD ADD DUP1 DUP3 SSTORE DUP1 SWAP2 POP POP PUSH1 0x1 SWAP1 SUB SWAP1 PUSH1 0x0 MSTORE PUSH1 0x20 PUSH1 0x0 KECCAK256 SWAP1 PUSH1 0x2 MUL ADD PUSH1 0x0 SWAP1 SWAP2 SWAP1 SWAP2 SWAP1 SWAP2 POP PUSH1 0x0 DUP3 ADD MLOAD DUP2 PUSH1 0x0 ADD SWAP1 DUP2 PUSH2 0x1DB5 SWAP2 SWAP1 PUSH2 0x3292 JUMP JUMPDEST POP PUSH1 0x20 DUP3 ADD MLOAD DUP2 PUSH1 0x1 ADD PUSH1 0x0 PUSH2 0x100 EXP DUP2 SLOAD DUP2 PUSH2 0xFFFF MUL NOT AND SWAP1 DUP4 PUSH2 0xFFFF AND MUL OR SWAP1 SSTORE POP POP POP PUSH2 0x1DEF PUSH8 0x223DD2B0FF10919E PUSH1 0xC0 SHL PUSH2 0x23AB JUMP JUMPDEST DUP2 PUSH1 0x3 DUP6 PUSH1 0x40 MLOAD PUSH2 0x1E00 SWAP2 SWAP1 PUSH2 0x2E61 JUMP JUMPDEST SWAP1 DUP2 MSTORE PUSH1 0x20 ADD PUSH1 0x40 MLOAD DUP1 SWAP2 SUB SWAP1 KECCAK256 PUSH1 0x0 DUP3 ADD MLOAD DUP2 PUSH1 0x0 ADD SWAP1 DUP2 PUSH2 0x1E23 SWAP2 SWAP1 PUSH2 0x3292 JUMP JUMPDEST POP PUSH1 0x20 DUP3 ADD MLOAD DUP2 PUSH1 0x1 ADD PUSH1 0x0 PUSH2 0x100 EXP DUP2 SLOAD DUP2 PUSH2 0xFFFF MUL NOT AND SWAP1 DUP4 PUSH2 0xFFFF AND MUL OR SWAP1 SSTORE POP SWAP1 POP POP POP POP POP POP POP JUMP JUMPDEST PUSH1 0x0 DUP1 PUSH1 0x0 SWAP1 SLOAD SWAP1 PUSH2 0x100 EXP SWAP1 DIV PUSH20 0xFFFFFFFFFFFFFFFFFFFFFFFFFFFFFFFFFFFFFFFF AND SWAP1 POP DUP2 PUSH1 0x0 DUP1 PUSH2 0x100 EXP DUP2 SLOAD DUP2 PUSH20 0xFFFFFFFFFFFFFFFFFFFFFFFFFFFFFFFFFFFFFFFF MUL NOT AND SWAP1 DUP4 PUSH20 0xFFFFFFFFFFFFFFFFFFFFFFFFFFFFFFFFFFFFFFFF AND MUL OR SWAP1 SSTORE POP DUP2 PUSH20 0xFFFFFFFFFFFFFFFFFFFFFFFFFFFFFFFFFFFFFFFF AND DUP2 PUSH20 0xFFFFFFFFFFFFFFFFFFFFFFFFFFFFFFFFFFFFFFFF AND PUSH32 0x8BE0079C531659141344CD1FD0A4F28419497F9722A3DAAFE3B4186F6B6457E0 PUSH1 0x40 MLOAD PUSH1 0x40 MLOAD DUP1 SWAP2 SUB SWAP1 LOG3 POP POP JUMP JUMPDEST PUSH2 0x1F29 PUSH8 0xAFDA2809AF9F9C49 PUSH1 0xC0 SHL PUSH2 0x23AB JUMP JUMPDEST PUSH2 0x1F3D PUSH8 0x6C6EB4F2C9E4B74B PUSH1 0xC0 SHL PUSH2 0x23AB JUMP JUMPDEST PUSH2 0x1F51 PUSH8 0xE20516CFC1A86BB2 PUSH1 0xC0 SHL PUSH2 0x23AB JUMP JUMPDEST PUSH1 0x0 DUP1 PUSH1 0x4 PUSH1 0x0 DUP5 PUSH20 0xFFFFFFFFFFFFFFFFFFFFFFFFFFFFFFFFFFFFFFFF AND PUSH20 0xFFFFFFFFFFFFFFFFFFFFFFFFFFFFFFFFFFFFFFFF AND DUP2 MSTORE PUSH1 0x20 ADD SWAP1 DUP2 MSTORE PUSH1 0x20 ADD PUSH1 0x0 KECCAK256 PUSH1 0x0 DUP6 DUP2 MSTORE PUSH1 0x20 ADD SWAP1 DUP2 MSTORE PUSH1 0x20 ADD PUSH1 0x0 KECCAK256 SLOAD EQ ISZERO SWAP1 POP PUSH2 0x1FBD PUSH8 0xBA5C003D22642C89 PUSH1 0xC0 SHL PUSH2 0x23AB JUMP JUMPDEST PUSH2 0x1FD1 PUSH8 0x446B6A4B0EAC4683 PUSH1 0xC0 SHL PUSH2 0x23AB JUMP JUMPDEST PUSH1 0x0 PUSH2 0x202C PUSH1 0x4 PUSH1 0x0 DUP6 PUSH20 0xFFFFFFFFFFFFFFFFFFFFFFFFFFFFFFFFFFFFFFFF AND PUSH20 0xFFFFFFFFFFFFFFFFFFFFFFFFFFFFFFFFFFFFFFFF AND DUP2 MSTORE PUSH1 0x20 ADD SWAP1 DUP2 MSTORE PUSH1 0x20 ADD PUSH1 0x0 KECCAK256 PUSH1 0x0 DUP7 DUP2 MSTORE PUSH1 0x20 ADD SWAP1 DUP2 MSTORE PUSH1 0x20 ADD PUSH1 0x0 KECCAK256 SLOAD PUSH2 0x23AE JUMP JUMPDEST SWAP1 POP PUSH2 0x2042 PUSH8 0x14F244DC3FBD47EA PUSH1 0xC0 SHL PUSH2 0x23AB JUMP JUMPDEST PUSH2 0x2056 PUSH8 0x38AA906344BE32F5 PUSH1 0xC0 SHL PUSH2 0x23AB JUMP JUMPDEST PUSH2 0x206A PUSH8 0x7DDD2FA23B78653B PUSH1 0xC0 SHL PUSH2 0x23AB JUMP JUMPDEST DUP1 PUSH2 0x20AA JUMPI PUSH1 0x40 MLOAD PUSH32 0x8C379A000000000000000000000000000000000000000000000000000000000 DUP2 MSTORE PUSH1 0x4 ADD PUSH2 0x20A1 SWAP1 PUSH2 0x33D6 JUMP JUMPDEST PUSH1 0x40 MLOAD DUP1 SWAP2 SUB SWAP1 REVERT JUMPDEST PUSH2 0x20BE PUSH8 0xB0BB735795BCAA21 PUSH1 0xC0 SHL PUSH2 0x23AB JUMP JUMPDEST PUSH2 0x20D2 PUSH8 0x813C590DE7793510 PUSH1 0xC0 SHL PUSH2 0x23AB JUMP JUMPDEST PUSH2 0x20E6 PUSH8 0x44F32EB05983814 PUSH1 0xC0 SHL PUSH2 0x23AB JUMP JUMPDEST PUSH2 0x20FA PUSH8 0x547FCDA18963B294 PUSH1 0xC0 SHL PUSH2 0x23AB JUMP JUMPDEST DUP2 PUSH2 0x213A JUMPI PUSH1 0x40 MLOAD PUSH32 0x8C379A000000000000000000000000000000000000000000000000000000000 DUP2 MSTORE PUSH1 0x4 ADD PUSH2 0x2131 SWAP1 PUSH2 0x3468 JUMP JUMPDEST PUSH1 0x40 MLOAD DUP1 SWAP2 SUB SWAP1 REVERT JUMPDEST PUSH2 0x214E PUSH8 0x7FFACA93FCD9A691 PUSH1 0xC0 SHL PUSH2 0x23AB JUMP JUMPDEST PUSH2 0x2162 PUSH8 0xEFC5C04924008E12 PUSH1 0xC0 SHL PUSH2 0x23AB JUMP JUMPDEST PUSH1 0x0 PUSH1 0x4 PUSH1 0x0 DUP6 PUSH20 0xFFFFFFFFFFFFFFFFFFFFFFFFFFFFFFFFFFFFFFFF AND PUSH20 0xFFFFFFFFFFFFFFFFFFFFFFFFFFFFFFFFFFFFFFFF AND DUP2 MSTORE PUSH1 0x20 ADD SWAP1 DUP2 MSTORE PUSH1 0x20 ADD PUSH1 0x0 KECCAK256 PUSH1 0x0 DUP7 DUP2 MSTORE PUSH1 0x20 ADD SWAP1 DUP2 MSTORE PUSH1 0x20 ADD PUSH1 0x0 KECCAK256 DUP2 SWAP1 SSTORE POP POP POP POP POP JUMP JUMPDEST PUSH1 0x0 PUSH2 0x21D4 PUSH8 0x9098097F918742AC PUSH1 0xC0 SHL PUSH2 0x23AB JUMP JUMPDEST PUSH2 0x21E8 PUSH8 0xD0307D11C9C4DE41 PUSH1 0xC0 SHL PUSH2 0x23AB JUMP JUMPDEST PUSH2 0x21FC PUSH8 0x18C8CC009E2C054 PUSH1 0xC0 SHL PUSH2 0x23AB JUMP JUMPDEST PUSH1 0x0 PUSH1 0x4 PUSH1 0x0 DUP5 PUSH20 0xFFFFFFFFFFFFFFFFFFFFFFFFFFFFFFFFFFFFFFFF AND PUSH20 0xFFFFFFFFFFFFFFFFFFFFFFFFFFFFFFFFFFFFFFFF AND DUP2 MSTORE PUSH1 0x20 ADD SWAP1 DUP2 MSTORE PUSH1 0x20 ADD PUSH1 0x0 KECCAK256 PUSH1 0x0 DUP6 DUP2 MSTORE PUSH1 0x20 ADD SWAP1 DUP2 MSTORE PUSH1 0x20 ADD PUSH1 0x0 KECCAK256 SLOAD GT SWAP1 POP SWAP3 SWAP2 POP POP JUMP JUMPDEST PUSH2 0x226C PUSH8 0x3856248856C584C0 PUSH1 0xC0 SHL PUSH2 0x23AB JUMP JUMPDEST PUSH2 0x2280 PUSH8 0x68C5F2CEE4793903 PUSH1 0xC0 SHL PUSH2 0x23AB JUMP JUMPDEST PUSH2 0x2294 PUSH8 0xE42924D08A539161 PUSH1 0xC0 SHL PUSH2 0x23AB JUMP JUMPDEST PUSH1 0x0 NUMBER SWAP1 POP PUSH2 0x22AD PUSH8 0x6D00C7511955BC12 PUSH1 0xC0 SHL PUSH2 0x23AB JUMP JUMPDEST DUP1 PUSH1 0x4 PUSH1 0x0 DUP5 PUSH20 0xFFFFFFFFFFFFFFFFFFFFFFFFFFFFFFFFFFFFFFFF AND PUSH20 0xFFFFFFFFFFFFFFFFFFFFFFFFFFFFFFFFFFFFFFFF AND DUP2 MSTORE PUSH1 0x20 ADD SWAP1 DUP2 MSTORE PUSH1 0x20 ADD PUSH1 0x0 KECCAK256 PUSH1 0x0 DUP6 DUP2 MSTORE PUSH1 0x20 ADD SWAP1 DUP2 MSTORE PUSH1 0x20 ADD PUSH1 0x0 KECCAK256 DUP2 SWAP1 SSTORE POP PUSH2 0x2316 PUSH8 0x6F0AC7B490D826DB PUSH1 0xC0 SHL PUSH2 0x23AB JUMP JUMPDEST PUSH2 0x232A PUSH8 0x4B77AA327B27C1D9 PUSH1 0xC0 SHL PUSH2 0x23AB JUMP JUMPDEST PUSH1 0x5 PUSH1 0x0 DUP5 DUP2 MSTORE PUSH1 0x20 ADD SWAP1 DUP2 MSTORE PUSH1 0x20 ADD PUSH1 0x0 KECCAK256 DUP3 SWAP1 DUP1 PUSH1 0x1 DUP2 SLOAD ADD DUP1 DUP3 SSTORE DUP1 SWAP2 POP POP PUSH1 0x1 SWAP1 SUB SWAP1 PUSH1 0x0 MSTORE PUSH1 0x20 PUSH1 0x0 KECCAK256 ADD PUSH1 0x0 SWAP1 SWAP2 SWAP1 SWAP2 SWAP1 SWAP2 PUSH2 0x100 EXP DUP2 SLOAD DUP2 PUSH20 0xFFFFFFFFFFFFFFFFFFFFFFFFFFFFFFFFFFFFFFFF MUL NOT AND SWAP1 DUP4 PUSH20 0xFFFFFFFFFFFFFFFFFFFFFFFFFFFFFFFFFFFFFFFF AND MUL OR SWAP1 SSTORE POP POP POP POP JUMP JUMPDEST PUSH1 0x0 CALLER SWAP1 POP SWAP1 JUMP JUMPDEST POP JUMP JUMPDEST PUSH1 0x0 PUSH2 0x23C4 PUSH8 0x71B86A670D7E7BE4 PUSH1 0xC0 SHL PUSH2 0x23AB JUMP JUMPDEST PUSH2 0x23D8 PUSH8 0x272F838950E92CC0 PUSH1 0xC0 SHL PUSH2 0x23AB JUMP JUMPDEST PUSH2 0x23EC PUSH8 0x4F4B8FD0458F687F PUSH1 0xC0 SHL PUSH2 0x23AB JUMP JUMPDEST NUMBER PUSH1 0x0 PUSH1 0x14 SWAP1 SLOAD SWAP1 PUSH2 0x100 EXP SWAP1 DIV PUSH1 0xFF AND PUSH1 0xFF AND DUP4 PUSH2 0x240B SWAP2 SWAP1 PUSH2 0x3488 JUMP JUMPDEST GT ISZERO PUSH2 0x2456 JUMPI PUSH2 0x2425 PUSH8 0x7D89BBC908598D8B PUSH1 0xC0 SHL PUSH2 0x23AB JUMP JUMPDEST PUSH2 0x2439 PUSH8 0x4C1E74ECE7041F8E PUSH1 0xC0 SHL PUSH2 0x23AB JUMP JUMPDEST PUSH2 0x244D PUSH8 0xD42AE1C49CB012EF PUSH1 0xC0 SHL PUSH2 0x23AB JUMP JUMPDEST PUSH1 0x1 SWAP1 POP PUSH2 0x2497 JUMP JUMPDEST PUSH2 0x246A PUSH8 0xE18DC71F9927AAA7 PUSH1 0xC0 SHL PUSH2 0x23AB JUMP JUMPDEST PUSH2 0x247E PUSH8 0xD27B5E8ED8747731 PUSH1 0xC0 SHL PUSH2 0x23AB JUMP JUMPDEST PUSH2 0x2492 PUSH8 0xFA86729C24A03903 PUSH1 0xC0 SHL PUSH2 0x23AB JUMP JUMPDEST PUSH1 0x0 SWAP1 POP JUMPDEST SWAP2 SWAP1 POP JUMP JUMPDEST PUSH1 0x40 MLOAD DUP1 PUSH1 0x40 ADD PUSH1 0x40 MSTORE DUP1 PUSH1 0x60 DUP2 MSTORE PUSH1 0x20 ADD PUSH1 0x0 PUSH2 0xFFFF AND DUP2 MSTORE POP SWAP1 JUMP JUMPDEST PUSH1 0x0 DUP2 MLOAD SWAP1 POP SWAP2 SWAP1 POP JUMP JUMPDEST PUSH1 0x0 DUP3 DUP3 MSTORE PUSH1 0x20 DUP3 ADD SWAP1 POP SWAP3 SWAP2 POP POP JUMP JUMPDEST PUSH1 0x0 DUP2 SWAP1 POP PUSH1 0x20 DUP3 ADD SWAP1 POP SWAP2 SWAP1 POP JUMP JUMPDEST PUSH1 0x0 DUP2 MLOAD SWAP1 POP SWAP2 SWAP1 POP JUMP JUMPDEST PUSH1 0x0 DUP3 DUP3 MSTORE PUSH1 0x20 DUP3 ADD SWAP1 POP SWAP3 SWAP2 POP POP JUMP JUMPDEST PUSH1 0x0 JUMPDEST DUP4 DUP2 LT ISZERO PUSH2 0x2520 JUMPI DUP1 DUP3 ADD MLOAD DUP2 DUP5 ADD MSTORE PUSH1 0x20 DUP2 ADD SWAP1 POP PUSH2 0x2505 JUMP JUMPDEST PUSH1 0x0 DUP5 DUP5 ADD MSTORE POP POP POP POP JUMP JUMPDEST PUSH1 0x0 PUSH1 0x1F NOT PUSH1 0x1F DUP4 ADD AND SWAP1 POP SWAP2 SWAP1 POP JUMP JUMPDEST PUSH1 0x0 PUSH2 0x2548 DUP3 PUSH2 0x24E6 JUMP JUMPDEST PUSH2 0x2552 DUP2 DUP6 PUSH2 0x24F1 JUMP JUMPDEST SWAP4 POP PUSH2 0x2562 DUP2 DUP6 PUSH1 0x20 DUP7 ADD PUSH2 0x2502 JUMP JUMPDEST PUSH2 0x256B DUP2 PUSH2 0x252C JUMP JUMPDEST DUP5 ADD SWAP2 POP POP SWAP3 SWAP2 POP POP JUMP JUMPDEST PUSH1 0x0 PUSH2 0xFFFF DUP3 AND SWAP1 POP SWAP2 SWAP1 POP JUMP JUMPDEST PUSH2 0x258D DUP2 PUSH2 0x2576 JUMP JUMPDEST DUP3 MSTORE POP POP JUMP JUMPDEST PUSH1 0x0 PUSH1 0x40 DUP4 ADD PUSH1 0x0 DUP4 ADD MLOAD DUP5 DUP3 SUB PUSH1 0x0 DUP7 ADD MSTORE PUSH2 0x25B0 DUP3 DUP3 PUSH2 0x253D JUMP JUMPDEST SWAP2 POP POP PUSH1 0x20 DUP4 ADD MLOAD PUSH2 0x25C5 PUSH1 0x20 DUP7 ADD DUP3 PUSH2 0x2584 JUMP JUMPDEST POP DUP1 SWAP2 POP POP SWAP3 SWAP2 POP POP JUMP JUMPDEST PUSH1 0x0 PUSH2 0x25DC DUP4 DUP4 PUSH2 0x2593 JUMP JUMPDEST SWAP1 POP SWAP3 SWAP2 POP POP JUMP JUMPDEST PUSH1 0x0 PUSH1 0x20 DUP3 ADD SWAP1 POP SWAP2 SWAP1 POP JUMP JUMPDEST PUSH1 0x0 PUSH2 0x25FC DUP3 PUSH2 0x24BA JUMP JUMPDEST PUSH2 0x2606 DUP2 DUP6 PUSH2 0x24C5 JUMP JUMPDEST SWAP4 POP DUP4 PUSH1 0x20 DUP3 MUL DUP6 ADD PUSH2 0x2618 DUP6 PUSH2 0x24D6 JUMP JUMPDEST DUP1 PUSH1 0x0 JUMPDEST DUP6 DUP2 LT ISZERO PUSH2 0x2654 JUMPI DUP5 DUP5 SUB DUP10 MSTORE DUP2 MLOAD PUSH2 0x2635 DUP6 DUP3 PUSH2 0x25D0 JUMP JUMPDEST SWAP5 POP PUSH2 0x2640 DUP4 PUSH2 0x25E4 JUMP JUMPDEST SWAP3 POP PUSH1 0x20 DUP11 ADD SWAP10 POP POP PUSH1 0x1 DUP2 ADD SWAP1 POP PUSH2 0x261C JUMP JUMPDEST POP DUP3 SWAP8 POP DUP8 SWAP6 POP POP POP POP POP POP SWAP3 SWAP2 POP POP JUMP JUMPDEST PUSH1 0x0 PUSH1 0x20 DUP3 ADD SWAP1 POP DUP2 DUP2 SUB PUSH1 0x0 DUP4 ADD MSTORE PUSH2 0x2680 DUP2 DUP5 PUSH2 0x25F1 JUMP JUMPDEST SWAP1 POP SWAP3 SWAP2 POP POP JUMP JUMPDEST PUSH1 0x0 PUSH1 0x40 MLOAD SWAP1 POP SWAP1 JUMP JUMPDEST PUSH1 0x0 DUP1 REVERT JUMPDEST PUSH1 0x0 DUP1 REVERT JUMPDEST PUSH1 0x0 DUP2 SWAP1 POP SWAP2 SWAP1 POP JUMP JUMPDEST PUSH2 0x26AF DUP2 PUSH2 0x269C JUMP JUMPDEST DUP2 EQ PUSH2 0x26BA JUMPI PUSH1 0x0 DUP1 REVERT JUMPDEST POP JUMP JUMPDEST PUSH1 0x0 DUP2 CALLDATALOAD SWAP1 POP PUSH2 0x26CC DUP2 PUSH2 0x26A6 JUMP JUMPDEST SWAP3 SWAP2 POP POP JUMP JUMPDEST PUSH1 0x0 PUSH1 0x20 DUP3 DUP5 SUB SLT ISZERO PUSH2 0x26E8 JUMPI PUSH2 0x26E7 PUSH2 0x2692 JUMP JUMPDEST JUMPDEST PUSH1 0x0 PUSH2 0x26F6 DUP5 DUP3 DUP6 ADD PUSH2 0x26BD JUMP JUMPDEST SWAP2 POP POP SWAP3 SWAP2 POP POP JUMP JUMPDEST PUSH1 0x0 PUSH1 0x40 DUP4 ADD PUSH1 0x0 DUP4 ADD MLOAD DUP5 DUP3 SUB PUSH1 0x0 DUP7 ADD MSTORE PUSH2 0x271C DUP3 DUP3 PUSH2 0x253D JUMP JUMPDEST SWAP2 POP POP PUSH1 0x20 DUP4 ADD MLOAD PUSH2 0x2731 PUSH1 0x20 DUP7 ADD DUP3 PUSH2 0x2584 JUMP JUMPDEST POP DUP1 SWAP2 POP POP SWAP3 SWAP2 POP POP JUMP JUMPDEST PUSH1 0x0 PUSH1 0x20 DUP3 ADD SWAP1 POP DUP2 DUP2 SUB PUSH1 0x0 DUP4 ADD MSTORE PUSH2 0x2756 DUP2 DUP5 PUSH2 0x26FF JUMP JUMPDEST SWAP1 POP SWAP3 SWAP2 POP POP JUMP JUMPDEST PUSH1 0x0 DUP1 REVERT JUMPDEST PUSH1 0x0 DUP1 REVERT JUMPDEST PUSH32 0x4E487B7100000000000000000000000000000000000000000000000000000000 PUSH1 0x0 MSTORE PUSH1 0x41 PUSH1 0x4 MSTORE PUSH1 0x24 PUSH1 0x0 REVERT JUMPDEST PUSH2 0x27A0 DUP3 PUSH2 0x252C JUMP JUMPDEST DUP2 ADD DUP2 DUP2 LT PUSH8 0xFFFFFFFFFFFFFFFF DUP3 GT OR ISZERO PUSH2 0x27BF JUMPI PUSH2 0x27BE PUSH2 0x2768 JUMP JUMPDEST JUMPDEST DUP1 PUSH1 0x40 MSTORE POP POP POP JUMP JUMPDEST PUSH1 0x0 PUSH2 0x27D2 PUSH2 0x2688 JUMP JUMPDEST SWAP1 POP PUSH2 0x27DE DUP3 DUP3 PUSH2 0x2797 JUMP JUMPDEST SWAP2 SWAP1 POP JUMP JUMPDEST PUSH1 0x0 PUSH8 0xFFFFFFFFFFFFFFFF DUP3 GT ISZERO PUSH2 0x27FE JUMPI PUSH2 0x27FD PUSH2 0x2768 JUMP JUMPDEST JUMPDEST PUSH2 0x2807 DUP3 PUSH2 0x252C JUMP JUMPDEST SWAP1 POP PUSH1 0x20 DUP2 ADD SWAP1 POP SWAP2 SWAP1 POP JUMP JUMPDEST DUP3 DUP2 DUP4 CALLDATACOPY PUSH1 0x0 DUP4 DUP4 ADD MSTORE POP POP POP JUMP JUMPDEST PUSH1 0x0 PUSH2 0x2836 PUSH2 0x2831 DUP5 PUSH2 0x27E3 JUMP JUMPDEST PUSH2 0x27C8 JUMP JUMPDEST SWAP1 POP DUP3 DUP2 MSTORE PUSH1 0x20 DUP2 ADD DUP5 DUP5 DUP5 ADD GT ISZERO PUSH2 0x2852 JUMPI PUSH2 0x2851 PUSH2 0x2763 JUMP JUMPDEST JUMPDEST PUSH2 0x285D DUP5 DUP3 DUP6 PUSH2 0x2814 JUMP JUMPDEST POP SWAP4 SWAP3 POP POP POP JUMP JUMPDEST PUSH1 0x0 DUP3 PUSH1 0x1F DUP4 ADD SLT PUSH2 0x287A JUMPI PUSH2 0x2879 PUSH2 0x275E JUMP JUMPDEST JUMPDEST DUP2 CALLDATALOAD PUSH2 0x288A DUP5 DUP3 PUSH1 0x20 DUP7 ADD PUSH2 0x2823 JUMP JUMPDEST SWAP2 POP POP SWAP3 SWAP2 POP POP JUMP JUMPDEST PUSH2 0x289C DUP2 PUSH2 0x2576 JUMP JUMPDEST DUP2 EQ PUSH2 0x28A7 JUMPI PUSH1 0x0 DUP1 REVERT JUMPDEST POP JUMP JUMPDEST PUSH1 0x0 DUP2 CALLDATALOAD SWAP1 POP PUSH2 0x28B9 DUP2 PUSH2 0x2893 JUMP JUMPDEST SWAP3 SWAP2 POP POP JUMP JUMPDEST PUSH1 0x0 DUP1 PUSH1 0x40 DUP4 DUP6 SUB SLT ISZERO PUSH2 0x28D6 JUMPI PUSH2 0x28D5 PUSH2 0x2692 JUMP JUMPDEST JUMPDEST PUSH1 0x0 DUP4 ADD CALLDATALOAD PUSH8 0xFFFFFFFFFFFFFFFF DUP2 GT ISZERO PUSH2 0x28F4 JUMPI PUSH2 0x28F3 PUSH2 0x2697 JUMP JUMPDEST JUMPDEST PUSH2 0x2900 DUP6 DUP3 DUP7 ADD PUSH2 0x2865 JUMP JUMPDEST SWAP3 POP POP PUSH1 0x20 PUSH2 0x2911 DUP6 DUP3 DUP7 ADD PUSH2 0x28AA JUMP JUMPDEST SWAP2 POP POP SWAP3 POP SWAP3 SWAP1 POP JUMP JUMPDEST PUSH1 0x0 PUSH1 0xFF DUP3 AND SWAP1 POP SWAP2 SWAP1 POP JUMP JUMPDEST PUSH2 0x2931 DUP2 PUSH2 0x291B JUMP JUMPDEST DUP3 MSTORE POP POP JUMP JUMPDEST PUSH1 0x0 PUSH1 0x20 DUP3 ADD SWAP1 POP PUSH2 0x294C PUSH1 0x0 DUP4 ADD DUP5 PUSH2 0x2928 JUMP JUMPDEST SWAP3 SWAP2 POP POP JUMP JUMPDEST PUSH1 0x0 DUP3 DUP3 MSTORE PUSH1 0x20 DUP3 ADD SWAP1 POP SWAP3 SWAP2 POP POP JUMP JUMPDEST PUSH1 0x0 PUSH2 0x296E DUP3 PUSH2 0x24E6 JUMP JUMPDEST PUSH2 0x2978 DUP2 DUP6 PUSH2 0x2952 JUMP JUMPDEST SWAP4 POP PUSH2 0x2988 DUP2 DUP6 PUSH1 0x20 DUP7 ADD PUSH2 0x2502 JUMP JUMPDEST PUSH2 0x2991 DUP2 PUSH2 0x252C JUMP JUMPDEST DUP5 ADD SWAP2 POP POP SWAP3 SWAP2 POP POP JUMP JUMPDEST PUSH2 0x29A5 DUP2 PUSH2 0x2576 JUMP JUMPDEST DUP3 MSTORE POP POP JUMP JUMPDEST PUSH1 0x0 PUSH1 0x40 DUP3 ADD SWAP1 POP DUP2 DUP2 SUB PUSH1 0x0 DUP4 ADD MSTORE PUSH2 0x29C5 DUP2 DUP6 PUSH2 0x2963 JUMP JUMPDEST SWAP1 POP PUSH2 0x29D4 PUSH1 0x20 DUP4 ADD DUP5 PUSH2 0x299C JUMP JUMPDEST SWAP4 SWAP3 POP POP POP JUMP JUMPDEST PUSH1 0x0 PUSH20 0xFFFFFFFFFFFFFFFFFFFFFFFFFFFFFFFFFFFFFFFF DUP3 AND SWAP1 POP SWAP2 SWAP1 POP JUMP JUMPDEST PUSH1 0x0 PUSH2 0x2A06 DUP3 PUSH2 0x29DB JUMP JUMPDEST SWAP1 POP SWAP2 SWAP1 POP JUMP JUMPDEST PUSH2 0x2A16 DUP2 PUSH2 0x29FB JUMP JUMPDEST DUP3 MSTORE POP POP JUMP JUMPDEST PUSH1 0x0 PUSH1 0x20 DUP3 ADD SWAP1 POP PUSH2 0x2A31 PUSH1 0x0 DUP4 ADD DUP5 PUSH2 0x2A0D JUMP JUMPDEST SWAP3 SWAP2 POP POP JUMP JUMPDEST PUSH1 0x0 DUP1 PUSH1 0x40 DUP4 DUP6 SUB SLT ISZERO PUSH2 0x2A4E JUMPI PUSH2 0x2A4D PUSH2 0x2692 JUMP JUMPDEST JUMPDEST PUSH1 0x0 PUSH2 0x2A5C DUP6 DUP3 DUP7 ADD PUSH2 0x26BD JUMP JUMPDEST SWAP3 POP POP PUSH1 0x20 PUSH2 0x2A6D DUP6 DUP3 DUP7 ADD PUSH2 0x28AA JUMP JUMPDEST SWAP2 POP POP SWAP3 POP SWAP3 SWAP1 POP JUMP JUMPDEST PUSH1 0x0 PUSH1 0x20 DUP3 DUP5 SUB SLT ISZERO PUSH2 0x2A8D JUMPI PUSH2 0x2A8C PUSH2 0x2692 JUMP JUMPDEST JUMPDEST PUSH1 0x0 DUP3 ADD CALLDATALOAD PUSH8 0xFFFFFFFFFFFFFFFF DUP2 GT ISZERO PUSH2 0x2AAB JUMPI PUSH2 0x2AAA PUSH2 0x2697 JUMP JUMPDEST JUMPDEST PUSH2 0x2AB7 DUP5 DUP3 DUP6 ADD PUSH2 0x2865 JUMP JUMPDEST SWAP2 POP POP SWAP3 SWAP2 POP POP JUMP JUMPDEST PUSH1 0x0 DUP2 MLOAD SWAP1 POP SWAP2 SWAP1 POP JUMP JUMPDEST PUSH1 0x0 DUP3 DUP3 MSTORE PUSH1 0x20 DUP3 ADD SWAP1 POP SWAP3 SWAP2 POP POP JUMP JUMPDEST PUSH1 0x0 DUP2 SWAP1 POP PUSH1 0x20 DUP3 ADD SWAP1 POP SWAP2 SWAP1 POP JUMP JUMPDEST PUSH2 0x2AF5 DUP2 PUSH2 0x29FB JUMP JUMPDEST DUP3 MSTORE POP POP JUMP JUMPDEST PUSH1 0x0 PUSH2 0x2B07 DUP4 DUP4 PUSH2 0x2AEC JUMP JUMPDEST PUSH1 0x20 DUP4 ADD SWAP1 POP SWAP3 SWAP2 POP POP JUMP JUMPDEST PUSH1 0x0 PUSH1 0x20 DUP3 ADD SWAP1 POP SWAP2 SWAP1 POP JUMP JUMPDEST PUSH1 0x0 PUSH2 0x2B2B DUP3 PUSH2 0x2AC0 JUMP JUMPDEST PUSH2 0x2B35 DUP2 DUP6 PUSH2 0x2ACB JUMP JUMPDEST SWAP4 POP PUSH2 0x2B40 DUP4 PUSH2 0x2ADC JUMP JUMPDEST DUP1 PUSH1 0x0 JUMPDEST DUP4 DUP2 LT ISZERO PUSH2 0x2B71 JUMPI DUP2 MLOAD PUSH2 0x2B58 DUP9 DUP3 PUSH2 0x2AFB JUMP JUMPDEST SWAP8 POP PUSH2 0x2B63 DUP4 PUSH2 0x2B13 JUMP JUMPDEST SWAP3 POP POP PUSH1 0x1 DUP2 ADD SWAP1 POP PUSH2 0x2B44 JUMP JUMPDEST POP DUP6 SWAP4 POP POP POP POP SWAP3 SWAP2 POP POP JUMP JUMPDEST PUSH1 0x0 PUSH1 0x20 DUP3 ADD SWAP1 POP DUP2 DUP2 SUB PUSH1 0x0 DUP4 ADD MSTORE PUSH2 0x2B98 DUP2 DUP5 PUSH2 0x2B20 JUMP JUMPDEST SWAP1 POP SWAP3 SWAP2 POP POP JUMP JUMPDEST PUSH2 0x2BA9 DUP2 PUSH2 0x29FB JUMP JUMPDEST DUP2 EQ PUSH2 0x2BB4 JUMPI PUSH1 0x0 DUP1 REVERT JUMPDEST POP JUMP JUMPDEST PUSH1 0x0 DUP2 CALLDATALOAD SWAP1 POP PUSH2 0x2BC6 DUP2 PUSH2 0x2BA0 JUMP JUMPDEST SWAP3 SWAP2 POP POP JUMP JUMPDEST PUSH1 0x0 PUSH1 0x20 DUP3 DUP5 SUB SLT ISZERO PUSH2 0x2BE2 JUMPI PUSH2 0x2BE1 PUSH2 0x2692 JUMP JUMPDEST JUMPDEST PUSH1 0x0 PUSH2 0x2BF0 DUP5 DUP3 DUP6 ADD PUSH2 0x2BB7 JUMP JUMPDEST SWAP2 POP POP SWAP3 SWAP2 POP POP JUMP JUMPDEST PUSH2 0x2C02 DUP2 PUSH2 0x291B JUMP JUMPDEST DUP2 EQ PUSH2 0x2C0D JUMPI PUSH1 0x0 DUP1 REVERT JUMPDEST POP JUMP JUMPDEST PUSH1 0x0 DUP2 CALLDATALOAD SWAP1 POP PUSH2 0x2C1F DUP2 PUSH2 0x2BF9 JUMP JUMPDEST SWAP3 SWAP2 POP POP JUMP JUMPDEST PUSH1 0x0 PUSH1 0x20 DUP3 DUP5 SUB SLT ISZERO PUSH2 0x2C3B JUMPI PUSH2 0x2C3A PUSH2 0x2692 JUMP JUMPDEST JUMPDEST PUSH1 0x0 PUSH2 0x2C49 DUP5 DUP3 DUP6 ADD PUSH2 0x2C10 JUMP JUMPDEST SWAP2 POP POP SWAP3 SWAP2 POP POP JUMP JUMPDEST PUSH32 0x4E487B7100000000000000000000000000000000000000000000000000000000 PUSH1 0x0 MSTORE PUSH1 0x22 PUSH1 0x4 MSTORE PUSH1 0x24 PUSH1 0x0 REVERT JUMPDEST PUSH1 0x0 PUSH1 0x2 DUP3 DIV SWAP1 POP PUSH1 0x1 DUP3 AND DUP1 PUSH2 0x2C99 JUMPI PUSH1 0x7F DUP3 AND SWAP2 POP JUMPDEST PUSH1 0x20 DUP3 LT DUP2 SUB PUSH2 0x2CAC JUMPI PUSH2 0x2CAB PUSH2 0x2C52 JUMP JUMPDEST JUMPDEST POP SWAP2 SWAP1 POP JUMP JUMPDEST PUSH32 0x546869732070726F6475637420646F6573206E6F742065786973742100000000 PUSH1 0x0 DUP3 ADD MSTORE POP JUMP JUMPDEST PUSH1 0x0 PUSH2 0x2CE8 PUSH1 0x1C DUP4 PUSH2 0x2952 JUMP JUMPDEST SWAP2 POP PUSH2 0x2CF3 DUP3 PUSH2 0x2CB2 JUMP JUMPDEST PUSH1 0x20 DUP3 ADD SWAP1 POP SWAP2 SWAP1 POP JUMP JUMPDEST PUSH1 0x0 PUSH1 0x20 DUP3 ADD SWAP1 POP DUP2 DUP2 SUB PUSH1 0x0 DUP4 ADD MSTORE PUSH2 0x2D17 DUP2 PUSH2 0x2CDB JUMP JUMPDEST SWAP1 POP SWAP2 SWAP1 POP JUMP JUMPDEST PUSH32 0x4E487B7100000000000000000000000000000000000000000000000000000000 PUSH1 0x0 MSTORE PUSH1 0x32 PUSH1 0x4 MSTORE PUSH1 0x24 PUSH1 0x0 REVERT JUMPDEST PUSH32 0x5175616E746974792063616E2774206265203021000000000000000000000000 PUSH1 0x0 DUP3 ADD MSTORE POP JUMP JUMPDEST PUSH1 0x0 PUSH2 0x2D83 PUSH1 0x14 DUP4 PUSH2 0x2952 JUMP JUMPDEST SWAP2 POP PUSH2 0x2D8E DUP3 PUSH2 0x2D4D JUMP JUMPDEST PUSH1 0x20 DUP3 ADD SWAP1 POP SWAP2 SWAP1 POP JUMP JUMPDEST PUSH1 0x0 PUSH1 0x20 DUP3 ADD SWAP1 POP DUP2 DUP2 SUB PUSH1 0x0 DUP4 ADD MSTORE PUSH2 0x2DB2 DUP2 PUSH2 0x2D76 JUMP JUMPDEST SWAP1 POP SWAP2 SWAP1 POP JUMP JUMPDEST PUSH32 0x596F75206861766520746F20656E7465722061206E616D652100000000000000 PUSH1 0x0 DUP3 ADD MSTORE POP JUMP JUMPDEST PUSH1 0x0 PUSH2 0x2DEF PUSH1 0x19 DUP4 PUSH2 0x2952 JUMP JUMPDEST SWAP2 POP PUSH2 0x2DFA DUP3 PUSH2 0x2DB9 JUMP JUMPDEST PUSH1 0x20 DUP3 ADD SWAP1 POP SWAP2 SWAP1 POP JUMP JUMPDEST PUSH1 0x0 PUSH1 0x20 DUP3 ADD SWAP1 POP DUP2 DUP2 SUB PUSH1 0x0 DUP4 ADD MSTORE PUSH2 0x2E1E DUP2 PUSH2 0x2DE2 JUMP JUMPDEST SWAP1 POP SWAP2 SWAP1 POP JUMP JUMPDEST PUSH1 0x0 DUP2 SWAP1 POP SWAP3 SWAP2 POP POP JUMP JUMPDEST PUSH1 0x0 PUSH2 0x2E3B DUP3 PUSH2 0x24E6 JUMP JUMPDEST PUSH2 0x2E45 DUP2 DUP6 PUSH2 0x2E25 JUMP JUMPDEST SWAP4 POP PUSH2 0x2E55 DUP2 DUP6 PUSH1 0x20 DUP7 ADD PUSH2 0x2502 JUMP JUMPDEST DUP1 DUP5 ADD SWAP2 POP POP SWAP3 SWAP2 POP POP JUMP JUMPDEST PUSH1 0x0 PUSH2 0x2E6D DUP3 DUP5 PUSH2 0x2E30 JUMP JUMPDEST SWAP2 POP DUP2 SWAP1 POP SWAP3 SWAP2 POP POP JUMP JUMPDEST PUSH2 0x2E81 DUP2 PUSH2 0x269C JUMP JUMPDEST DUP3 MSTORE POP POP JUMP JUMPDEST PUSH1 0x0 DUP2 SWAP1 POP DUP2 PUSH1 0x0 MSTORE PUSH1 0x20 PUSH1 0x0 KECCAK256 SWAP1 POP SWAP2 SWAP1 POP JUMP JUMPDEST PUSH1 0x0 DUP2 SLOAD PUSH2 0x2EA9 DUP2 PUSH2 0x2C81 JUMP JUMPDEST PUSH2 0x2EB3 DUP2 DUP7 PUSH2 0x2952 JUMP JUMPDEST SWAP5 POP PUSH1 0x1 DUP3 AND PUSH1 0x0 DUP2 EQ PUSH2 0x2ECE JUMPI PUSH1 0x1 DUP2 EQ PUSH2 0x2EE4 JUMPI PUSH2 0x2F17 JUMP JUMPDEST PUSH1 0xFF NOT DUP4 AND DUP7 MSTORE DUP2 ISZERO ISZERO PUSH1 0x20 MUL DUP7 ADD SWAP4 POP PUSH2 0x2F17 JUMP JUMPDEST PUSH2 0x2EED DUP6 PUSH2 0x2E87 JUMP JUMPDEST PUSH1 0x0 JUMPDEST DUP4 DUP2 LT ISZERO PUSH2 0x2F0F JUMPI DUP2 SLOAD DUP2 DUP10 ADD MSTORE PUSH1 0x1 DUP3 ADD SWAP2 POP PUSH1 0x20 DUP2 ADD SWAP1 POP PUSH2 0x2EF0 JUMP JUMPDEST DUP1 DUP9 ADD SWAP6 POP POP POP JUMPDEST POP POP POP SWAP3 SWAP2 POP POP JUMP JUMPDEST PUSH1 0x0 DUP2 SWAP1 POP SWAP2 SWAP1 POP JUMP JUMPDEST PUSH1 0x0 PUSH2 0x2F45 PUSH2 0x2F40 PUSH2 0x2F3B DUP5 PUSH2 0x2576 JUMP JUMPDEST PUSH2 0x2F20 JUMP JUMPDEST PUSH2 0x269C JUMP JUMPDEST SWAP1 POP SWAP2 SWAP1 POP JUMP JUMPDEST PUSH2 0x2F55 DUP2 PUSH2 0x2F2A JUMP JUMPDEST DUP3 MSTORE POP POP JUMP JUMPDEST PUSH1 0x0 PUSH1 0x60 DUP3 ADD SWAP1 POP PUSH2 0x2F70 PUSH1 0x0 DUP4 ADD DUP7 PUSH2 0x2E78 JUMP JUMPDEST DUP2 DUP2 SUB PUSH1 0x20 DUP4 ADD MSTORE PUSH2 0x2F82 DUP2 DUP6 PUSH2 0x2E9C JUMP JUMPDEST SWAP1 POP PUSH2 0x2F91 PUSH1 0x40 DUP4 ADD DUP5 PUSH2 0x2F4C JUMP JUMPDEST SWAP5 SWAP4 POP POP POP POP JUMP JUMPDEST PUSH1 0x0 PUSH1 0x60 DUP3 ADD SWAP1 POP PUSH2 0x2FAE PUSH1 0x0 DUP4 ADD DUP7 PUSH2 0x2E78 JUMP JUMPDEST DUP2 DUP2 SUB PUSH1 0x20 DUP4 ADD MSTORE PUSH2 0x2FC0 DUP2 DUP6 PUSH2 0x2963 JUMP JUMPDEST SWAP1 POP PUSH2 0x2FCF PUSH1 0x40 DUP4 ADD DUP5 PUSH2 0x2F4C JUMP JUMPDEST SWAP5 SWAP4 POP POP POP POP JUMP JUMPDEST PUSH1 0x0 PUSH1 0x20 DUP3 ADD SWAP1 POP PUSH2 0x2FEC PUSH1 0x0 DUP4 ADD DUP5 PUSH2 0x2E78 JUMP JUMPDEST SWAP3 SWAP2 POP POP JUMP JUMPDEST PUSH32 0x596F752063616E6E6F7420627579207468652073616D652070726F6475637420 PUSH1 0x0 DUP3 ADD MSTORE PUSH32 0x6D6F7265207468616E206F6E6365210000000000000000000000000000000000 PUSH1 0x20 DUP3 ADD MSTORE POP JUMP JUMPDEST PUSH1 0x0 PUSH2 0x304E PUSH1 0x2F DUP4 PUSH2 0x2952 JUMP JUMPDEST SWAP2 POP PUSH2 0x3059 DUP3 PUSH2 0x2FF2 JUMP JUMPDEST PUSH1 0x40 DUP3 ADD SWAP1 POP SWAP2 SWAP1 POP JUMP JUMPDEST PUSH1 0x0 PUSH1 0x20 DUP3 ADD SWAP1 POP DUP2 DUP2 SUB PUSH1 0x0 DUP4 ADD MSTORE PUSH2 0x307D DUP2 PUSH2 0x3041 JUMP JUMPDEST SWAP1 POP SWAP2 SWAP1 POP JUMP JUMPDEST PUSH32 0x4E487B7100000000000000000000000000000000000000000000000000000000 PUSH1 0x0 MSTORE PUSH1 0x11 PUSH1 0x4 MSTORE PUSH1 0x24 PUSH1 0x0 REVERT JUMPDEST PUSH1 0x0 PUSH2 0x30BE DUP3 PUSH2 0x2576 JUMP JUMPDEST SWAP2 POP PUSH1 0x0 DUP3 SUB PUSH2 0x30D1 JUMPI PUSH2 0x30D0 PUSH2 0x3084 JUMP JUMPDEST JUMPDEST PUSH1 0x1 DUP3 SUB SWAP1 POP SWAP2 SWAP1 POP JUMP JUMPDEST PUSH1 0x0 PUSH1 0x40 DUP3 ADD SWAP1 POP PUSH2 0x30F1 PUSH1 0x0 DUP4 ADD DUP6 PUSH2 0x2E78 JUMP JUMPDEST PUSH2 0x30FE PUSH1 0x20 DUP4 ADD DUP5 PUSH2 0x2A0D JUMP JUMPDEST SWAP4 SWAP3 POP POP POP JUMP JUMPDEST PUSH1 0x0 PUSH1 0x20 PUSH1 0x1F DUP4 ADD DIV SWAP1 POP SWAP2 SWAP1 POP JUMP JUMPDEST PUSH1 0x0 DUP3 DUP3 SHL SWAP1 POP SWAP3 SWAP2 POP POP JUMP JUMPDEST PUSH1 0x0 PUSH1 0x8 DUP4 MUL PUSH2 0x3152 PUSH32 0xFFFFFFFFFFFFFFFFFFFFFFFFFFFFFFFFFFFFFFFFFFFFFFFFFFFFFFFFFFFFFFFF DUP3 PUSH2 0x3115 JUMP JUMPDEST PUSH2 0x315C DUP7 DUP4 PUSH2 0x3115 JUMP JUMPDEST SWAP6 POP DUP1 NOT DUP5 AND SWAP4 POP DUP1 DUP7 AND DUP5 OR SWAP3 POP POP POP SWAP4 SWAP3 POP POP POP JUMP JUMPDEST PUSH1 0x0 PUSH2 0x318F PUSH2 0x318A PUSH2 0x3185 DUP5 PUSH2 0x269C JUMP JUMPDEST PUSH2 0x2F20 JUMP JUMPDEST PUSH2 0x269C JUMP JUMPDEST SWAP1 POP SWAP2 SWAP1 POP JUMP JUMPDEST PUSH1 0x0 DUP2 SWAP1 POP SWAP2 SWAP1 POP JUMP JUMPDEST PUSH2 0x31A9 DUP4 PUSH2 0x3174 JUMP JUMPDEST PUSH2 0x31BD PUSH2 0x31B5 DUP3 PUSH2 0x3196 JUMP JUMPDEST DUP5 DUP5 SLOAD PUSH2 0x3122 JUMP JUMPDEST DUP3 SSTORE POP POP POP POP JUMP JUMPDEST PUSH1 0x0 SWAP1 JUMP JUMPDEST PUSH2 0x31D2 PUSH2 0x31C5 JUMP JUMPDEST PUSH2 0x31DD DUP2 DUP5 DUP5 PUSH2 0x31A0 JUMP JUMPDEST POP POP POP JUMP JUMPDEST JUMPDEST DUP2 DUP2 LT ISZERO PUSH2 0x3201 JUMPI PUSH2 0x31F6 PUSH1 0x0 DUP3 PUSH2 0x31CA JUMP JUMPDEST PUSH1 0x1 DUP2 ADD SWAP1 POP PUSH2 0x31E3 JUMP JUMPDEST POP POP JUMP JUMPDEST PUSH1 0x1F DUP3 GT ISZERO PUSH2 0x3246 JUMPI PUSH2 0x3217 DUP2 PUSH2 0x2E87 JUMP JUMPDEST PUSH2 0x3220 DUP5 PUSH2 0x3105 JUMP JUMPDEST DUP2 ADD PUSH1 0x20 DUP6 LT ISZERO PUSH2 0x322F JUMPI DUP2 SWAP1 POP JUMPDEST PUSH2 0x3243 PUSH2 0x323B DUP6 PUSH2 0x3105 JUMP JUMPDEST DUP4 ADD DUP3 PUSH2 0x31E2 JUMP JUMPDEST POP POP JUMPDEST POP POP POP JUMP JUMPDEST PUSH1 0x0 DUP3 DUP3 SHR SWAP1 POP SWAP3 SWAP2 POP POP JUMP JUMPDEST PUSH1 0x0 PUSH2 0x3269 PUSH1 0x0 NOT DUP5 PUSH1 0x8 MUL PUSH2 0x324B JUMP JUMPDEST NOT DUP1 DUP4 AND SWAP2 POP POP SWAP3 SWAP2 POP POP JUMP JUMPDEST PUSH1 0x0 PUSH2 0x3282 DUP4 DUP4 PUSH2 0x3258 JUMP JUMPDEST SWAP2 POP DUP3 PUSH1 0x2 MUL DUP3 OR SWAP1 POP SWAP3 SWAP2 POP POP JUMP JUMPDEST PUSH2 0x329B DUP3 PUSH2 0x24E6 JUMP JUMPDEST PUSH8 0xFFFFFFFFFFFFFFFF DUP2 GT ISZERO PUSH2 0x32B4 JUMPI PUSH2 0x32B3 PUSH2 0x2768 JUMP JUMPDEST JUMPDEST PUSH2 0x32BE DUP3 SLOAD PUSH2 0x2C81 JUMP JUMPDEST PUSH2 0x32C9 DUP3 DUP3 DUP6 PUSH2 0x3205 JUMP JUMPDEST PUSH1 0x0 PUSH1 0x20 SWAP1 POP PUSH1 0x1F DUP4 GT PUSH1 0x1 DUP2 EQ PUSH2 0x32FC JUMPI PUSH1 0x0 DUP5 ISZERO PUSH2 0x32EA JUMPI DUP3 DUP8 ADD MLOAD SWAP1 POP JUMPDEST PUSH2 0x32F4 DUP6 DUP3 PUSH2 0x3276 JUMP JUMPDEST DUP7 SSTORE POP PUSH2 0x335C JUMP JUMPDEST PUSH1 0x1F NOT DUP5 AND PUSH2 0x330A DUP7 PUSH2 0x2E87 JUMP JUMPDEST PUSH1 0x0 JUMPDEST DUP3 DUP2 LT ISZERO PUSH2 0x3332 JUMPI DUP5 DUP10 ADD MLOAD DUP3 SSTORE PUSH1 0x1 DUP3 ADD SWAP2 POP PUSH1 0x20 DUP6 ADD SWAP5 POP PUSH1 0x20 DUP2 ADD SWAP1 POP PUSH2 0x330D JUMP JUMPDEST DUP7 DUP4 LT ISZERO PUSH2 0x334F JUMPI DUP5 DUP10 ADD MLOAD PUSH2 0x334B PUSH1 0x1F DUP10 AND DUP3 PUSH2 0x3258 JUMP JUMPDEST DUP4 SSTORE POP JUMPDEST PUSH1 0x1 PUSH1 0x2 DUP9 MUL ADD DUP9 SSTORE POP POP POP JUMPDEST POP POP POP POP POP POP JUMP JUMPDEST PUSH32 0x536F7272792C20796F7572207265717565737420666F7220726566756E642068 PUSH1 0x0 DUP3 ADD MSTORE PUSH32 0x6173206265656E2064656E6965642E0000000000000000000000000000000000 PUSH1 0x20 DUP3 ADD MSTORE POP JUMP JUMPDEST PUSH1 0x0 PUSH2 0x33C0 PUSH1 0x2F DUP4 PUSH2 0x2952 JUMP JUMPDEST SWAP2 POP PUSH2 0x33CB DUP3 PUSH2 0x3364 JUMP JUMPDEST PUSH1 0x40 DUP3 ADD SWAP1 POP SWAP2 SWAP1 POP JUMP JUMPDEST PUSH1 0x0 PUSH1 0x20 DUP3 ADD SWAP1 POP DUP2 DUP2 SUB PUSH1 0x0 DUP4 ADD MSTORE PUSH2 0x33EF DUP2 PUSH2 0x33B3 JUMP JUMPDEST SWAP1 POP SWAP2 SWAP1 POP JUMP JUMPDEST PUSH32 0x596F7527766520616C72656164792072657475726E656420796F75722070726F PUSH1 0x0 DUP3 ADD MSTORE PUSH32 0x64756374206F72206469646E2774206576656E20626F756768742069742E0000 PUSH1 0x20 DUP3 ADD MSTORE POP JUMP JUMPDEST PUSH1 0x0 PUSH2 0x3452 PUSH1 0x3E DUP4 PUSH2 0x2952 JUMP JUMPDEST SWAP2 POP PUSH2 0x345D DUP3 PUSH2 0x33F6 JUMP JUMPDEST PUSH1 0x40 DUP3 ADD SWAP1 POP SWAP2 SWAP1 POP JUMP JUMPDEST PUSH1 0x0 PUSH1 0x20 DUP3 ADD SWAP1 POP DUP2 DUP2 SUB PUSH1 0x0 DUP4 ADD MSTORE PUSH2 0x3481 DUP2 PUSH2 0x3445 JUMP JUMPDEST SWAP1 POP SWAP2 SWAP1 POP JUMP JUMPDEST PUSH1 0x0 PUSH2 0x3493 DUP3 PUSH2 0x269C JUMP JUMPDEST SWAP2 POP PUSH2 0x349E DUP4 PUSH2 0x269C JUMP JUMPDEST SWAP3 POP DUP3 DUP3 ADD SWAP1 POP DUP1 DUP3 GT ISZERO PUSH2 0x34B6 JUMPI PUSH2 0x34B5 PUSH2 0x3084 JUMP JUMPDEST JUMPDEST SWAP3 SWAP2 POP POP JUMP INVALID LOG2 PUSH5 0x6970667358 0x22 SLT KECCAK256 STATICCALL SELFDESTRUCT DUP4 MLOAD MLOAD 0xA5 0xA8 0xF8 0xE2 0xAD 0xE1 0xE6 GAS 0xE4 0x1E PUSH27 0xCE821FB868CDF7089A3713AEF16A8D3564736F6C634300081C0033 "},"methodIdentifiers":{"addProduct(string,uint16)":"43b72648","buyProduct(uint256)":"8642269e","getAllProducts()":"02ee3a52","getProductBuyersById(uint256)":"ea258772","getProductById(uint256)":"3f70c2b4","getProductByName(string)":"d4290f83","getRefundPolicyNumber()":"6a1d1959","owner()":"8da5cb5b","products(uint256)":"7acc0b20","refundProduct(uint256)":"7274d680","renounceOwnership()":"715018a6","setRefundPolicyNumber(uint8)":"fb8fc184","transferOwnership(address)":"f2fde38b","updateProductQuantity(uint256,uint16)":"c750fc54"}}}}}