{
  "_format": "hh-sol-artifact-1",
  "contractName": "Store",
  "sourceName": "contracts/Store.sol",
  "abi": [
    {
      "inputs": [
        {
          "internalType": "address",
          "name": "owner",
          "type": "address"
        }
      ],
      "name": "OwnableInvalidOwner",
      "type": "error"
    },
    {
      "inputs": [
        {
          "internalType": "address",
          "name": "account",
          "type": "address"
        }
      ],
      "name": "OwnableUnauthorizedAccount",
      "type": "error"
    },
    {
      "anonymous": false,
      "inputs": [
        {
          "indexed": true,
          "internalType": "address",
          "name": "previousOwner",
          "type": "address"
        },
        {
          "indexed": true,
          "internalType": "address",
          "name": "newOwner",
          "type": "address"
        }
      ],
      "name": "OwnershipTransferred",
      "type": "event"
    },
    {
      "anonymous": false,
      "inputs": [
        {
          "indexed": false,
          "internalType": "uint256",
          "name": "id",
          "type": "uint256"
        },
        {
          "indexed": false,
          "internalType": "string",
          "name": "name",
          "type": "string"
        },
        {
          "indexed": false,
          "internalType": "uint256",
          "name": "quantity",
          "type": "uint256"
        }
      ],
      "name": "ProductAdded",
      "type": "event"
    },
    {
      "anonymous": false,
      "inputs": [
        {
          "indexed": false,
          "internalType": "uint256",
          "name": "id",
          "type": "uint256"
        },
        {
          "indexed": false,
          "internalType": "address",
          "name": "buyer",
          "type": "address"
        }
      ],
      "name": "ProductBought",
      "type": "event"
    },
    {
      "anonymous": false,
      "inputs": [
        {
          "indexed": false,
          "internalType": "uint256",
          "name": "id",
          "type": "uint256"
        }
      ],
      "name": "ProductRefund",
      "type": "event"
    },
    {
      "anonymous": false,
      "inputs": [
        {
          "indexed": false,
          "internalType": "uint256",
          "name": "id",
          "type": "uint256"
        },
        {
          "indexed": false,
          "internalType": "string",
          "name": "name",
          "type": "string"
        },
        {
          "indexed": false,
          "internalType": "uint256",
          "name": "quantity",
          "type": "uint256"
        }
      ],
      "name": "ProductUpdated",
      "type": "event"
    },
    {
      "inputs": [
        {
          "internalType": "string",
          "name": "name",
          "type": "string"
        },
        {
          "internalType": "uint16",
          "name": "quantity",
          "type": "uint16"
        }
      ],
      "name": "addProduct",
      "outputs": [],
      "stateMutability": "nonpayable",
      "type": "function"
    },
    {
      "inputs": [
        {
          "internalType": "uint256",
          "name": "id",
          "type": "uint256"
        }
      ],
      "name": "buyProduct",
      "outputs": [],
      "stateMutability": "nonpayable",
      "type": "function"
    },
    {
      "inputs": [],
      "name": "getAllProducts",
      "outputs": [
        {
          "components": [
            {
              "internalType": "string",
              "name": "name",
              "type": "string"
            },
            {
              "internalType": "uint16",
              "name": "quantity",
              "type": "uint16"
            }
          ],
          "internalType": "struct StoreBase.Product[]",
          "name": "",
          "type": "tuple[]"
        }
      ],
      "stateMutability": "view",
      "type": "function"
    },
    {
      "inputs": [
        {
          "internalType": "uint256",
          "name": "id",
          "type": "uint256"
        }
      ],
      "name": "getProductBuyersById",
      "outputs": [
        {
          "internalType": "address[]",
          "name": "",
          "type": "address[]"
        }
      ],
      "stateMutability": "view",
      "type": "function"
    },
    {
      "inputs": [
        {
          "internalType": "uint256",
          "name": "id",
          "type": "uint256"
        }
      ],
      "name": "getProductById",
      "outputs": [
        {
          "components": [
            {
              "internalType": "string",
              "name": "name",
              "type": "string"
            },
            {
              "internalType": "uint16",
              "name": "quantity",
              "type": "uint16"
            }
          ],
          "internalType": "struct StoreBase.Product",
          "name": "",
          "type": "tuple"
        }
      ],
      "stateMutability": "view",
      "type": "function"
    },
    {
      "inputs": [
        {
          "internalType": "string",
          "name": "name",
          "type": "string"
        }
      ],
      "name": "getProductByName",
      "outputs": [
        {
          "components": [
            {
              "internalType": "string",
              "name": "name",
              "type": "string"
            },
            {
              "internalType": "uint16",
              "name": "quantity",
              "type": "uint16"
            }
          ],
          "internalType": "struct StoreBase.Product",
          "name": "",
          "type": "tuple"
        }
      ],
      "stateMutability": "view",
      "type": "function"
    },
    {
      "inputs": [],
      "name": "getRefundPolicyNumber",
      "outputs": [
        {
          "internalType": "uint8",
          "name": "",
          "type": "uint8"
        }
      ],
      "stateMutability": "view",
      "type": "function"
    },
    {
      "inputs": [],
      "name": "owner",
      "outputs": [
        {
          "internalType": "address",
          "name": "",
          "type": "address"
        }
      ],
      "stateMutability": "view",
      "type": "function"
    },
    {
      "inputs": [
        {
          "internalType": "uint256",
          "name": "",
          "type": "uint256"
        }
      ],
      "name": "products",
      "outputs": [
        {
          "internalType": "string",
          "name": "name",
          "type": "string"
        },
        {
          "internalType": "uint16",
          "name": "quantity",
          "type": "uint16"
        }
      ],
      "stateMutability": "view",
      "type": "function"
    },
    {
      "inputs": [
        {
          "internalType": "uint256",
          "name": "id",
          "type": "uint256"
        }
      ],
      "name": "refundProduct",
      "outputs": [],
      "stateMutability": "nonpayable",
      "type": "function"
    },
    {
      "inputs": [],
      "name": "renounceOwnership",
      "outputs": [],
      "stateMutability": "nonpayable",
      "type": "function"
    },
    {
      "inputs": [
        {
          "internalType": "uint8",
          "name": "blockNumber",
          "type": "uint8"
        }
      ],
      "name": "setRefundPolicyNumber",
      "outputs": [],
      "stateMutability": "nonpayable",
      "type": "function"
    },
    {
      "inputs": [
        {
          "internalType": "address",
          "name": "newOwner",
          "type": "address"
        }
      ],
      "name": "transferOwnership",
      "outputs": [],
      "stateMutability": "nonpayable",
      "type": "function"
    },
    {
      "inputs": [
        {
          "internalType": "uint256",
          "name": "id",
          "type": "uint256"
        },
        {
          "internalType": "uint16",
          "name": "quantity",
          "type": "uint16"
        }
      ],
      "name": "updateProductQuantity",
      "outputs": [],
      "stateMutability": "nonpayable",
      "type": "function"
    }
  ],
  "bytecode": "0x60806040526064600060146101000a81548160ff021916908360ff16021790555034801561002c57600080fd5b5033600073ffffffffffffffffffffffffffffffffffffffff168173ffffffffffffffffffffffffffffffffffffffff16036100a05760006040517f1e4fbdf700000000000000000000000000000000000000000000000000000000815260040161009791906101d7565b60405180910390fd5b6100af816100cf60201b60201c565b506100ca6728fcb98e85d6998860c01b61019360201b60201c565b6101f2565b60008060009054906101000a900473ffffffffffffffffffffffffffffffffffffffff169050816000806101000a81548173ffffffffffffffffffffffffffffffffffffffff021916908373ffffffffffffffffffffffffffffffffffffffff1602179055508173ffffffffffffffffffffffffffffffffffffffff168173ffffffffffffffffffffffffffffffffffffffff167f8be0079c531659141344cd1fd0a4f28419497f9722a3daafe3b4186f6b6457e060405160405180910390a35050565b50565b600073ffffffffffffffffffffffffffffffffffffffff82169050919050565b60006101c182610196565b9050919050565b6101d1816101b6565b82525050565b60006020820190506101ec60008301846101c8565b92915050565b6134f2806102016000396000f3fe608060405234801561001057600080fd5b50600436106100ea5760003560e01c80638642269e1161008c578063d4290f8311610066578063d4290f8314610224578063ea25877214610254578063f2fde38b14610284578063fb8fc184146102a0576100ea565b80638642269e146101ce5780638da5cb5b146101ea578063c750fc5414610208576100ea565b80636a1d1959116100c85780636a1d195914610159578063715018a6146101775780637274d680146101815780637acc0b201461019d576100ea565b806302ee3a52146100ef5780633f70c2b41461010d57806343b726481461013d575b600080fd5b6100f76102bc565b6040516101049190612666565b60405180910390f35b610127600480360381019061012291906126d2565b610409565b604051610134919061273c565b60405180910390f35b610157600480360381019061015291906128bf565b61064c565b005b610161610b15565b60405161016e9190612937565b60405180910390f35b61017f610b68565b005b61019b600480360381019061019691906126d2565b610b7c565b005b6101b760048036038101906101b291906126d2565b610d8c565b6040516101c59291906129ab565b60405180910390f35b6101e860048036038101906101e391906126d2565b610e56565b005b6101f261129d565b6040516101ff9190612a1c565b60405180910390f35b610222600480360381019061021d9190612a37565b6112c6565b005b61023e60048036038101906102399190612a77565b6114f2565b60405161024b919061273c565b60405180910390f35b61026e600480360381019061026991906126d2565b611866565b60405161027b9190612b7e565b60405180910390f35b61029e60048036038101906102999190612bcc565b611a2e565b005b6102ba60048036038101906102b59190612c25565b611ab4565b005b60606102d267c3cc3b53691edf4060c01b611b2a565b6102e6676a590bc8840fc6b560c01b611b2a565b6102fa67e0d1caab076cc7ab60c01b611b2a565b6001805480602002602001604051908101604052809291908181526020016000905b82821015610400578382906000526020600020906002020160405180604001604052908160008201805461034f90612c81565b80601f016020809104026020016040519081016040528092919081815260200182805461037b90612c81565b80156103c85780601f1061039d576101008083540402835291602001916103c8565b820191906000526020600020905b8154815290600101906020018083116103ab57829003601f168201915b505050505081526020016001820160009054906101000a900461ffff1661ffff1661ffff16815250508152602001906001019061031c565b50505050905090565b61041161249c565b610425673242bc8e47ef74a260c01b611b2a565b81600180549050610440670c129d2f13d9076f60c01b611b2d565b61045467588a5de3abccfae260c01b611b2d565b61046867d2dc63e69e651c2f60c01b611b2d565b61047c677e7e32f2edfaed1560c01b611b2d565b8082106104be576040517f08c379a00000000000000000000000000000000000000000000000000000000081526004016104b590612cfe565b60405180910390fd5b6104d2670f5bbbf16de3c4e160c01b611b2d565b6104e66774fa6d135aa12a0a60c01b611b2d565b6104fa676365072a9a7d18d660c01b611b2a565b61050e67133f274dd43f81e460c01b611b2a565b61052267a90ff54cc408e1e260c01b611b2a565b61053667afafd8a281b7f6d360c01b611b2a565b60006001858154811061054c5761054b612d1e565b5b906000526020600020906002020190506105706704bddbb13052626860c01b611b2a565b61058467ba3638052381ba1d60c01b611b2a565b806040518060400160405290816000820180546105a090612c81565b80601f01602080910402602001604051908101604052809291908181526020018280546105cc90612c81565b80156106195780601f106105ee57610100808354040283529160200191610619565b820191906000526020600020905b8154815290600101906020018083116105fc57829003601f168201915b505050505081526020016001820160009054906101000a900461ffff1661ffff1661ffff16815250509350505050919050565b610660677e600eef8613e78260c01b611b2a565b610668611b30565b61067c67b9e8a4b3021abcf460c01b611b2a565b6106906789f4a138cbf7400c60c01b611b2a565b806106a567af17fb77a15f41d460c01b611b2d565b6106b967edae4ce289dcbde860c01b611b2d565b6106cd673fe946463747dd3560c01b611b2d565b6106e167fbb6bb1ea9053ddb60c01b611b2d565b60008161ffff1611610728576040517f08c379a000000000000000000000000000000000000000000000000000000000815260040161071f90612d99565b60405180910390fd5b61073c67b42f36a6d47ed78560c01b611b2d565b6107506786c8a3260bc67d5860c01b611b2d565b6107646716ad24b57d274c0760c01b611b2a565b61077867d4cbbe2b35607ca960c01b611b2a565b8261078d672c8f3fafbd7f37df60c01b611bb7565b6107a1674d4bc13593d1875d60c01b611bb7565b6107b567ff728968fba1492b60c01b611bb7565b6107c9673fe030f35b97b41b60c01b611bb7565b600081510361080d576040517f08c379a000000000000000000000000000000000000000000000000000000000815260040161080490612e05565b60405180910390fd5b6108216718b841561badcc4d60c01b611bb7565b6108356758c19fdda98653b660c01b611bb7565b61084967030ead4276ff86d560c01b611b2a565b61085d677282521a16bd65b960c01b611b2a565b61087167d783ee37b8d045ea60c01b611b2a565b610885678df50b868dd68cf860c01b611b2a565b6000806003866040516108989190612e61565b908152602001604051809103902060000180546108b490612c81565b90501190506108cd673678bb2448195f9660c01b611b2a565b6108e167b3039ea9d0bcdb4560c01b611b2a565b6000600260006108f088611bba565b815260200190815260200160002054905061091567a84c89c6f8b5c04160c01b611b2a565b6109296712886f9e7a73313560c01b611b2a565b8115610a415761094367035fb3c6b0691fb160c01b611b2a565b61095767fb3b0b1c84e81fbf60c01b611b2a565b61096b67f4e2f0c7e88699e960c01b611b2a565b60006001828154811061098157610980612d1e565b5b906000526020600020906002020190506109a567ae3751d68f51bf3c60c01b611b2a565b6109b967dfe869915b26ba8e60c01b611b2a565b6109c38287611c26565b6109d767524e8c6a52d044b360c01b611b2a565b6109eb676c3546bf6763d53460c01b611b2a565b7ff9b1d9170fbe32752353e00d62e5276b143166c75aa974030dddfac2895601fe82826000018360010160009054906101000a900461ffff16604051610a3393929190612f5b565b60405180910390a150610b0d565b610a55675af95e7740e34f9460c01b611b2a565b610a6967ecbc8f9817a7caef60c01b611b2a565b6001805490509050610a856769b67fb43a68bec660c01b611b2a565b610a9967b70f899a97563b1760c01b611b2a565b610aa96001805490508787611c92565b610abd677ca73306fd25653460c01b611b2a565b610ad167cc45e85999d8153760c01b611b2a565b7fcca07c742c5274e8b72111ba69566aa4442450bfc50bd897ea38d0170d1accfc818787604051610b0493929190612f99565b60405180910390a15b505050505050565b6000610b2b67bb6ecf44e791ce6c60c01b611b2a565b610b3f672ebd1f68c83752a660c01b611b2a565b610b536769076bc0b210c38d60c01b611b2a565b600060149054906101000a900460ff16905090565b610b70611b30565b610b7a6000611e51565b565b610b90673bc1f72e1974426360c01b611b2a565b80600180549050610bab670c129d2f13d9076f60c01b611b2d565b610bbf67588a5de3abccfae260c01b611b2d565b610bd367d2dc63e69e651c2f60c01b611b2d565b610be7677e7e32f2edfaed1560c01b611b2d565b808210610c29576040517f08c379a0000000000000000000000000000000000000000000000000000000008152600401610c2090612cfe565b60405180910390fd5b610c3d670f5bbbf16de3c4e160c01b611b2d565b610c516774fa6d135aa12a0a60c01b611b2d565b610c65673446a75aef46ef4260c01b611b2a565b610c7967e90985c3fa04324060c01b611b2a565b610c8d67c7942e749d68a54860c01b611b2a565b610ca167461e1b569ebcc5d860c01b611b2a565b6000339050610cba67155d9f8f0ca82bee60c01b611b2a565b610cce67729454dec3e54a0260c01b611b2a565b610cd88482611f15565b610cec67b2c3da4bc4092d1760c01b611b2a565b610d0067d6987e9bddfc0b1060c01b611b2a565b600060018581548110610d1657610d15612d1e565b5b90600052602060002090600202019050610d3a67409905f505cca4ce60c01b611b2a565b610d4e67d271e3ca19390c4760c01b611b2a565b7f21b68a0c4ac2beb4bede4a50169cdeeeaff19097e416463da0524864702ffe4485604051610d7d9190612fd7565b60405180910390a15050505050565b60018181548110610d9c57600080fd5b9060005260206000209060020201600091509050806000018054610dbf90612c81565b80601f0160208091040260200160405190810160405280929190818152602001828054610deb90612c81565b8015610e385780601f10610e0d57610100808354040283529160200191610e38565b820191906000526020600020905b815481529060010190602001808311610e1b57829003601f168201915b5050505050908060010160009054906101000a900461ffff16905082565b610e6a67cf8835c1a6ba33c760c01b611b2a565b60018181548110610e7e57610e7d612d1e565b5b906000526020600020906002020160010160009054906101000a900461ffff16610eb267af17fb77a15f41d460c01b611b2d565b610ec667edae4ce289dcbde860c01b611b2d565b610eda673fe946463747dd3560c01b611b2d565b610eee67fbb6bb1ea9053ddb60c01b611b2d565b60008161ffff1611610f35576040517f08c379a0000000000000000000000000000000000000000000000000000000008152600401610f2c90612d99565b60405180910390fd5b610f4967b42f36a6d47ed78560c01b611b2d565b610f5d6786c8a3260bc67d5860c01b611b2d565b610f7167ed680c5d989cbcea60c01b611b2a565b610f856799b588c8f986b7cf60c01b611b2a565b81600180549050610fa0670c129d2f13d9076f60c01b611b2d565b610fb467588a5de3abccfae260c01b611b2d565b610fc867d2dc63e69e651c2f60c01b611b2d565b610fdc677e7e32f2edfaed1560c01b611b2d565b80821061101e576040517f08c379a000000000000000000000000000000000000000000000000000000000815260040161101590612cfe565b60405180910390fd5b611032670f5bbbf16de3c4e160c01b611b2d565b6110466774fa6d135aa12a0a60c01b611b2d565b61105a67ee51ec5ba2feb5fc60c01b611b2a565b61106e676d499af3c259af0460c01b611b2a565b611082679bce114ac887f24260c01b611b2a565b611096679c341989d802118660c01b611b2a565b60003390506110af6733965f2b140c0e4560c01b611b2a565b6110c367b7515578175b9b7960c01b611b2a565b6000600186815481106110d9576110d8612d1e565b5b906000526020600020906002020190506110fd6761a2d5830189ac2860c01b611b2a565b611111679bbdf999cc2ac1eb60c01b611b2a565b600061111d87846121be565b9050611133675ce55882524d5e1360c01b611b2a565b61114767e70863adf584932560c01b611b2a565b61115b675ab4820a180877af60c01b611b2a565b801561119c576040517f08c379a000000000000000000000000000000000000000000000000000000000815260040161119390613064565b60405180910390fd5b6111b0676690538d6a6a606960c01b611b2a565b6111c467e7337bb86f98169960c01b611b2a565b6111d867c2a2e09c890a542360c01b611b2a565b6111e28784612258565b6111f667ae13dcd08a501dd960c01b611b2a565b81600101600081819054906101000a900461ffff1680929190611218906130b3565b91906101000a81548161ffff021916908361ffff16021790555050611247672c9090ce484070ae60c01b611b2a565b61125b67cde9dc3fc237d52f60c01b611b2a565b7f60751e87ab3312710ec7d4da85ea804d0813ca2cb843a75cc23c672e1bd3954a878460405161128c9291906130dc565b60405180910390a150505050505050565b60008060009054906101000a900473ffffffffffffffffffffffffffffffffffffffff16905090565b6112da6770639230eeb7839660c01b611b2a565b6112e2611b30565b6112f667ec2ab5bc374672f760c01b611b2a565b61130a67fa0f978f4a9e1f5f60c01b611b2a565b81600180549050611325670c129d2f13d9076f60c01b611b2d565b61133967588a5de3abccfae260c01b611b2d565b61134d67d2dc63e69e651c2f60c01b611b2d565b611361677e7e32f2edfaed1560c01b611b2d565b8082106113a3576040517f08c379a000000000000000000000000000000000000000000000000000000000815260040161139a90612cfe565b60405180910390fd5b6113b7670f5bbbf16de3c4e160c01b611b2d565b6113cb6774fa6d135aa12a0a60c01b611b2d565b6113df6760e19e3e325e256c60c01b611b2a565b6113f36713e7a8805beb28dd60c01b611b2a565b61140767c39c9d33a2aad05460c01b611b2a565b61141b67e3ee00b8764718d060c01b611b2a565b6114258484611c26565b61143967f7a1f83cce8710c760c01b611b2a565b61144d67cb7eddb32c1b8e5960c01b611b2a565b60006001858154811061146357611462612d1e565b5b906000526020600020906002020190506114876797662dc8b8c0084060c01b611b2a565b61149b67801c237755ca468160c01b611b2a565b7ff9b1d9170fbe32752353e00d62e5276b143166c75aa974030dddfac2895601fe85826000018360010160009054906101000a900461ffff166040516114e393929190612f5b565b60405180910390a15050505050565b6114fa61249c565b61150e677b37c3210993ebff60c01b611b2a565b81611523672c8f3fafbd7f37df60c01b611bb7565b611537674d4bc13593d1875d60c01b611bb7565b61154b67ff728968fba1492b60c01b611bb7565b61155f673fe030f35b97b41b60c01b611bb7565b60008151036115a3576040517f08c379a000000000000000000000000000000000000000000000000000000000815260040161159a90612e05565b60405180910390fd5b6115b76718b841561badcc4d60c01b611bb7565b6115cb6758c19fdda98653b660c01b611bb7565b6115df67caeab94d5b50650a60c01b611b2a565b6115f367b608677990c585e560c01b611b2a565b61160767c4fbda611827702a60c01b611b2a565b61161b67600eec752330f8b060c01b611b2a565b60008060038560405161162e9190612e61565b9081526020016040518091039020600001805461164a90612c81565b905011905061166367c34925a565e1fd2a60c01b611b2a565b61167767bdb8afd713e55ef060c01b611b2a565b61168b67124ec6e5104cd12e60c01b611b2a565b806116cb576040517f08c379a00000000000000000000000000000000000000000000000000000000081526004016116c290612cfe565b60405180910390fd5b6116df67fa97148b8a14aa6560c01b611b2a565b6116f367cb0af0d0bcebc53260c01b611b2a565b61170767573ceb823e2b713560c01b611b2a565b60006002600061171687611bba565b815260200190815260200160002054905061173b67474d2489639307c160c01b611b2a565b61174f67b174bb47f818f9d360c01b611b2a565b60006001828154811061176557611764612d1e565b5b9060005260206000209060020201905061178967c0883c441898447860c01b611b2a565b61179d67e48c71f57d0054d360c01b611b2a565b806040518060400160405290816000820180546117b990612c81565b80601f01602080910402602001604051908101604052809291908181526020018280546117e590612c81565b80156118325780601f1061180757610100808354040283529160200191611832565b820191906000526020600020905b81548152906001019060200180831161181557829003601f168201915b505050505081526020016001820160009054906101000a900461ffff1661ffff1661ffff1681525050945050505050919050565b606061187c6712a27165f0e38aa660c01b611b2a565b81600180549050611897670c129d2f13d9076f60c01b611b2d565b6118ab67588a5de3abccfae260c01b611b2d565b6118bf67d2dc63e69e651c2f60c01b611b2d565b6118d3677e7e32f2edfaed1560c01b611b2d565b808210611915576040517f08c379a000000000000000000000000000000000000000000000000000000000815260040161190c90612cfe565b60405180910390fd5b611929670f5bbbf16de3c4e160c01b611b2d565b61193d6774fa6d135aa12a0a60c01b611b2d565b6119516759ef67489571444560c01b611b2a565b611965679254ee2941367e7060c01b611b2a565b61197967db88acf85cc7cefa60c01b611b2a565b61198d678a4b3400e8b80d9260c01b611b2a565b60056000858152602001908152602001600020805480602002602001604051908101604052809291908181526020018280548015611a2057602002820191906000526020600020905b8160009054906101000a900473ffffffffffffffffffffffffffffffffffffffff1673ffffffffffffffffffffffffffffffffffffffff16815260200190600101908083116119d6575b505050505092505050919050565b611a36611b30565b600073ffffffffffffffffffffffffffffffffffffffff168173ffffffffffffffffffffffffffffffffffffffff1603611aa85760006040517f1e4fbdf7000000000000000000000000000000000000000000000000000000008152600401611a9f9190612a1c565b60405180910390fd5b611ab181611e51565b50565b611ac867d3a7a4306027e22660c01b611b2a565b611ad0611b30565b611ae46757adc9aad697cc8260c01b611b2a565b611af867d4b1a78c4c512ee060c01b611b2a565b611b0c67e3a1281a041e02d960c01b611b2a565b80600060146101000a81548160ff021916908360ff16021790555050565b50565b50565b611b386123a3565b73ffffffffffffffffffffffffffffffffffffffff16611b5661129d565b73ffffffffffffffffffffffffffffffffffffffff1614611bb557611b796123a3565b6040517f118cdaa7000000000000000000000000000000000000000000000000000000008152600401611bac9190612a1c565b60405180910390fd5b565b50565b6000611bd0672469deba75a398e360c01b6123ab565b611be4677f39060a86bf2ebe60c01b6123ab565b611bf867ed303bcb4984edcc60c01b6123ab565b81604051602001611c099190612e61565b604051602081830303815290604052805190602001209050919050565b611c3a676db27cae1bbc6d0960c01b6123ab565b611c4e67a553512dca658c6c60c01b6123ab565b8060018381548110611c6357611c62612d1e565b5b906000526020600020906002020160010160006101000a81548161ffff021916908361ffff1602179055505050565b611ca667e4fe01f1fb44776e60c01b6123ab565b611cba679f4b720286b6719e60c01b6123ab565b611cce6787c0cff45a6145d860c01b6123ab565b600060405180604001604052808481526020018361ffff168152509050611cff67950e110863a6259360c01b6123ab565b611d13675daadc55c322e4ba60c01b6123ab565b6000611d1e84611bba565b9050611d34676d75339ad7a53ea860c01b6123ab565b846002600083815260200190815260200160002081905550611d6067aa9b382436c07d8b60c01b6123ab565b611d746759abf790b06614cd60c01b6123ab565b60018290806001815401808255809150506001900390600052602060002090600202016000909190919091506000820151816000019081611db59190613292565b5060208201518160010160006101000a81548161ffff021916908361ffff1602179055505050611def67223dd2b0ff10919e60c01b6123ab565b81600385604051611e009190612e61565b90815260200160405180910390206000820151816000019081611e239190613292565b5060208201518160010160006101000a81548161ffff021916908361ffff1602179055509050505050505050565b60008060009054906101000a900473ffffffffffffffffffffffffffffffffffffffff169050816000806101000a81548173ffffffffffffffffffffffffffffffffffffffff021916908373ffffffffffffffffffffffffffffffffffffffff1602179055508173ffffffffffffffffffffffffffffffffffffffff168173ffffffffffffffffffffffffffffffffffffffff167f8be0079c531659141344cd1fd0a4f28419497f9722a3daafe3b4186f6b6457e060405160405180910390a35050565b611f2967afda2809af9f9c4960c01b6123ab565b611f3d676c6eb4f2c9e4b74b60c01b6123ab565b611f5167e20516cfc1a86bb260c01b6123ab565b600080600460008473ffffffffffffffffffffffffffffffffffffffff1673ffffffffffffffffffffffffffffffffffffffff16815260200190815260200160002060008581526020019081526020016000205414159050611fbd67ba5c003d22642c8960c01b6123ab565b611fd167446b6a4b0eac468360c01b6123ab565b600061202c600460008573ffffffffffffffffffffffffffffffffffffffff1673ffffffffffffffffffffffffffffffffffffffff1681526020019081526020016000206000868152602001908152602001600020546123ae565b90506120426714f244dc3fbd47ea60c01b6123ab565b6120566738aa906344be32f560c01b6123ab565b61206a677ddd2fa23b78653b60c01b6123ab565b806120aa576040517f08c379a00000000000000000000000000000000000000000000000000000000081526004016120a1906133d6565b60405180910390fd5b6120be67b0bb735795bcaa2160c01b6123ab565b6120d267813c590de779351060c01b6123ab565b6120e667044f32eb0598381460c01b6123ab565b6120fa67547fcda18963b29460c01b6123ab565b8161213a576040517f08c379a000000000000000000000000000000000000000000000000000000000815260040161213190613468565b60405180910390fd5b61214e677ffaca93fcd9a69160c01b6123ab565b61216267efc5c04924008e1260c01b6123ab565b6000600460008573ffffffffffffffffffffffffffffffffffffffff1673ffffffffffffffffffffffffffffffffffffffff16815260200190815260200160002060008681526020019081526020016000208190555050505050565b60006121d4679098097f918742ac60c01b6123ab565b6121e867d0307d11c9c4de4160c01b6123ab565b6121fc67018c8cc009e2c05460c01b6123ab565b6000600460008473ffffffffffffffffffffffffffffffffffffffff1673ffffffffffffffffffffffffffffffffffffffff16815260200190815260200160002060008581526020019081526020016000205411905092915050565b61226c673856248856c584c060c01b6123ab565b6122806768c5f2cee479390360c01b6123ab565b61229467e42924d08a53916160c01b6123ab565b60004390506122ad676d00c7511955bc1260c01b6123ab565b80600460008473ffffffffffffffffffffffffffffffffffffffff1673ffffffffffffffffffffffffffffffffffffffff168152602001908152602001600020600085815260200190815260200160002081905550612316676f0ac7b490d826db60c01b6123ab565b61232a674b77aa327b27c1d960c01b6123ab565b60056000848152602001908152602001600020829080600181540180825580915050600190039060005260206000200160009091909190916101000a81548173ffffffffffffffffffffffffffffffffffffffff021916908373ffffffffffffffffffffffffffffffffffffffff160217905550505050565b600033905090565b50565b60006123c46771b86a670d7e7be460c01b6123ab565b6123d867272f838950e92cc060c01b6123ab565b6123ec674f4b8fd0458f687f60c01b6123ab565b43600060149054906101000a900460ff1660ff168361240b9190613488565b111561245657612425677d89bbc908598d8b60c01b6123ab565b612439674c1e74ece7041f8e60c01b6123ab565b61244d67d42ae1c49cb012ef60c01b6123ab565b60019050612497565b61246a67e18dc71f9927aaa760c01b6123ab565b61247e67d27b5e8ed874773160c01b6123ab565b61249267fa86729c24a0390360c01b6123ab565b600090505b919050565b604051806040016040528060608152602001600061ffff1681525090565b600081519050919050565b600082825260208201905092915050565b6000819050602082019050919050565b600081519050919050565b600082825260208201905092915050565b60005b83811015612520578082015181840152602081019050612505565b60008484015250505050565b6000601f19601f8301169050919050565b6000612548826124e6565b61255281856124f1565b9350612562818560208601612502565b61256b8161252c565b840191505092915050565b600061ffff82169050919050565b61258d81612576565b82525050565b600060408301600083015184820360008601526125b0828261253d565b91505060208301516125c56020860182612584565b508091505092915050565b60006125dc8383612593565b905092915050565b6000602082019050919050565b60006125fc826124ba565b61260681856124c5565b935083602082028501612618856124d6565b8060005b85811015612654578484038952815161263585826125d0565b9450612640836125e4565b925060208a0199505060018101905061261c565b50829750879550505050505092915050565b6000602082019050818103600083015261268081846125f1565b905092915050565b6000604051905090565b600080fd5b600080fd5b6000819050919050565b6126af8161269c565b81146126ba57600080fd5b50565b6000813590506126cc816126a6565b92915050565b6000602082840312156126e8576126e7612692565b5b60006126f6848285016126bd565b91505092915050565b6000604083016000830151848203600086015261271c828261253d565b91505060208301516127316020860182612584565b508091505092915050565b6000602082019050818103600083015261275681846126ff565b905092915050565b600080fd5b600080fd5b7f4e487b7100000000000000000000000000000000000000000000000000000000600052604160045260246000fd5b6127a08261252c565b810181811067ffffffffffffffff821117156127bf576127be612768565b5b80604052505050565b60006127d2612688565b90506127de8282612797565b919050565b600067ffffffffffffffff8211156127fe576127fd612768565b5b6128078261252c565b9050602081019050919050565b82818337600083830152505050565b6000612836612831846127e3565b6127c8565b90508281526020810184848401111561285257612851612763565b5b61285d848285612814565b509392505050565b600082601f83011261287a5761287961275e565b5b813561288a848260208601612823565b91505092915050565b61289c81612576565b81146128a757600080fd5b50565b6000813590506128b981612893565b92915050565b600080604083850312156128d6576128d5612692565b5b600083013567ffffffffffffffff8111156128f4576128f3612697565b5b61290085828601612865565b9250506020612911858286016128aa565b9150509250929050565b600060ff82169050919050565b6129318161291b565b82525050565b600060208201905061294c6000830184612928565b92915050565b600082825260208201905092915050565b600061296e826124e6565b6129788185612952565b9350612988818560208601612502565b6129918161252c565b840191505092915050565b6129a581612576565b82525050565b600060408201905081810360008301526129c58185612963565b90506129d4602083018461299c565b9392505050565b600073ffffffffffffffffffffffffffffffffffffffff82169050919050565b6000612a06826129db565b9050919050565b612a16816129fb565b82525050565b6000602082019050612a316000830184612a0d565b92915050565b60008060408385031215612a4e57612a4d612692565b5b6000612a5c858286016126bd565b9250506020612a6d858286016128aa565b9150509250929050565b600060208284031215612a8d57612a8c612692565b5b600082013567ffffffffffffffff811115612aab57612aaa612697565b5b612ab784828501612865565b91505092915050565b600081519050919050565b600082825260208201905092915050565b6000819050602082019050919050565b612af5816129fb565b82525050565b6000612b078383612aec565b60208301905092915050565b6000602082019050919050565b6000612b2b82612ac0565b612b358185612acb565b9350612b4083612adc565b8060005b83811015612b71578151612b588882612afb565b9750612b6383612b13565b925050600181019050612b44565b5085935050505092915050565b60006020820190508181036000830152612b988184612b20565b905092915050565b612ba9816129fb565b8114612bb457600080fd5b50565b600081359050612bc681612ba0565b92915050565b600060208284031215612be257612be1612692565b5b6000612bf084828501612bb7565b91505092915050565b612c028161291b565b8114612c0d57600080fd5b50565b600081359050612c1f81612bf9565b92915050565b600060208284031215612c3b57612c3a612692565b5b6000612c4984828501612c10565b91505092915050565b7f4e487b7100000000000000000000000000000000000000000000000000000000600052602260045260246000fd5b60006002820490506001821680612c9957607f821691505b602082108103612cac57612cab612c52565b5b50919050565b7f546869732070726f6475637420646f6573206e6f742065786973742100000000600082015250565b6000612ce8601c83612952565b9150612cf382612cb2565b602082019050919050565b60006020820190508181036000830152612d1781612cdb565b9050919050565b7f4e487b7100000000000000000000000000000000000000000000000000000000600052603260045260246000fd5b7f5175616e746974792063616e2774206265203021000000000000000000000000600082015250565b6000612d83601483612952565b9150612d8e82612d4d565b602082019050919050565b60006020820190508181036000830152612db281612d76565b9050919050565b7f596f75206861766520746f20656e7465722061206e616d652100000000000000600082015250565b6000612def601983612952565b9150612dfa82612db9565b602082019050919050565b60006020820190508181036000830152612e1e81612de2565b9050919050565b600081905092915050565b6000612e3b826124e6565b612e458185612e25565b9350612e55818560208601612502565b80840191505092915050565b6000612e6d8284612e30565b915081905092915050565b612e818161269c565b82525050565b60008190508160005260206000209050919050565b60008154612ea981612c81565b612eb38186612952565b94506001821660008114612ece5760018114612ee457612f17565b60ff198316865281151560200286019350612f17565b612eed85612e87565b60005b83811015612f0f57815481890152600182019150602081019050612ef0565b808801955050505b50505092915050565b6000819050919050565b6000612f45612f40612f3b84612576565b612f20565b61269c565b9050919050565b612f5581612f2a565b82525050565b6000606082019050612f706000830186612e78565b8181036020830152612f828185612e9c565b9050612f916040830184612f4c565b949350505050565b6000606082019050612fae6000830186612e78565b8181036020830152612fc08185612963565b9050612fcf6040830184612f4c565b949350505050565b6000602082019050612fec6000830184612e78565b92915050565b7f596f752063616e6e6f7420627579207468652073616d652070726f647563742060008201527f6d6f7265207468616e206f6e6365210000000000000000000000000000000000602082015250565b600061304e602f83612952565b915061305982612ff2565b604082019050919050565b6000602082019050818103600083015261307d81613041565b9050919050565b7f4e487b7100000000000000000000000000000000000000000000000000000000600052601160045260246000fd5b60006130be82612576565b9150600082036130d1576130d0613084565b5b600182039050919050565b60006040820190506130f16000830185612e78565b6130fe6020830184612a0d565b9392505050565b60006020601f8301049050919050565b600082821b905092915050565b6000600883026131527fffffffffffffffffffffffffffffffffffffffffffffffffffffffffffffffff82613115565b61315c8683613115565b95508019841693508086168417925050509392505050565b600061318f61318a6131858461269c565b612f20565b61269c565b9050919050565b6000819050919050565b6131a983613174565b6131bd6131b582613196565b848454613122565b825550505050565b600090565b6131d26131c5565b6131dd8184846131a0565b505050565b5b81811015613201576131f66000826131ca565b6001810190506131e3565b5050565b601f8211156132465761321781612e87565b61322084613105565b8101602085101561322f578190505b61324361323b85613105565b8301826131e2565b50505b505050565b600082821c905092915050565b60006132696000198460080261324b565b1980831691505092915050565b60006132828383613258565b9150826002028217905092915050565b61329b826124e6565b67ffffffffffffffff8111156132b4576132b3612768565b5b6132be8254612c81565b6132c9828285613205565b600060209050601f8311600181146132fc57600084156132ea578287015190505b6132f48582613276565b86555061335c565b601f19841661330a86612e87565b60005b828110156133325784890151825560018201915060208501945060208101905061330d565b8683101561334f578489015161334b601f891682613258565b8355505b6001600288020188555050505b505050505050565b7f536f7272792c20796f7572207265717565737420666f7220726566756e64206860008201527f6173206265656e2064656e6965642e0000000000000000000000000000000000602082015250565b60006133c0602f83612952565b91506133cb82613364565b604082019050919050565b600060208201905081810360008301526133ef816133b3565b9050919050565b7f596f7527766520616c72656164792072657475726e656420796f75722070726f60008201527f64756374206f72206469646e2774206576656e20626f756768742069742e0000602082015250565b6000613452603e83612952565b915061345d826133f6565b604082019050919050565b6000602082019050818103600083015261348181613445565b9050919050565b60006134938261269c565b915061349e8361269c565b92508282019050808211156134b6576134b5613084565b5b9291505056fea2646970667358221220faff835151a5a8f8e2ade1e65ae41e7ace821fb868cdf7089a3713aef16a8d3564736f6c634300081c0033",
  "linkReferences": {},
  "deployedLinkReferences": {}
}